:02000002B0004C
:1040000000400B00CC7C0B00000006000C000502F9
:084010000401A60F00000000EE
:04401800FC750B0028
:10401C0009480A49884208B505D0094A824202D0AB
:10402C00121A03F0FBF90748074A0021121A03F091
:10403C001DFA014808BD00BF24DF0320387C0B00AB
:10404C0090DF032090DF0320EDE7032070B5074ECF
:10405C00074C02F001FEA41BA4080025AC4200D1C1
:10406C0070BD56F8043B98470135F7E7E07B0B0031
:10407C00047C0B0000F08EB808B500F0FDF8BDE82C
:10408C00084002F0A1BD00F0F5BB00F0F3BB00F05E
:10409C00F9BB0078B0FA80F0400970470123037037
:1040AC0070470EB403B503AB002153F8042B0193F6
:1040BC0002F01BFD02B05DF804EB03B0704700008A
:1040CC002DE9F04792B014460E46054602F0D0FE9C
:1040DC002146074606A801F05BF8002106A800F06F
:1040EC0057FE2146059008A801F052F8012108A8B6
:1040FC0000F04EFE214604900AA801F049F8022176
:10410C000AA800F045FE214680460CA801F040F8B4
:10411C0003210CA800F03CFE214681460EA801F0BC
:10412C0037F804210EA800F033FE2146824610A871
:10413C0001F02EF8052110A800F02AFEDDE904326A
:10414C001049CDE902A0CDE900893846FFF7A9FF57
:10415C0002F08EFE0C49DFF838800C4FFFF7A1FF00
:10416C000024E3B2B34204F1010408D202F080FE51
:10417C0098F800303946EA5CFFF793FFF1E712B08C
:10418C00BDE8F08710760B0042760B0049760B00E9
:10419C0004E0032070B58EB002F06AFE4FF41651A5
:1041AC0002F056FE002000F0B7F942F210750446FA
:1041BC00002000F0B1F9001B61F10001A84271F17F
:1041CC00000307D202F054FE02F046FE10B900F0D4
:1041DC0041FBEDE702F04CFE02F03EFE01F042F82E
:1041EC0001F08AF801F03EF81F4A204C014609A85C
:1041FC0002F0C6F909A801F0DAF901F033F81C4A0B
:10420C00014609A802F0BCF909A801F0D0F90FCCBD
:10421C0004AD0FC504AD0FCD266809AC0FC409A8B9
:10422C00266000F037FE044609A8A4B900F04EFE43
:10423C000094ADF80E0002230DF10E0203210D487F
:10424C0001F0D6FC01F00EF80A4900220EB0BDE8D0
:10425C00704001F04FB900F03BFE00230093024682
:10426C0010230721EBE700BFC8E603209CDF0320E7
:10427C0020E10320F8DF03202DE9F04F89B000F096
:10428C00F1FF4FF4FA7101F085F800F0EBFF2C49C7
:10429C00DFF8C0902B4CDFF8C080294DDFF8BCB0A4
:1042AC00294F282201F0D2F889F8000002F0E0FD35
:1042BC0099F800202549FFF7F4FE0026A24699F84C
:1042CC000030B34234DD1F235A46FF2105F10800AC
:1042DC0000F08AFE002306223B7002FB06A239780E
:1042EC00079205290ED82846069100F051FD95F845
:1042FC00203088F80030DDE906123B785054013349
:10430C003B70ECE702F0B4FD18F9013B04936379C0
:10431C00039323790293E3780193A3782278009393
:10432C000B496378FFF7BDFE013606342435C6E72A
:10433C0041F2883009B0BDE8F04F02F019BC00BF63
:10434C0028E1032006E0032005E003204E760B0055
:10435C0060760B00F7DF0320F6E00320D8DF0320A4
:10436C002DE9F04F49494A484A4CDFF8248199B06D
:10437C0000F02EFE4849494800F02AFE48494548BD
:10438C0000F026FE0FCC0DF1100AAAE80F00B8E8D9
:10439C000F002768CAF8007009AE04AC0FC60FCC2A
:1043AC000EAD0FC5C146DFF818C159F810E9C6F8B3
:1043BC0000E04FF0000B2F6009AFCCE900BB0FCF32
:1043CC0013AC0FC413AFC4F800E060463549009736
:1043DC000EAB4FF01002CDE901BB01F0A7FFDFF8E7
:1043EC00BCC0BCE80F000DF1100EAEE80F00B9E830
:1043FC000F00DCF800C0CAF800C00DF1240E0DF15E
:10440C001009AEE80F00B9E80F00D8F800E0C6F8C4
:10441C0000E00EAE0FC6DFF8AC80C5F800C009AEE8
:10442C00C8E900BB0FCE3D460FC51F4BC4F800E0DA
:10443C001E49CDF808B0CDE900734FF004020EAB65
:10444C00404601F073FF1A481A4C01F0DCFB28259A
:10445C007F26204600F0C2FC04F1080001F0D3FBDB
:10446C0004F1140001F0CFFB013D84F8206004F14D
:10447C002404EED1104B114A9A600220C3E9005576
:10448C0019B0BDE8F04F00F061B900BF98760B0091
:10449C009CDF0320C4DF0320BD760B00B0DF0320BC
:1044AC00E2760B0007770B00CD400B000A770B0070
:1044BC00F8DF032028E1032090DF03200000FFFF3A
:1044CC00C8E6032020E1032008B5024B1B689B685B
:1044DC00019308BD6802030008B5024B1B68DB683A
:1044EC00019308BD6802030008B5024B1B685B68AA
:1044FC00019308BD1802030008B5024B1B68DB686A
:10450C00019308BD1802030008B5024B1B685B69D8
:10451C00019308BD1802030008B5024B1B68DB6D44
:10452C00019308BD1802030008B5024B1B689B6879
:10453C00019308BD7802030008B5024B1B681B6D84
:10454C00019308BD7802030008B5024B1B689B6DF4
:10455C00019308BD7802030008B5024B1B681B6E63
:10456C00019308BD7802030008B5024B1B685B6F12
:10457C00019308BD7802030008B5024B1B689B6FC2
:10458C00019308BD7802030008B5024B1B68DB6F72
:10459C00019308BD7802030008B5034B1B68D3F8E0
:1045AC008430019308BD00007802030008B5034B6A
:1045BC001B68D3F89830019308BD00007802030003
:1045CC0008B5034B1B68D3F8A830019308BD000055
:1045DC007802030008B5034B1B68D3F8EC30019349
:1045EC0008BD00007802030008B5034B1B68D3F824
:1045FC00F030019308BD00007802030008B5024BAF
:10460C001B685B6C019308BD4802030008B5024BA4
:10461C001B68DB6C019308BD4802030008B5024B14
:10462C001B685B6D019308BD4802030008B5024B83
:10463C001B685B69019308BD6402030008B5024B5B
:10464C001B68DB68019308BD3C02030008B5024BF4
:10465C001B681B69019308BD3C02030008B5024BA3
:10466C001B685B69019308BD3C02030008B5024B53
:10467C001B689B69019308BD3C02030008B5024B03
:10468C001B68DB69019308BD3C02030008B5024BB3
:10469C001B689B6A019308BD3C02030008B5024BE2
:1046AC001B681B6C019308BD3C02030008B5024B50
:1046BC001B681B68019308BD4C02030008B5024B34
:1046CC001B685B68019308BD4C02030008B5024BE4
:1046DC001B681B69019308BD4C02030008B5024B13
:1046EC001B685B69019308BD4C02030008B5024BC3
:1046FC001B689B69019308BD4C02030008B5024B73
:10470C001B68DB69019308BD4C02030008B5024B22
:10471C001B681B6A019308BD4C02030008B5024BD1
:10472C001B689B6A019308BD4C02030008B5024B41
:10473C001B685B6B019308BD6002030008B5024B5C
:10474C001B681B6D019308BD6002030008B5024B8A
:10475C001B685B68019308BD2002030008B5024B7F
:10476C001B685B69019308BD2002030008B5034B6D
:10477C001B68D3F88830019308BD000020020300A9
:10478C0008B5034B1B68D3F89430019308BD0000A7
:10479C002002030008B5024B1B685B68019308BD3F
:1047AC004002030008B5024B1B689B68019308BDCF
:1047BC004002030008B5024B1B68DB68019308BD7F
:1047CC004002030008B5024B1B681B69019308BD2E
:1047DC004002030008B5024B1B685B69019308BDDE
:1047EC004002030008B5024B1B689B69019308BD8E
:1047FC004002030008B5024B1B68DB69019308BD3E
:10480C004002030008B5024B1B681B6A019308BDEC
:10481C004002030008B5024B1B681B6B019308BDDB
:10482C004002030008B5024B1B685B6B019308BD8B
:10483C004002030008B5024B1B681B6C019308BDBA
:10484C004002030008B5024B1B685B6C019308BD6A
:10485C004002030008B5024B1B689B68019308BD1E
:10486C004402030008B5024B1B68DB6B019308BDC7
:10487C004402030008B5024B1B681B68019308BD7A
:10488C001C02030008B5024B1B685B68019308BD52
:10489C001C02030008B5024B1B689B68019308BD02
:1048AC001C02030008B5024B1B685B6A019308BD30
:1048BC001C02030008B5024B1B68DB6A019308BDA0
:1048CC001C02030008B5024B1B681B6C019308BD4E
:1048DC001C02030008B5024B1B685B6C019308BDFE
:1048EC001C020300002240681146FFF78BBF002218
:1048FC0040681146FFF796BF40680022FFF78ABF59
:10490C004068002281F00101FFF774BF002340686A
:10491C001A461946FFF766BF002340681A46194627
:10492C00FFF758BF002240681146FFF74BBF00222B
:10493C0040681146FFF736BF406800220221FFF79E
:10494C0039BF002340681A46FFF724BF024B0322ED
:10495C005A60024A1A607047D0E6032018770B00A1
:10496C00054B02221A60054B054A9A600020C3E9E8
:10497C000000FFF7EBBE00BFE4E60320D8E60320FF
:10498C000000FFFF10B504460068FFF77BFF2046D0
:10499C0010BD10B50446006808B1FFF773FF002383
:1049AC00C4E90133236010BD38B504460D460068D8
:1049BC000131FFF76FFF10B1C4E90005012038BDCC
:1049CC0010B50368044623B143688B4201D3012020
:1049DC0010BD2046FFF7E8FF0028F9D0A368002B94
:1049EC00F5D122681370F2E737B50D4611460192E6
:1049FC000446FFF7E5FF019A28B92046FFF7C9FFE7
:104A0C00204603B030BDA2602946206802F006FDA6
:104A1C002268A3680021D154F2E7002313B5C0E942
:104A2C00003304468360037341B10846019102F0E0
:104A3C0065FD019902462046FFF7D6FF204602B0DD
:104A4C0010BD38B5054600680C4668B16A688B68BD
:104A5C009A4207D3096802F049FDA368AB600023B2
:104A6C00A36038BDFFF70EFF23682B6063686B6093
:104A7C00A368AB600023C4E90033F1E710B5002351
:104A8C00C0E90033044683600373FFF7DAFF204666
:104A9C0010BD884210B5044605D00B682BB18A684E
:104AAC001946FFF7A1FF204610BDFFF772FFFAE78A
:104ABC0010B500230446C0E9003383600373FFF78D
:104ACC00E8FF204610BD13B5044659B108460191C4
:104ADC0002F014FD019902462046FFF785FF20469F
:104AEC0002B010BDFFF755FFF9E770B505460E464D
:104AFC0009B9002070BD6AB1846814442146FFF7DF
:104B0C005FFF0028F5D02868AB683146184402F0E6
:104B1C00EDFCAC600120EDE707B500238DF8041027
:104B2C00012201A98DF80530FFF7DFFF03B05DF816
:104B3C0004FB02680B46096862B141B9806860B138
:104B4C0010787047986840B1097848427047104611
:104B5C0002F0C2BC0029F5D10846704708B582683E
:104B6C008B689A4205D1FFF7E4FFB0FA80F0400958
:104B7C0008BD0020FCE77047704770477047000085
:104B8C00064B994210B500F10C0405D0084602F012
:104B9C001DFB002808BF0024204610BD08790B001F
:104BAC00064B994210B500F10C0405D0084602F0F2
:104BBC000DFB002808BF0024204610BD08790B000F
:104BCC00064B994210B500F10C0405D0084602F0D2
:104BDC00FDFA002808BF0024204610BD08790B0000
:104BEC0010B568210446FFF752FA204610BD10B5E7
:104BFC0028210446FFF74BFA204610BD10B5302192
:104C0C000446FFF744FA204610BD6821FFF73FBA6F
:104C1C002821FFF73CBA3021FFF739BAF0B500254F
:104C2C00EC1C8C420DD86E1C445D875D974205D1FF
:104C3C002644B14205D31D60601CF0BD01342544EF
:104C4C00EEE70020F9E70000024A03490A20FFF7CB
:104C5C006DBD00BF05450B004C770B0030B40D4605
:104C6C0011461A46036809682868D3E90043A4462C
:104C7C0030BC6047012A38B5044602D10B6823606A
:104C8C0003E0022A03D0032A0DD0002038BD0820EF
:104C9C000D68FFF7F8F903460028F0D095E80300FB
:104CAC0083E80300EBE700680028EED00821FFF74B
:104CBC00EEF9EAE710B5836804462BB103220146EE
:104CCC0098470023C4E9023310BD10B5836804462D
:104CDC002BB10322014698470023C4E9023310BDCF
:104CEC0010B58368044613B1032201469847204649
:104CFC0010BD10B504465830FFF7F2FF04F1480020
:104D0C00BDE81040FFF73EBE10B54368013B0446BA
:104D1C00436063B903689B689847A368013BA36031
:104D2C002BB923682046DB68BDE81040184710BD3E
:104D3C00A0F13003DAB2092A01D818467047A0F165
:104D4C006103052B01D857387047A0F14103052B9F
:104D5C0094BF37384FF0FF307047000010B5002378
:104D6C000370044B04461868FFF750FC01232370B2
:104D7C00204610BDF0E6032010B5037804461BB1A5
:104D8C00024B1868FFF74AFC204610BDF0E60320E2
:104D9C00052994BF405C0020704782B00346086828
:104DAC0049686A4603C26A4603CA186018465960C5
:104DBC0002B0704708B582798B799A4206D10622E7
:104DCC0002F01CFBB0FA80F0400908BD0020FCE7A3
:104DDC004FF0FF33036083800020704708B5024614
:104DEC00002101604160FFF7F3FF9171104608BD8F
:104DFC0010B501230361054B024603F1100153F872
:104E0C00044B42F8044B8B42F9D110BD16790B00C0
:104E1C0010B50B460446B1B1012A01F110020AD1BA
:104E2C00014653F8040B41F8040B9342F9D10123CA
:104E3C002361204610BD411E12F8010D01F8010F2F
:104E4C009A42F9D1F3E7102202F010FBF1E738B5E2
:104E5C0004460D46FFF7CCFF00232361A5812046B5
:104E6C0038BD38B5044615461A46FFF7D1FFA58163
:104E7C00204638BD08B5026922B98089003818BFB0
:104E8C00012008BD0249102202F0B8FAF6E700BF73
:104E9C0036790B000069704738B50C461422002196
:104EAC00054602F0E3FA23691BB9A3892B80284637
:104EBC0038BD01232B7421462B4604F1100251F806
:104ECC00040B43F8040B9142F9D1F0E78089704749
:104EDC00704708B502690B699A4206D1102202F09C
:104EEC008DFAB0FA80F0400908BD0020FCE7000004
:104EFC0001232DE9F3410361344B0C46064602466F
:104F0C0003F1100153F8040B42F8040B8B42F9D156
:104F1C0044B32421204602F0F9FA04284FF000058E
:104F2C0023D1ADF8045001AFA51C063415F8020CC2
:104F3C00FFF7FEFEB0F1000812DB15F8010CFFF7CD
:104F4C00F7FE00280CDB023540EA0810A54207F8F2
:104F5C00010BEBD19DF8053033739DF8043073735E
:104F6C000023336102B0BDE8F0814FF0100824211A
:104F7C00204602F0CBFAA84207D842460021304620
:104F8C0002B0BDE8F04102F071BAB8F1000FE9D0FF
:104F9C00605DFFF7CDFE030615D4000108F1FF3864
:104FAC00C7B206F808702421204602F0AFFA01358A
:104FBC00A84208D9605DFFF7BBFE40B20028A4BF31
:104FCC00384306F808000135D1E700BF16790B000D
:104FDC0013B504460191FFF70BFF20460199FFF72B
:104FEC0087FF204602B010BDF7B5054616461F4692
:104FFC000A4601ABD0E90001FFF710FE30F00204C5
:10500C000CD0841EBC4228BF3C463EB101992B6893
:10501C00023122461944304602F000FA204603B011
:10502C00F0BD37B513460C4601920A4608210546D9
:10503C00FFF7DAFF40B9019B22460921284603B04D
:10504C00BDE83040FFF7D0BF03B030BDF0B50C4623
:10505C0089B00C490546FFF7E0FC1F226946204643
:10506C00FFF7DFFF064650B16C46002714F8011B12
:10507C002846FFF751FD10B10137BE42F6D1284644
:10508C0009B0F0BD41760B0007B5022301AA192126
:10509C00FFF7AAFF08B1BDF8040003B05DF804FBEC
:1050AC0038B54FF6FF730025044643800E2229467F
:1050BC0005700571063002F0D9F904F11400FFF700
:1050CC0097FE04F12800FFF793FE044904F13C001D
:1050DC00FFF7A3FC6565204638BD00BF41760B0089
:1050EC0010B5D0E9063203EBC2029342184606D043
:1050FC00046824888C4203F10803F6D110BD00200B
:10510C00FCE700002DE9F041002606600746282048
:10511C000C46FEF7B8FF051E05F10C080FD0012355
:10512C00C5E90133084B2B604046FFF761FE0FCCFD
:10513C002E6285F8246046460FC623683360C7E9A3
:10514C0000853846BDE8F081D8780B0070B5002595
:10515C00056006463020FEF796FF044688B1012311
:10516C00C0E90133094B03604FF6FF7383810E30A6
:10517C00FFF734FEC4E90655C4E90855C4E90A55DD
:10518C00A57574600C343460304670BDF4780B0037
:10519C0037B50D46044601A8FFF7E0FD2A68D2F8A2
:1051AC0002302360D2F80630636001A8FFF7E4FDFB
:1051BC00204603B030BD30B5054687B00C4601A87B
:1051CC00FFF7CCFD2A68236812881B889A420DD100
:1051DC00294602A8FFF7DCFF214604A8FFF7D8FFF9
:1051EC0004A902A8FFF7E6FD044600B9002401A8B3
:1051FC00FFF7C2FD204607B030BD000010B50446D5
:10520C006420FEF740FF68B10023C0E90033C0E919
:10521C000233C0E90433C0E906330362C362C363DB
:10522C00C364C365206020B90A4A0B490A20FFF702
:10523C007DFA0020FFF778F920B1064A07490A20C9
:10524C00FFF774FA216806480022FFF7CDF92046D3
:10525C0010BD00BF05450B004C770B008A770B0087
:10526C00455D0B0010B50A4C2378BFF35B8FDB0751
:10527C000CD42046FEF70DFF40B10648FFF7BEFFE9
:10528C002046FEF70BFF044802F0B2F8014810BDAF
:10529C00E8E60320F4E6032025560B0030B503683E
:1052AC00093B012B8DB004460D4611D8FFF7DAFFF0
:1052BC00A1880068FFF714FF034658B92022CDE9F6
:1052CC0004200B4A00920B4904AA3220FFF736FA4D
:1052DC000DB030BD6A6D002AFAD0D4E9032105F176
:1052EC004C00CDE90312AC6D04AA03A9A047EFE76B
:1052FC00CC770B0063770B0008B50020FFF714F98F
:10530C0000EAE07008BD19B90A460846FFF714B95F
:10531C00D1E900010022F9E770B5044618300E46B9
:10532C001546FFF7C7FC04F12800FFF7CEFCC4E9D3
:10533C000365002221460348FFF726F90028A8BF81
:10534C00606970BD25680B0010B504464069FFF715
:10535C0099FAA068FFF796FA204610BD002247F68E
:10536C007F71C0E90022C0E90222C0E90422C0E931
:10537C000E22C0E91022C0E91222C0E91422C0E9B1
:10538C001622C0E91822C0E91B2202620263A0F8AF
:10539C006810704730B585B0002410230D46ADF869
:1053AC000230214603236846ADF80030CDE90144B4
:1053BC000394FFF7E1F821466846ADF80850FFF773
:1053CC00D3F805B030BD70B5D0E90053044605EBF9
:1053DC000316AE4204D02846FFF7D4FA1035F8E78E
:1053EC002068FFF74FFA204670BD10B504460068E0
:1053FC00FFF748FA204610BD70B50446C06DFFF7A4
:10540C0041FA206DFFF73EFA04F1380504F144002F
:10541C00FFF7EBFF2846FFF7D6FF04F12800FFF754
:10542C005FFC04F11800FFF75BFCD4E90053242661
:10543C0006FB0356AE4204D02846FFF785FF243501
:10544C00F8E72068FFF71EFA204670BD30B5154608
:10545C009FB00C4679B172B101A8FFF77FFF2146CE
:10546C002A4601A8FFF758FF044601A8FFF7C4FF1E
:10547C0020461FB030BD014CFAE700BFF2FEFFFF23
:10548C0038B5141E4368054602DB62189A4200DDEB
:10549C005C1A2A68501801191A44521A01F0CCFFF0
:1054AC006A68121B6A6038BD37B50A4604460D4659
:1054BC0001ABD0E90001FFF7B1FB024638B101990D
:1054CC002046FFF7DDFF29462046FFF7EDFF03B02E
:1054DC0030BD10B50C4629B90A460846BDE8104047
:1054EC00FFF732B801212046FFF7DEFFD4E90001B7
:1054FC000022F3E738B504461546FFF704FF0028F1
:10550C000ADB29462046FFF7E4FF002804DBBDE850
:10551C0038400020FFF720B838BD000038B5002314
:10552C000446836008200D46FEF7ADFD18B12B68CC
:10553C0003606B684360034BE360034B2060A36024
:10554C00204638BD694C0B00814C0B000B68036086
:10555C0013B15A6801325A60704710B551F8043BC8
:10556C00044640F8043BFFF7F1FF23680BB9FFF743
:10557C006BFB204610BD10B551F8043B044640F8B7
:10558C00043BFFF7E3FF204610BD10B551F8043B78
:10559C00044640F8043BFFF7D9FF204610BD10B578
:1055AC000446006808B1FFF7AFFB204610BD10B5EC
:1055BC0004460430FFF7F3FF204610BD70B5D0E968
:1055CC000053044605EBC306AE4204D0281DFFF77A
:1055DC00E6FF0835F8E72068FFF754F9204670BD60
:1055EC0070B5D0E90053044605EBC306AE4204D0B7
:1055FC00281DFFF7D4FF0835F8E72068FFF742F9BC
:10560C00204670BD10B504462430FFF7E9FF04F1C5
:10561C001800FFF7D3FF10BD70B5174B1C6854B3BF
:10562C0004F15400FFF75CFB04F14400FFF758FB56
:10563C0004F13400FFF754FB04F12400FFF750FB96
:10564C00D4E9065305EBC306AE4204D0281DFFF780
:10565C00A6FF0835F8E7A069FFF714F904F10C0070
:10566C00FFF7BEFF2046FFF7A9FF20466421BDE8E7
:10567C007040FEF70CBD70BDF4E6032013B500239B
:10568C00D1E90042C1E90033036800930460436828
:10569C00426001A80193FFF782FF02B010BD82683F
:1056AC0010B50AB901F08EFDBDE81040C36818476B
:1056BC002DE9F0470023C0E900338360D1F8048062
:1056CC00984505460F464ADD4FEA0810FFF7D2F819
:1056DC000646002843D0D5E90041A04204EB011A4C
:1056EC0016D9504515D2AAF1100AA4F11009AAEB4B
:1056FC0004040444D1451DD01CB151462046FFF78B
:10570C00BDF95046FFF73EF9AAF1100A103CF1E73B
:10571C0010D0B146A2450DD0B9F1000F03D02146EF
:10572C004846FFF7ABF92046FFF72CF9103409F186
:10573C001009EFE72868FFF7A5F8C5F808802E6078
:10574C00D7E9004304EB0318A04506D021463046A8
:10575C00FFF7AEF910341036F6E77B686B6028461D
:10576C00BDE8F08730B58DB00C4600F1380101A8CA
:10577C00FFF79EFF029B002B2FDD04F1140104A800
:10578C00FFF764FC04F1080108A8FFF75FFC0A9A14
:10579C00069B13431FD0DDE9014504EB0515AC4214
:1057AC0019D004A92046FFF7D9F960B1012408A843
:1057BC00FFF7E8F804A8FFF7E5F801A8FFF703FEE8
:1057CC0020460DB030BD204608A9FFF7C7F91034AC
:1057DC000028E4D0EAE70024E9E70124EDE7F8B576
:1057EC000023C0E9003383604F689F4205460E4694
:1057FC003EDDF800FFF73EF80446C8B3D5E90003D8
:10580C00844200EBC30310D99C420FD2083B1A1AF6
:10581C00A0F1080C22449C4518D01AB119681160EB
:10582C0059685160083B083AF5E70FD0014622460B
:10583C008B420BD03AB1D1F800C0C2F800C0D1F8FD
:10584C0004C0C2F804C008310832F1E7FFF71AF8B7
:10585C002C60AF60D6E9003103EBC100984206D052
:10586C001A6822605A68626008330834F6E7696087
:10587C002846F8BD70B504460020C4E90000A060BD
:10588C004E6886420D4612DD7100FFF703F870B1C9
:10589C002060A660D5E9003203EB42029A4204D0A4
:1058AC0033F8021B20F8021BF8E76B686360204694
:1058BC0070BD10B50379044623B90368186808B1A4
:1058CC00FEF7E0FF204610BD10B50379044623B95E
:1058DC000368186808B1FEF7D5FF204610BD00001C
:1058EC002DE9F043D0F86C808FB00F46B8F1000F63
:1058FC0072D0056F002D6FD001F114091F23002207
:10590C00FF214846FFF770FB0837FF2304460022AF
:10591C0019463846FFF768FBAC42064606D0AE4245
:10592C0030D0002420460FB0BDE8F0832046FEF7AF
:10593C00A1FF03AB04930023044603908DF81430AD
:10594C0070B92023CDE90630244B0093244903463B
:10595C0006AA3220FEF7F2FE04A8FFF7AAFFE1E741
:10596C000246FF212B464846FFF73EFB03982A468A
:10597C00414601F043FD18B104A8FFF79AFFCEE7AA
:10598C000124E9E72846FEF775FF002403AB064621
:10599C00039004938DF8144078B92023CDE9063098
:1059AC000E4B00930E49034606AA3220FEF7C6FEA4
:1059BC00344604A8FFF788FFB4E70246FF212B46C4
:1059CC003846FFF711FB03982A46414601F016FDB5
:1059DC000028EED10124ECE70124A3E7E4770B00C7
:1059EC0063770B0038B50D1E0446006803DDFEF727
:1059FC0051FF18B938BDFEF745FF00202060A560A7
:105A0C000120F7E708B583688B4202DAFFF7EAFF5B
:105A1C0008BD0120FCE738B50023C0E900338360E2
:105A2C000D4649689942044610DDFFF7DBFF68B16B
:105A3C00D5E9003122681944994205D00AB1187889
:105A4C00107001330132F7E76B686360204638BD94
:105A5C0038B50B6803604B68436004460D4608304C
:105A6C000831FFF7D8FF05F1140104F11400FFF71A
:105A7C00D2FF95F8203084F82030204638BD1FB571
:105A8C00044601A8FFF7C7FF019B029A2068236018
:105A9C0063686260039A0293A368A2600190039307
:105AAC00FEF7F0FE04B010BD2DE9F0410F46416841
:105ABC001D461944836899420446904612DC2668B8
:105ACC0062683E44D21B3146701901F0B5FC2A467F
:105ADC004146304601F0A2FC63682B446360012010
:105AEC00BDE8F081FFF77EFF0028E8D1F8E7134608
:105AFC000A46002110B50446416002B10BB90020E2
:105B0C0010BDFF2B28BFFF23FFF7CEFF0028F7D0D7
:105B1C006068F5E7F8B50D46D0E9011399420446E3
:105B2C0016460BDA276862687919521B481C01F07B
:105B3C0083FC7E55636801336360F8BD0131FFF768
:105B4C0051FF0028EED1F8E70A464168FFF7E2BFA3
:105B5C002DE9F74304461D460F4601AB90460A4615
:105B6C00D0E900019DF82890FFF758F8AE1C636847
:105B7C000246B9F1000F26D128B333441B1AFF2B70
:105B8C0009D801992046FFF77BFC61682046314417
:105B9C00FFF738FF18B9606803B0BDE8F0836A1CE2
:105BAC000199D2B22046FFF7B5FF01993A4601316F
:105BBC002046FFF7AFFF01992B46424602312046A3
:105BCC00FFF772FFE7E7F118FF29E4D82046FFF74B
:105BDC0019FF0028DFD0691CC9B22046FFF7B4FFBB
:105BEC0039462046FFF7B0FF61682B464246E6E790
:105BFC0030B49DF808501AB1029530BCFFF7A8BF1D
:105C0C00406830BC70471FB50023C0E90033836087
:105C1C000622009301238DF80F2019460DF10F0277
:105C2C000446FFF7E5FF204604B010BD8842F8B5E6
:105C3C0004460D46164614D9904213D2A2F108061A
:105C4C00751AA1F108072C44B74218D01CB1314683
:105C5C002046FFF79AFC301DFFF7A1FC083E083CDC
:105C6C00F2E70CD0B5420AD01CB129462046FFF70A
:105C7C008CFC281DFFF793FC08350834F2E7F8BDBF
:105C8C00F7B5044646686846FFF77FFCD4E9017314
:105C9C009F4212DB0137002F29DDF800FEF7EAFDE9
:105CAC000546F0B1D4E9001201EBC202FFF7BEFFCA
:105CBC002068FEF7E7FD2560A7602368626803EBA8
:105CCC00C60603EBC202314606F10800FFF7AEFF31
:105CDC001EB169463046FFF758FC636801336360B8
:105CEC00012501A8FFF75BFC284603B0F0BD002599
:105CFC00DEE7F8B5D0E9004305460F4604EBC306D2
:105D0C00A64205D039462046FFF755FA08B114B91A
:105D1C00F8BD0834F4E7201DFFF741FCD5E900324B
:105D2C0004F1080103EBC2022046FFF77FFF6B680A
:105D3C00013B6B60ECE700002DE9F04105468EB0AD
:105D4C0003A80C46FFF70AF82E68F31E0D2B3CD85F
:105D5C00DFE813F00E0053003B00D1003B003B008A
:105D6C003B003B003B009B009B009B009B009B006F
:105D7C0004A8FFF7EBF9049BAA891A8069680498B8
:105D8C0008310230FFF709F804A906A8FFF7FDFB5C
:105D9C0006A904F11800FFF773FF054607A8FFF7E3
:105DAC00FEFB20230693B5B95D4B5E490093322070
:105DBC002B4606AA0795FEF7C1FC049B29461888BA
:105DCC00FEF7F4FB05A8FFF7EAFB03A8FEF7D4FFE8
:105DDC000EB0BDE8F081544A00920023514907935C
:105DEC0006AA0120FEF7AAFCE36A002BEAD004A95C
:105DFC0004F12400FFF753FCE4E7A9892046FFF7E0
:105E0C006FF906460028E0D00568D5E906324FF652
:105E1C00FF71298003EBC2029A4203D053F8080B9E
:105E2C004180F9E7D5E9037307EBC308B84504D003
:105E3C00381DFFF7B4FB0837F8E700232B61D5E9D1
:105E4C00067307EBC308B84504D0381DFFF7A7FB52
:105E5C000837F8E70023EB61AB72E36B23B13146F3
:105E6C0004F13400FFF71BFC00232022CDE90623AC
:105E7C002E4A00922B4906AA0120FEF75FFC314600
:105E8C0004F11800FFF735FF9FE7A9892046FFF7BB
:105E9C0027F9002899D0E36C002B96D000230D2E07
:105EAC00ADF8163001D0102E17D1002369681A46B0
:105EBC0006258DF8153004918DF814200690DDE937
:105ECC00040109AB8DF81C60089583E80300236D71
:105EDC0006A904F14400984777E70F2E01BF2B7AEF
:105EEC00696803F0010208250FBFC3F340031A468B
:105EFC0019461D46DDE7A9892046FFF7F1F8014652
:105F0C0000283FF462AFE36D002B3FF45EAF6B688B
:105F1C00069306AA236E04F15400984755E700BF78
:105F2C00FF770B0063770B0025780B0042780B0092
:105F3C0038B50D1E0446006805DD14216943FEF7D3
:105F4C00A9FC18B938BDFEF79DFC00202060A560A7
:105F5C000120F7E72DE9F8430024C0E900448460F0
:105F6C0088464968A14207461ADDFFF7E1FFB8B140
:105F7C00D8E900934FF0140CD7F800E00CFB039C0D
:105F8C0009EB0405AC4508D01EEB04061FBF0FCD72
:105F9C000FC62B6833601434F2E7D8F804307B60FA
:105FAC003846BDE8F8832DE9F843D1E90087456808
:105FBC008368E9199942044617DC14232668626841
:105FCC005D4303FB07F95A432E44521B314606EB43
:105FDC00090001F031FA4A464146304601F01EFAFA
:105FEC0063683B446360BDE8F883FFF7A1FF0028BA
:105FFC00E3D1F8E782B070B50C4604A981E80C0037
:10600C00D0E901139942054617DA142303FB04F176
:10601C006A682C685A430C44521AE018214604AEA4
:10602C0001F00AFA0FCE0FC4336823606B6801339A
:10603C006B60BDE8704002B070470131FFF778FF2C
:10604C000028E2D1F5E72DE9F04F002493B0931E20
:10605C00C0E90044DBB205460F46904684600593C8
:10606C0079688C4272DA386807AB4246091B2044C7
:10607C00FEF7D4FD0646002868D0059B012B2FD8CF
:10608C00A0F1020B4FEA5B0B4FF000090DF13C0A3B
:10609C00079BCB45234455D03A6803EB4903134483
:1060AC0008A8D9789B7843EA0121FEF7D0FE0DF1C0
:1060BC00200EBEE80F000DF1340CACE80F00DEF83A
:1060CC000030CCF800309AE807008DE807000DABE3
:1060DC000CCB69682846FFF78DFF09F10109D7E75A
:1060EC00A8F10603012B2DD8A0F1020B4FEA1B1BC4
:1060FC004FF000090DF13C0ACB45079B22D002332F
:10610C003968234403EB09130122194408A8FEF74C
:10611C007FFE0DF1200EBEE80F000DF1340CACE843
:10612C000F00DEF80030CCF800309AE807008DE85C
:10613C000700DDE90D2369682846FFF75BFF09F1CD
:10614C000109D9E7079B1C44344489E7284613B05E
:10615C00BDE8F08F30B5002385B0C0E90033836013
:10616C000446022201A80D46FFF76DFF01A9204647
:10617C00FFF719FF01A8FFF738F90222294601A8F9
:10618C00FFF761FF01A92046FFF70DFF01A8FFF7FC
:10619C002CF90322294601A8FFF755FF01A9204637
:1061AC00FFF701FF01A8FFF720F90622294601A8F5
:1061BC00FFF749FF01A92046FFF7F5FE01A8FFF7FD
:1061CC0014F90722294601A8FFF73DFF01A9204633
:1061DC00FFF7E9FE01A8FFF708F9204605B030BD2E
:1061EC002DE9F04F8BB00C4600F1440101A8FFF7EC
:1061FC00B1FE029B002B4ADD04F1140104A8FFF749
:10620C00A9FF04F1080107A8FFF7A4FF059D089E4C
:10621C00002D01DC002E38DD019A029FDDF8108084
:10622C00DDF81C90142303FB072703FB058503FBF8
:10623C0006969246BA4528D0C346AB4515D059466A
:10624C005046FEF746FE0BF1140B04460028F4D022
:10625C0007A8FFF7CAF804A8FFF7C7F801A8FFF7CB
:10626C00C4F820460BB0BDE8F08FCB46B34509D03F
:10627C0059465046FEF72DFE0BF1140B0446002830
:10628C00F4D0E5E70AF1140AD4E70024E0E701248E
:10629C00E4E713B50B460246D0E900016C4684E8EE
:1062AC00030093E8030082E8030094E8030083E80A
:1062BC00030002B010BD38B505460C46FFF7E9FFE8
:1062CC00AB68A268AA60A360EB68E268EA60E3606E
:1062DC0038BD70B504468CB00E4601921D46FEF7D3
:1062EC00DFFE2671019904F13C00FEF7ECFB04F192
:1062FC004C06CDB1109B029502A904A80393FFF79D
:10630C000DF9002308A904A80A93FFF7D4FF31461E
:10631C0008A8FFF7D0FF08A8FEF7E2FC04A8FEF7D8
:10632C00DFFC20460CB070BD0695EAE72DE9F04F76
:10633C0087B01D46DDE9104380468B469246129984
:10634C0003930022682002910492FDF79CFE061E26
:10635C0006F10C0918D001223746C6E90122029930
:10636C00154A47F8202B039B00915A465146484644
:10637C00FFF7AFFF0FCD0FC72B683B600FCC06F1BB
:10638C0034050FC523682B6004A94046CDE904965B
:10639C00FFF774F905A8FFF702F9D8F800303BB9FC
:1063AC00064A07490A2007B0BDE8F04FFEF7BEB910
:1063BC0007B0BDE8F08F00BFBC780B0005450B00A3
:1063CC004C770B008842F8B504460D46164614D996
:1063DC00904213D2A2F10806751AA1F108072C44B9
:1063EC00B74218D01CB131462046FFF7C4F8301D17
:1063FC00FFF7D5F8083E083CF2E70CD0B5420AD0BE
:10640C001CB129462046FFF7B6F8281DFFF7C7F840
:10641C0008350834F2E7F8BD70B50E1E054611DDDF
:10642C00F000FEF727FA044658B1D5E9001201EB4B
:10643C00C202FFF7C7FF2868FEF724FA2C60AE6093
:10644C00012070BD0024F6E773B504464568684624
:10645C00FFF791F8D4E90113994210DA23686268C6
:10646C0003EBC50503EBC202294605F10800FFF753
:10647C00A9FF8DB9636801336360012606E0013121
:10648C002046FFF7C9FF06460028E7D101A8FFF711
:10649C0086F8304602B070BD69462846FFF76BF8A7
:1064AC00E8E78842F8B504460D46164614D99042E2
:1064BC0013D2A2F10806751AA1F108072C44B742B1
:1064CC0018D01CB131462046FFF747F8301DFFF7B6
:1064DC0066F8083E083CF2E70CD0B5420AD01CB175
:1064EC0029462046FFF739F8281DFFF758F80835DC
:1064FC000834F2E7F8BD70B50E1E054611DDF0004C
:10650C00FEF7B8F9044658B1D5E9001201EBC20206
:10651C00FFF7C7FF2868FEF7B5F92C60AE600120C5
:10652C0070BD0024F6E773B5044645686846FFF76E
:10653C0014F8D4E90113994210DA2368626803EB6A
:10654C00C50503EBC202294605F10800FFF7A9FFB8
:10655C008DB9636801336360012606E00131204682
:10656C00FFF7C9FF06460028E7D101A8FFF717F887
:10657C00304602B070BD69462846FEF7EEFFE8E7EC
:10658C002DE9F04F1746A1B080460AA80E46FEF73B
:10659C00E5FB3C68237953B939464046FEF7DDFFED
:1065AC000AA8FEF7E9FB404621B0BDE8F08F33683E
:1065BC00D3E9035305EBC303039304F1280A04F155
:1065CC00140B039B9D4221D0D5F80090584609F13D
:1065DC001401FEF77EFCB8B109F128015046FEF714
:1065EC0078FC88B12368D9F80020534033F47F43FA
:1065FC000AD12022CDE915235E4A009215AA5E49E4
:10660C003220FEF79BF8C7E70835DAE75046FEF76D
:10661C0031FC60B95949012215A815ADFEF7F8FBFC
:10662C000FCDD446ACE80F002B68CCF800303368A3
:10663C00D3E9005305EBC30B5D45A94651466ED01B
:10664C0055F8080BFEF745FC0028F5D004F1140AA8
:10665C005046FEF70FFC88B9494B48491A8801325D
:10666C0092B21A8015A8012315ADFEF7FAFB0FCDD7
:10667C00D446ACE80F002B68CCF80030414B159396
:10668C002822002116A800F0F1FE514604A8FEF7BE
:10669C0003FC04AB18AA0DF1200C186859681546B8
:1066AC0003C5083363452A46F7D118682860237957
:1066BC008DF85830D9F800309B8AADF87430E36B04
:1066CC001793314B0022A11D15A8CDE91E34FDF7FF
:1066DC0081FF00287FF460AF0123237034683946B2
:1066EC000C340DA8FEF739FF20460DA9FFF71BFF50
:1066FC0004460EA8FEF753FF002C7FF44DAF202369
:10670C00CDE90D34214B00930DAA234677E739468A
:10671C004046FEF722FF0CA8FEF741FF40E70BA80E
:10672C00FEF7F0FC514615A8FEF7B6FB0B9A0023BA
:10673C00143215A90120FDF743FF0028E7D1356875
:10674C000BA90DA8FEF717FF28460DA9FFF77CFE35
:10675C0005460EA8FEF723FF002DD8D032685368EB
:10676C00126803F10053013B0CA802EBC309FEF7BE
:10677C0016FF6BE761780B0063770B0026790B0033
:10678C00ECE6032003002C00A9520B008C780B00C4
:10679C008842F8B504460D46164614D9904213D2D9
:1067AC00A2F12406751AA1F124072C44B74218D083
:1067BC001CB131462046FFF74BF93046FEF7C4FDBD
:1067CC00243E243CF2E70CD0B5420AD01CB1294639
:1067DC002046FFF73DF92846FEF7B6FD2435243454
:1067EC00F2E7F8BDF8B50E1E054613DD242707FBAE
:1067FC0006F0FEF73FF8044658B1D5E9001207FB46
:10680C000212FFF7C5FF2868FEF73CF82C60AE605B
:10681C000120F8BD0024F6E72DE9F0439DB001AD51
:10682C00064628460C46FEF7D9FA03A8FFF7EBF903
:10683C0006A8FFF7E8F930697169F28913AB03C355
:10684C0085E803003378B1688DF8243006A8FFF78B
:10685C004EF9B289716803A8FFF749F994F96830C9
:10686C007F2B13AF03D09DF924209A425CDB94F963
:10687C0069307F2B03D09DF924209A4254DC04F11B
:10688C0050013846FEF7ABFF149B002B52DD139ED4
:10689C0006EBC309B14550D030462946FEF78AFABB
:1068AC00083680460028F5D01398FDF7EBFFB8F1B9
:1068BC00000F39D029462046FEF754FFA0B32946D5
:1068CC002046FFF78DFC064670B304F15C01384698
:1068DC00FEF7D0FF149B002B12DD06A8FEF7D4FBAD
:1068EC00804603A8FEF7D0FBDDE9133203EB42022E
:1068FC009A4225D033F8021B884501D08842F7D143
:10690C001398FDF7BFFF7EB129462046FEF7E8FF3E
:10691C0050B1236AB3B16369139501336361636A40
:10692C00394604F1180098472846FEF70DFD1DB0B6
:10693C00BDE8F0834FF00108B6E74FF00008B3E76D
:10694C000026DDE7D4F83080B8F1000F07D063697A
:10695C00013363612946636B04F12800E3E7D4F843
:10696C000CC0BCF1000F25D063692269013393423E
:10697C006361D9D8242253432A4603CA243B0CEB27
:10698C0003064CF80300716006F1080003A9FFF739
:10699C0076F806A906F11400FFF771F89DF924307A
:1069AC0086F82030D4E904329A42BDD34046FDF734
:1069BC00F3FDB9E795E803000DF1280888E803001A
:1069CC0003A90CA8FFF727F806A90FA8FFF723F8CF
:1069DC009DF824308DF84830414638466668FFF7FC
:1069EC0037F8D4E90113994210DA2368616824223C
:1069FC0002FB063606F1240002FB01323146FFF79A
:106A0C00C7FE86B963680133636005E00131204637
:106A1C00FFF7E8FE0028E8D13846FEF795FC404623
:106A2C00FEF792FC80E739463046FFF711F8E9E7AC
:106A3C00024800230360FDF7E1BD00BFF0E6032030
:106A4C00F8B506460D468F180024BD420CD03368AD
:106A5C0015F8011B9B6830469847031E01DB1C444C
:106A6C00F3E7002C08BF1C462046F8BD13B50446BE
:106A7C00084659B1019100F041FD23680199DB688A
:106A8C000246204602B0BDE81040184702B010BDC7
:106A9C0003689B68184738B50D210546FFF7F8FFCA
:106AAC000A2104462846FFF7F3FF204438BD30B5D1
:106ABC008BB00023012A8DF8243098BF0A2209AC30
:106ACC000D46B1FBF2F101FB125303F0FF03092B4E
:106ADC0094BF30333733DBB2AA4204F8013DEFD90F
:106AEC002146FFF7C3FF0BB030BD2DE9F04186B056
:106AFC0000AF05460E46381D142114463B60FDF7C9
:106B0C00D1FE13280ED8391D2846FFF7AFFF0446D7
:106B1C001EB12846FFF7BFFF044420461837BD4678
:106B2C00BDE8F08100F1080323F00703E846ADEB64
:106B3C00030D2246411C3B686846FDF7B3FE6946CF
:106B4C002846FFF793FF0446C546E1E7014B024A8E
:106B5C001A607047F8E6032046790B00024B1A685E
:106B6C00024B1A60704700BF24DF0320FCE60320B1
:106B7C000021FDF7F3BD0000014B00229A60704725
:106B8C0000E70320014B1860704700BF28DF03208B
:106B9C0008B50B4B43B100F06BF903681B699847C0
:106BAC00002801DDAFF30080064B43B100F0E4FA9E
:106BBC0003681B699847002801DDAFF3008008BD0E
:106BCC00000000000000000008B5FFF7E1FFFDF732
:106BDC009BFC014B186008BD58E703200548064A8A
:106BEC00064908B5121A00F019FC054B054A1A6043
:106BFC0008BD00BF00F4032004F40320347C0B0018
:106C0C0000F403201E1C279A07B5002300931A4694
:106C1C006FF07701FDF7B4FD03B05DF804FB0000E5
:106C2C0007B543880A2B08D0502B0BD1094B1B6896
:106C3C004BB103B05DF804EB1847FFF7E5FF03B069
:106C4C005DF804FB002300931A466FF07701FDF703
:106C5C0097FDF4E714E7032010B512480021FDF767
:106C6C0039FE114B1A68114B9A42114B0CBF012281
:106C7C0000221A7001D0FFF7B1FFFDF735FC044676
:106C8C0000F0FCFB0B4B13B12046AFF3008000214E
:106C9C000848FDF7E7FDBDE8104007480021FDF767
:106CAC0065BD00BF916B0B0000F403201E1C279ADE
:106CBC0010E70320000000002D6C0B00704710B58E
:106CCC0018210446FDF7E3F9204610BDF0B5037D0D
:106CDC00062B8DB00E4600F104074FF0000412D0C5
:106CEC0000F1080515F8011D0A223046FFF7DFFEFA
:106CFC00AF42044419D0002CF4D02E213046FFF7BB
:106D0C00C7FE0444EEE72F236A4639460A208DF865
:106D1C000040FDF78BFC684600F0F0FB3368024640
:106D2C00DB68694630469847044620460DB0F0BDF6
:106D3C0010B5054B0446112240F8043B002100F02D
:106D4C0095FB204610BD00BF70790B000346074A27
:106D5C0010B543F8042B01F1100251F8044B43F821
:106D6C00044B9142F9D10A781A7010BD70790B005E
:106D7C0010B59DF8084044EA032343EA024242EA74
:106D8C00016104234160037510BD000007B5064B7B
:106D9C000360CB7800938B784A780978FFF7E8FF8B
:106DAC0003B05DF804FB00BF70790B0041747047B1
:106DBC007047704708B50021007CFDF797FC40EA4E
:106DCC00E07008BD08B50121007CFDF78FFC40EA9E
:106DDC00E07008BD08B5007CFDF780FC20EAE0708F
:106DEC0008BD08B5007CFDF771FC20EAE07008BD19
:106DFC0013B50446007C0191FDF770FC0028019945
:106E0C0001DC607C20B1207CFDF778FC20EAE0708E
:106E1C0002B010BD007CFDF779BC10B514210446FE
:106E2C00FDF735F9204610BD10B54FF47A730446C2
:106E3C0008460021C4E90113044B2360012320748C
:106E4C0063741146FDF732FC204610BD84790B00AB
:106E5C00007C0022FDF732BC007CFDF75FBC10B556
:106E6C0014220446002100F001FB204610BD000056
:106E7C0010B50F4C88B003A8FFF7F1FF2178BFF3D2
:106E8C005B8F11F001010FD120460191FDF701F943
:106E9C00019948B103AA0748FFF7C6FF2046FDF742
:106EAC00FDF8054800F0A4FA024808B010BD00BF78
:106EBC0018E703201CE70320BD6D0B0070474174DD
:106ECC00704708B5007CFDF7E1FB20EAE07008BDD7
:106EDC0008B5007CFDF7BAFB20EAE07008BD08B5E8
:106EEC00007CFDF7C3FB40EAE07008BD08B5007CF0
:106EFC00FDF7B4FB40EAE07008BD007CFDF7BEBBBB
:106F0C0037B5457C04462DB1207C03B0BDE830403C
:106F1C00FDF794BB007C0191FDF7B8FB00280199AB
:106F2C00F2DC284603B030BD10B514210446FDF741
:106F3C00AEF8204610BD000010B54FF47A7304462D
:106F4C00084611460022C4E90123044B23600123A7
:106F5C0020746374FDF7A2FB204610BDB4790B00BE
:106F6C00002240681146FDF72DBC002240681146F6
:106F7C00FDF748BC002240681146FDF753BC406841
:106F8C000022FDF747BC4068002281F00101FDF7AB
:106F9C0031BC002340681A461946FDF723BC002378
:106FAC0040681A461946FDF715BC00224068114688
:106FBC00FDF7F8BB406800220221FDF7FBBB002364
:106FCC0040681A46FDF7E6BB024B04225A60024A9F
:106FDC001A60704730E70320E4790B000023406807
:106FEC001A46FDF7D7BB406800220221FDF7E2BB31
:106FFC00002240681146FDF7D5BB002240681146BF
:10700C00FDF7E0BB002340681A461946FDF7E2BBCA
:10701C00002340681A461946FDF7E4BB406800217E
:10702C00FDF708BC40680021FDF70CBC406800224D
:10703C0081F00101FDF7DEBB40680022FDF7EABBE1
:10704C00002240681146FDF7EDBB00224068114656
:10705C00FDF7D8BB2DE9F04395B014460D46074615
:10706C00FFF766FE00211C220DA8009100F0FEF92E
:10707C0040230C9320466B460CAA0021FDF72CFAFA
:10708C00044600284BD1024601216868FDF79AFBA3
:10709C000221804622466868FDF794FB009E8146DB
:1070AC002146002E3BD0002939D17368022B03D026
:1070BC000A2B11D0F669F4E7B8F1000FFAD0716918
:1070CC0006A8043107ADFFF761FE0FCD3C1D0FC4C0
:1070DC002B6823704146EDE7B9F1000FEAD07469D3
:1070EC00102201A800F0C2F906238DF8143001AD6E
:1070FC0004F108031834186859682A4603C2083387
:10710C00A3421546F7D101A906A807ADFFF71EFE4D
:10711C000FCD3C1D0FC42B6823704946CAE700985D
:10712C00FDF7D2F9384615B0BDE8F083024B034A9F
:10713C001A6000225A60704738E70320207A0B004F
:10714C007047000038B5044614252A46002100F08B
:10715C008DF925804025074925812846258200F098
:10716C002FF804496060284600F02AF8E0602046B9
:10717C0038BD00BF547A0B0030B50E4D2978BFF3E3
:10718C005B8F11F0010487B011D12846FCF781FF09
:10719C0068B101A8FFF7D6FF01AA21460648FFF700
:1071AC00CBFE2846FCF77AFF044800F021F9024890
:1071BC0007B030BD40E7032044E703204D710B00BE
:1071CC00FCF763BF08B5FDF775FB0000014900F043
:1071DC00F9B800BF707A0B007FB500241023CDE9FD
:1071EC000234036815469E6912686B46CDE900446B
:1071FC00B0479DF8043003F00603062B03BF009B39
:10720C002B600120204604B070BD0098904214BF42
:10721C00012006207047000010B5034B03600446A4
:10722C0000F0CDF8204610BDB07A0B0010B5044626
:10723C00FFF7F2FF20460821FCF729FF204610BD7E
:10724C002DE9F0411F46DDE90834DDF8188098453A
:10725C000646154607D1079900F0B4F818B16571C8
:10726C000020BDE8F0813946304600F0ABF800282C
:10727C00F6D00123C4F800802571A371F0E738B56E
:10728C0015461C4600F09EF820B10823E360062347
:10729C002560237138BD73B505460C4601921E4618
:1072AC0000F090F850B9032E08D82368019A5B6956
:1072BC002946204602B0BDE87040184702B070BDA8
:1072CC0010B5034B03600446FFF7A6FF204610BD24
:1072DC00107B0B0010B50446FFF7F2FF20460C2183
:1072EC00FCF7D5FE204610BDF7B5089F9742054622
:1072FC000E4614460AD0A86802680897156A3146EB
:10730C002246AC4603B0BDE8F040604719460193F5
:10731C0000F058F8019B0028EDD0062003B0F0BD1A
:10732C002DE9F14F0D461946DDE90A4BDDE90CA6B6
:10733C0081461746984600F045F890B1002D346010
:10734C00377109DB61198A450CBF06210121B17126
:10735C00002001B0BDE8F08F0235F9D10123B371E3
:10736C00F6E7544506D15946484600F02BF808B1CB
:10737C007771EDE7D9F808000368CDE90CA6CDE9E3
:10738C000A4BDC693A4643462946A44601B0BDE89F
:10739C00F04F60472DE9F04107460C4615461E4656
:1073AC00FFF76DFF48B9B86803689F692A463346F2
:1073BC002146BC46BDE8F0416047BDE8F08170470E
:1073CC0000207047814208B50ED0406803782A2B04
:1073DC000CD049680B782A2B08BF013100F07CF8DF
:1073EC00B0FA80F0400908BD0120FCE70020FAE764
:1073FC00002301461A46184600F094B810B501391E
:10740C000244904201D1002005E0037811F8014FAD
:10741C00A34201D0181B10BD0130F2E70A4491427F
:10742C0000F1FF3300D1704710B511F8014B03F890
:10743C00014F9142F9D110BD884210B501EB020405
:10744C0002D98442234607D8431EA14208D011F822
:10745C00012B03F8012FF8E7024401468A4200D1C0
:10746C0010BD13F8014D02F8014DF7E70244034635
:10747C00934200D1704703F8011BF9E738B5104B64
:10748C001D68AB6B0446B3B91820FDF7F3F902463F
:10749C00A86320B90B4B0C484221FDF713FA0B499A
:1074AC000B4BC0E900130B4B83600B238381002132
:1074BC000120C2E90401AB6B00221C615A6138BD8A
:1074CC0028DF0320497B0B00607B0B000E33CDAB18
:1074DC0034126DE6ECDE050010F8012B11F8013BBF
:1074EC00012A28BF9A42F7D0D01A7047034611F8E8
:1074FC00012B03F8012B002AF9D17047034613F82E
:10750C00012B002AFBD1181A0138704710B502461E
:10751C0001448A42134603D01C780132002CF8D166
:10752C00181A10BD2DE9F843DFF8B8800646D8F8D4
:10753C0000001F460D46914600F056F8254B1C687E
:10754C0034B9254C1C60254B13B11B68C4F888302A
:10755C0063681F2B07DDD8F8000000F047F84FF0E8
:10756C00FF30BDE8F8834EB3D4F8880088B91C4BC3
:10757C0023B9D8F8000000F038F8F0E74FF4847025
:10758C00FDF778F90028F4D00023C0E94033C4F8A3
:10759C008800636840F8239001229A4000EB830135
:1075AC00D0F800311343C0F80031022EC1F88070BE
:1075BC0002BFD0F804311343C0F804316368D8F823
:1075CC0000005A1C0233626044F8235000F00EF89D
:1075DC000020C6E7E8E703205CE70320000000007A
:1075EC0081480B008CDF0320704770477047000008
:1075FC001D400B0059400B0081400B0085400B00D7
:10760C0000000000726563656976656420646174CE
:10761C00612066726F6D3A253032583A25303258F7
:10762C003A253032583A253032583A253032583AC9
:10763C00253032580A0042797465733A002530328D
:10764C0058002569206465766963657320666F75DB
:10765C006E640A004D41432061646472657373204B
:10766C003D20253032583A253032583A25303258A0
:10767C003A253032583A253032583A253032582E85
:10768C002052535349203D2025690A003645343099
:10769C00303030312D423541332D463339332D4581
:1076AC003041392D45353045323444434341394519
:1076BC000036453430303030322D423541332D4692
:1076CC003339332D453041392D453530453234442D
:1076DC0043434139450036453430303030332D4248
:1076EC003541332D463339332D453041392D453510
:1076FC003045323444434341394500747800727844
:10770C000000000000000000000000004F490B00CA
:10771C0045490B003B490B0031490B0025490B0037
:10772C0019490B0029700B0031700B000D490B002F
:10773C0005490B00FB480B00F1480B0061700B0076
:10774C00417373657274696F6E4661696C757265AD
:10775C002066616C736500776972696E672E626C66
:10776C006500537461727420646973636F7665721B
:10777C00696E672073657276696365732E00417359
:10778C0073657274696F6E4661696C757265206899
:10779C00616C5F626C655F737461636B5F696E696A
:1077AC0074286E756C6C70747229203D3D20535991
:1077BC005354454D5F4552524F525F4E4F4E45000C
:1077CC005065657220646576696365206973206D08
:1077DC00697373696E6721004661696C6564207416
:1077EC006F20616C6C6F63617465206D656D6F7279
:1077FC007921004661696C656420746F206170703A
:10780C00656E6420706565722043656E7472616C80
:10781C00206465766963652E00436F6E6E656374D4
:10782C0065642062792043656E7472616C206465B6
:10783C00766963652E00446973636F6E6E6563745D
:10784C0065642062792072656D6F7465206465765D
:10785C006963652E004475706C696361746564209E
:10786C0063686172616374657269737469632063C0
:10787C00616E6E6F742062652061646465642E00B5
:10788C004661696C656420746F20617070656E640C
:10789C00206C6F63616C20636861726163746572E4
:1078AC0069737469632E0000000000000000000082
:1078BC00894B0B00ED4B0B00FF4C0B00174C0B00D6
:1078CC008D4B0B000000000000000000854B0B00EE
:1078DC00FB4B0B00874B0B001D4C0B00AD4B0B00F7
:1078EC000000000000000000834B0B00094C0B0053
:1078FC0011560B00234C0B00CD4B0B00000000006D
:10790C0000000000000000000000FB349B5F8000C2
:10791C00008000100000000000007BE327747BF85F
:10792C0015ACDD49A913000072F5FB349B5F800098
:10793C0000800010000000000000617070002559EC
:10794C002D256D2D25645425483A254D3A25532572
:10795C007A0061736374696D6500000000000000BB
:10796C0000000000D96C0B00C96C0B00CB6C0B0039
:10797C000000000000000000BF6D0B00276E0B0024
:10798C00FD6D0B004D6A0B00EF6D0B00C16D0B0014
:10799C00D16D0B00216E0B00E16D0B00B96D0B006E
:1079AC000000000000000000C96E0B00356F0B00DA
:1079BC000D6F0B004D6A0B00DD6E0B00F96E0B00AA
:1079CC00EB6E0B00076F0B00CB6E0B00CF6E0B003A
:1079DC000000000000000000CB6F0B00C16F0B001B
:1079EC00B76F0B006D6F0B00AB6F0B009F6F0B0035
:1079FC0029700B0031700B00936F0B008B6F0B0019
:107A0C00816F0B00776F0B0061700B0000000000A2
:107A1C0000000000E96F0B00F36F0B00FD6F0B0013
:107A2C0007700B0011700B001D700B0029700B0000
:107A3C0031700B0039700B0045700B004D700B0052
:107A4C0057700B0061700B0000537431395F537029
:107A5C005F6D616B655F7368617265645F746167AC
:107A6C0000000000B07A0B00557A0B00107B0B0065
:107A7C00847A0B00347B0B004E31305F5F63787877
:107A8C00616269763131375F5F636C6173735F7408
:107A9C007970655F696E666F45000000000000003C
:107AAC00787A0B0025720B0039720B00CD730B002A
:107ABC00CD730B00A3720B00E5710B008B720B00E6
:107ACC004D720B0017720B00107B0B00E07A0B0051
:107ADC00787A0B004E31305F5F637878616269763B
:107AEC003132305F5F73695F636C6173735F74799C
:107AFC0070655F696E666F45000000000000000055
:107B0C00D47A0B00CD720B00E1720B00CD730B001D
:107B1C00CD730B00A3720B00E5710B00A1730B006E
:107B2C002D730B00F5720B00B07A0B003C7B0B0035
:107B3C00537439747970655F696E666F0052454590
:107B4C004E54206D616C6C6F632073756363656557
:107B5C00646564002F6D6E742F776F726B73706138
:107B6C0063652F776F726B73706163652F47434347
:107B7C002D31302D706970656C696E652F6A656E7C
:107B8C006B696E732D4743432D31302D70697065D1
:107B9C006C696E652D34385F3230323031313234AD
:107BAC005F313630363138303634312F7372632FC3
:107BBC006E65776C69622F6E65776C69622F6C6984
:107BCC0062632F7374646C69622F72616E642E63CE
:107BDC00000000006D430B0059490B006D490B0070
:107BEC003D6A0B00596B0B00696B0B00856B0B002E
:107BFC00D56F0B0039710B00000000000000000075
:047C0C000000000074
:107C1000040000001400000003000000474E55005F
:107C2000FEBCCF021109160B6E823155B05705FB11
:047C30006E1F08E2D9
:047C3400000000004C
:107C38005E790B002CDF032000000000000000002C
:107C4800000000000000000000000000000000002C
:107C5800000000000000000000000000000000001C
:107C6800000000000000000000000000000000000C
:107C780000000000000000000000000000000000FC
:107C880000000000000000000000000000000000EC
:0C7C98000000000000000000ECE70320EA
:107CA400FFFFFFFF00000102030405060708090A9D
:107CB4000B0C0D0E0F101112131415161718191A98
:087CC4001B1C1D1E1F202800DF
:047CCC0078563412A0
:04000003B000401CED
:00000001FF
