:02000002B0004C
:1040000000400B00C8B40B00000006000C000502C5
:084010000401A60F00000000EE
:04401800649D0B0098
:10401C0009480A49884208B505D0094A824202D0AB
:10402C00121A05F00FFD0748074A0021121A05F075
:10403C0031FD014808BD00BFA4D9032018B00B0006
:10404C002CDE03202CDE0320EDE7032070B5074E99
:10405C00074C04F0F3FCA41BA4080025AC4200D1CF
:10406C0070BD56F8043B98470135F7E7C4AF0B0019
:10407C00ECAF0B0000F030B808B500F00DF9BDE85E
:10408C00084004F093BC02F021B902F01FB902F011
:10409C0025B9000008B5034A03490C2002F072F858
:1040AC00FEE700BF6D5D0B00789D0B000078B0FA49
:1040BC0080F0400970470123037070470EB403B5BC
:1040CC0003AB002153F8042B019304F0EAFB02B07C
:1040DC005DF804EB03B0704770B5654C002390B0ED
:1040EC0060681A46194602F0A1F8002319461A46D0
:1040FC00606802F07BF804F0C3FD4FF4165104F035
:10410C00AFFD002001F044FE43F698250446002044
:10411C0001F03EFE001B61F10001A84271F10003A9
:10412C0007D204F0ADFD04F09FFD10B902F0BEF80B
:10413C00EDE704F0A5FD04F097FD02F055FF02F049
:10414C009DFF02F051FF4B4A4B4D01460BA804F06A
:10415C00E9F80BA803F0FDF802F046FF474A0146C8
:10416C000BA804F0DFF80BA803F0F3F80FCD06ACA6
:10417C000FC42E68266006AD0FCD0BAC0FC40BA878
:10418C00266002F049FD04460BA8002C67D102F012
:10419C005FFD0094ADF8160002230DF11602032109
:1041AC00374803F0F7FB02F01FFF0022344903F0FD
:1041BC0073F804F065FD044602F016FF014606A8EC
:1041CC0002F063FF06A90BA8002202F0C2FC0B9AB6
:1041DC002C492046FFF772FF0BA802F00BFA3C2289
:1041EC000221294800F0E0FF274800F06DFF264827
:1041FC0000F0F2FE01242C23CDE90134702300934E
:10420C001422224B2048102101F092F91E4800F094
:10421C005BFF3C221C48022100F0C6FF1A48022119
:10422C0001F08AFA22461848002101F08AFA21226C
:10423C0017491548FFF742FF134800F045FF124895
:10424C0000F0CAFE21460A2005F0EAF9114800F0F8
:10425C00B6FA104810B0BDE8704000F0E9BA02F0B0
:10426C00F9FC0023009302461023072198E700BFB6
:10427C0018E70320A0E603204CDE0320F4E0032023
:10428C00A8DE03208D9D0B00B4DE03201F9F0B00C6
:10429C00A39D0B00A8E003202DE9F04F89B002F09C
:1042AC00A3FE4FF4FA7102F047FF02F09DFE47495E
:1042BC00DFF83C91464D474C444EDFF838B1DFF8FF
:1042CC003881282202F094FF89F8000004F0D8FC11
:1042DC0099F800204049FFF7F1FE002799F80030CB
:1042EC00BB426FDD1F235A46FF2106F1080002F086
:1042FC003DFD002388F80030364B062202FB0732C6
:10430C0098F800A00792BAF1050F0FD85146304625
:10431C0002F092FB96F820302B7098F80030079A38
:10432C00013302F80A0088F80030E9E72378FA2B09
:10433C0043D16378DA2B40D104F0A2FC95F900301C
:10434C0004936379039323790293E3780193A3781D
:10435C002278009321496378FFF7B0FE95F900307D
:10436C001F4A1360373303DB01210A2005F069F97A
:10437C0095F900303B3303DA00210A2005F061F98E
:10438C00DFF878A001F0FCFCDAF80020801AB0F518
:10439C00FA6F12D9134801F065FA70B195F9001053
:1043AC00114801F08EFC04F06BFC094A0F49FFF731
:1043BC0085FE01F0E5FCCAF8000001370135063432
:1043CC0024368BE709B0BDE8F08F00BFFCE003207A
:1043DC00C0E00320E4DE0320AF9D0B00C19D0B0069
:1043EC00D8DE0320D4DF0320E8E00320EE9D0B0091
:1043FC00A7DE032088DE0320DDDE0320E0DE0320C1
:10440C002DE9F0410E4CDFF844800E4E0E4F20602B
:10441C000D462168A94210DCD8F8002089B230463C
:10442C0000F0B2FB23683A68013399B2304600F0D1
:10443C00ABFB236802332360EBE7BDE8F08100BFE0
:10444C00BCE00320A8E00320A8D90320A4D90320B2
:10445C002DE9F04792B014460E46054604F010FCC8
:10446C002146074606A802F055FD002106A802F0D9
:10447C00E3FA2146059008A802F04CFD012108A89A
:10448C0002F0DAFA214604900AA802F043FD022158
:10449C000AA802F0D1FA214680460CA802F03AFD97
:1044AC0003210CA802F0C8FA214681460EA802F09E
:1044BC0031FD04210EA802F0BFFA2146824610A855
:1044CC0002F028FD052110A802F0B6FACDE900890A
:1044DC00CDE902A0DDE9043238462E49DFF8E08050
:1044EC002D4FFFF7EBFD0024E3B2B34204F10104BE
:1044FC0008D204F0C5FB98F800303946EA5CFFF7A7
:10450C00DDFDF1E704F0BCFB2449254C254F264E7C
:10451C00FFF7D4FD04F0B4FB2A462449FFF7CEFD87
:10452C00284605F067FA002814BF01230023204D0C
:10453C0023700ED100210A2005F083F81D4800F0ED
:10454C0066FB3A683168286812B0BDE8F047FFF79F
:10455C0057BF01210A2005F074F804F091FB227872
:10456C001549FFF7ABFD134800F051FB134B3168B5
:10457C001A682868FFF744FF3A6831682868FFF723
:10458C003FFF0C4800F054F92378002BD2D012B026
:10459C00BDE8F087FE9D0B00309E0B00FC9D0B00D0
:1045AC002CDE0320A8D90320ACD90320359E0B00A8
:1045BC009CE60320A8E00320429E0B00A4D9032014
:1045CC00DCDE03202DE9F04F574D99B028247F26CF
:1045DC00284602F057FA05F1080003F0E6F905F158
:1045EC00140003F0E2F9013C85F8206005F1240584
:1045FC00EED14E494E484F4DDFF8349102F0AAFBF4
:10460C004D494E4802F0A6FB4D494A4802F0A2FB28
:10461C000FCD0DF1100BABE80F00B9E80F002F68B0
:10462C00CBF800700DF1240804ADA8E80F000FCDF5
:10463C000EAE0FC6CA46DFF844C15AF810E9C8F8E6
:10464C0000E0376009AFCCE900440FCF13AD0FC5C4
:10465C0013AFC5F800E00EAB6046CDE90144394913
:10466C0000974FF0100203F033FDDFF8D0C0D9F8FB
:10467C000090BCE80F000DF1100EAEE80F00BAE888
:10468C000F00DCF800E0CBF800E00DF1240C0DF18C
:10469C00100AACE80F00BAE80F000DF1380CACE8CA
:1046AC000F00C8F80090DFF8D880C6F800E00DF1D4
:1046BC00240CC8E90044BCE80F003E460FC6224B50
:1046CC00C5F8009021490294CDE900734FF0040223
:1046DC000EAB404603F0FCFC1D481E4E1E4D03F075
:1046EC0064F9022310220F211C4800F08FF80421DA
:1046FC001B4800F05BFC304604F050FE194B009355
:10470C0019491A4B40F25B72284601F0E1F8184B3C
:10471C00184A19482B6029462346C5F8D06019B0B1
:10472C00BDE8F04F01F0C8BAFCE00320549E0B002A
:10473C004CDE032074DE0320799E0B0060DE032028
:10474C009E9E0B00C39E0B005D440B00C69E0B008F
:10475C00A8DE032030DE0320D4DF0320A8E00320F2
:10476C00B4DE0320E69E0B00D69E0B00C99E0B0008
:10477C00ECA80B00079F0B00E8E00320A0E6032049
:10478C00F4E0032038B50446C0680D4608B101F0CA
:10479C00A5FDA379062B0CBF0420032010FB05F00C
:1047AC0080B2A08001F092FDE06028B1A2880021C7
:1047BC0005F070F9658038BDA0806080FBE710B50E
:1047CC0004460121C07904F02BFFE079002104F0AC
:1047DC0038FF0123237010BD37B5037805460C460E
:1047EC001BB1C079002104F01BFF2B78EC715BB17D
:1047FC00A0B20121019004F013FF0198002103B035
:10480C00BDE8304004F01DBF03B030BD70B50025CD
:10481C00044616468371C0E9035505700572FFF70F
:10482C00B1FF20463146FFF7D7FF204670BD000090
:10483C00C368002B00F0A4812DE9F04F8379023B73
:10484C00DBB2042B9CBFBF4A52F8234085B005460F
:10485C0088BF322401F08CFA2B69C01AA042F9D31C
:10486C00B94CAE88D4F800351BB9D4F86035002BA0
:10487C007EDBB64CD4F8003523B9D4F86035002B68
:10488C00C0F26E81B24CD4F80035002B00F044819C
:10489C00EB79B04AB04C1268190102EB0313575C68
:1048AC00AE495B78D1F8FC2042F08072C1F8FC2054
:1048BC00226803F01F0343EA471301273A4322609F
:1048CC00A988D5F80C80D4F804909F40002944D0D6
:1048DC004FF0000E72464FF0A04118F801CB0820A3
:1048EC00802663689B1A462BFBD96268D1F8083581
:1048FC001CEA060F43EA0703C1F808352FD063689A
:10490C009B1A282BFBD9D1F80C35013843EA070345
:10491C004FEA5606C1F80C35E3D1AB880EF1010E07
:10492C001FFA8EFE7345D8D84FF4307103FB01F19A
:10493C0063689B1A462BFBD96368A3EB090989456D
:10494C00C0F0E4804FF4967001F00AFAA988D5F80B
:10495C000C80D4F804900029BAD10A46E8E76368C1
:10496C009B1A112BCFD863689B1A112BF7D9CAE766
:10497C00D4F86435002BBFF67CAFD4F86835002B27
:10498C00BFF677AFD4F86C35002BBFF672AF36019B
:10499C00331D1846009301F099FC00283FF478AFC2
:1049AC00AB88002B00F0ED80EA68013B12FA83F72C
:1049BC0002F1FF3E002348F2060248F20D011EF8F8
:1049CC0001CF1CF0800F0CBF93468B461CF0400FA0
:1049DC000CBF16460E461CF0200F0CBF90468846A6
:1049EC0003F10109CDF80880019603F102081FFAC2
:1049FC0089F9019E20F813B01FFA88F820F8196085
:104A0C00029E20F8186003F103081CF0100F1FFA27
:104A1C0088F80CBF93468B4620F818B003F10408B5
:104A2C001CF0080F1FFA88F80CBF93468B4620F831
:104A3C0018B003F105081CF0040F1FFA88F80CBF1E
:104A4C0093468B4620F818B003F1080A03F10608C8
:104A5C0007339BB21CF0020F1FFA88F80CBF934669
:104A6C008B46CDF80CA01CF0010F20F818B015BF28
:104A7C0020F8131020F813201FFA8AF3BDF80C301D
:104A8C0077459CD1591C023389B29BB249005B001B
:104A9C004FF400474752009AC7522E4B56081F68D6
:104AAC0000221423C4F80425C4F80C25C4F80835D6
:104ABC00C4F81425C4F81025C4F82005C4F82465DE
:104ACC00C4F82825C4F82C25EB7907EB031C1B0133
:104ADC000121FE5C9CF8013003F01F0343EA4613EE
:104AEC00C4F86035C4F80015C4F81021A160D4F8DE
:104AFC001031002BFBD000234FF0FF32C4F81031E3
:104B0C00C4F80035C4F8602501F0E8FB01F030F979
:104B1C00286105B0BDE8F08FD4F86035002BBFF6E6
:104B2C00B7AED4F86435002BBFF6B2AED4F8683506
:104B3C00002BBFF6ADAED4F86C35002BBFF6A8AE8B
:104B4C0025E700BF64A30B0000C001400010024029
:104B5C0000200240A8E60320001000E000ED00E079
:104B6C00D4F86435002BBFF68DAED4F86835002B25
:104B7C00BFF688AED4F86C35002BBFF683AE06E7D3
:104B8C0070470423022183E743888B42F0B52DD96B
:104B9C00067AC2F30743C2F30724D5B23EB173437E
:104BAC0074437543C3F30723C4F307242D0A90F809
:104BBC0006C0C768BCF1060F0CBF042603264E4383
:104BCC00ACF1020CB919BCF1060F1DD8DFE80CF0E2
:104BDC00041C08040F040400BC554B708D7005E0D8
:104BEC00FE2B28BFFE23BB554D708C70F0BDBB5502
:104BFC004C708D70037A120E13B9D2B2CA70F5E7ED
:104C0C005A43C2F30722F9E7BB554C70E6E782889A
:104C1C00C068002104F03EBF08B501F071F8014BEB
:104C2C00186008BDA8E60320F0B5457EBDF8144019
:104C3C00022D69D0032D00F09980012D6CD10589CE
:104C4C00D2432A4412B2002A5DDBB0F908509542D7
:104C5C0059DD0029BEBF5B181BB20021B0F90A0058
:104C6C00CD188542C4BF431A1BB2002B4BDDC1F3D8
:104C7C00C400DFF820C102EBC01211F00701DBB257
:104C8C000CEB02001AD0C1F10805404EEDB2AB425C
:104C9C00775D3FBFA5EB030EFF2646FA0EF63740B5
:104CAC001CF80260012C0CBF3E43BE43AB420CF817
:104CBC00026028D308390B44DBB28030072B19D99A
:104CCC00012C4FF0FF3518BF0025EDB200F180012B
:104CDC001A46083AD2B2072A01F8805C01F1800129
:104CEC00F7D8A3F10802C2F3C402013200EBC210E0
:104CFC0003F007033BB1264AD25C0378012C0CBFAE
:104D0C00134393430370F0BD4589D2432A44CD1815
:104D1C000189491B12B209B2002AF4DBB0F90A501E
:104D2C009542F0DD0029BEBF5B181BB20021B0F923
:104D3C000870CE18BE42C4BF6B1A1BB2002BE2DD4A
:104D4C00D010802510FB05111248014402F0070019
:104D5C0001228240012CD2B20B440CD18B42D2D016
:104D6C0011F8010B104301F8010CF7E7CD1841893C
:104D7C00491B09B267E7D243D2B28B42C3D011F8B8
:104D8C00010B104001F8010CF7E700BFB8D9032064
:104D9C00B0D90320C0D90320F0B5457EBDF814402E
:104DAC00022D34D0032D00F09B80012D37D1D51866
:104DBC000289521B12B20029C0F29180B0F90A503C
:104DCC008D4240F38C80002ABEBF9B181BB2002280
:104DDC00B0F90870D618BE42C4BFAB1A1BB2002B78
:104DEC007DDDC810802510FB05224548024401F0EA
:104DFC00070001218140012CC9B2134475D19A429C
:104E0C006DD012F8010B084302F8010CF7E7058985
:104E1C00C9432944D5184289521B09B212B2002940
:104E2C005DDBB0F908508D4259DD002ABEBF9B18DE
:104E3C001BB20022B0F90A00D5188542C4BF831AF0
:104E4C001BB2002B4BDDC2F3C400DFF8B4C001EB86
:104E5C00C01112F00702DBB20CEB01001AD0C2F148
:104E6C000805284EEDB2AB42775D3FBFA5EB030EB4
:104E7C00FF2646FA0EF637401CF80160012C0CBFD9
:104E8C003E43BE43AB420CF8016028D3083A1344AE
:104E9C00DBB28030072B19D9012C4FF0FF3518BF2E
:104EAC000025EDB200F180011A46083AD2B2072A69
:104EBC0001F8805C01F18001F7D8A3F10802C2F37C
:104ECC00C402013200EBC21003F007033BB10E4ADF
:104EDC00D25C0378012C0CBF134393430370F0BDD9
:104EEC004589C943294409B265E7C943C9B29A4205
:104EFC00F5D012F8010B084002F8010CF7E700BFDF
:104F0C00C0D90320B8D90320B0D9032070470000C2
:104F1C00F8B50D1E064614461F462DDB00F016FC98
:104F2C00A84229DD002C27DB304600F012FCA04201
:104F3C0022DD304600F008FC02281ED0032825D0C4
:104F4C00012804D13389E2431A442C4615B2002CB3
:104F5C002246B8BFE21DD210802112FB01550E492A
:104F6C00012204F007044B5702FA04F464B297428E
:104F7C000CBF2343A3434B55F8BD318972890139CA
:104F8C00E4434D1B14442DB224B2E0E77389013B7A
:104F9C005B1B25461CB2DAE7C0D9032010B52421CF
:104FAC000446FFF774F8204610BD000038B54022C7
:104FBC0004460D46802100F0A7FA064B2360FF2320
:104FCC0084F8213063774FF6FF73E38384F8205025
:104FDC00204638BD80A30B0002484FF480620021AC
:104FEC0004F058BDC0D9032013B50B4C2178BFF386
:104FFC005B8F11F001010BD120460191FFF756F8A0
:10500C00019928B1054801F0E5F92046FFF753F85E
:10501C00024802B010BD00BFACE60320B0E603208E
:10502C0007B590F8223043B10191FFF7DDFF0199EC
:10503C0003B05DF804EB01F081BA0B46817F407F31
:10504C00012203B05DF804EB04F014BB38B590F901
:10505C001D30013304460D461DD090F9210001216D
:10506C0080B204F0EEFA94F91F00002180B204F033
:10507C00E8FA94F92100002180B204F0E2FA294602
:10508C002046FFF7CDFF94F921000121BDE83840FF
:10509C0080B204F0D6BA04F06BFB94F91B1003F049
:1050AC00BBFE04F065FB036800219B68984704F085
:1050BC005FFB036829469B68984704F059FBBDE8E1
:1050CC00384003F0B0BE0000F8B521210446FFF7CC
:1050DC00BDFF00212046FFF7B9FF7F212046FFF7D7
:1050EC00B5FF22212046FFF7B1FF00212046FFF734
:1050FC00ADFF07212046FFF7A9FF94F91D30294F7A
:10510C0001332AD094F92100012180B204F099FADC
:10511C0094F91F00012180B204F093FA94F9210054
:10512C00002180B204F08DFA012000F019FE4FF43A
:10513C008065013D17F8011B2046ADB2FFF770FFEB
:10514C00002DF6D1012000F00BFE94F92100012175
:10515C00BDE8F84080B204F074BA002504F008FBF6
:10516C0094F91B1003F058FE04F002FB0368402175
:10517C009B68984705F11006B6B204F0F9FA03687B
:10518C00795D9B6898476B1C9DB2AE42F5D104F0DB
:10519C00EFFA03F048FEB6F5806F00D1F8BD354646
:1051AC00DCE700BFC0D9032038B590F91D3001777A
:1051BC00013304460D46C27600F0C98090F91F00F9
:1051CC00012180B204F02CFA94F92100012180B263
:1051DC0004F026FA94F82230002B00F0A68094F903
:1051EC002100012180B204F02CFAFFF7FDFE012111
:1051FC0001F00EF9FFF7F8FE102101F079F9FFF735
:10520C00F3FE002101F018F9FFF7EEFE01F0ECF8C7
:10521C0094F92000012180B204F002FA94F92000E4
:10522C00012180B204F00DFA012003F07DFB94F90A
:10523C002000002180B204F004FA0A2003F074FB71
:10524C0094F92000012180B204F0FBF92046AE2134
:10525C00FFF7FCFE2046D521FFF7F8FE2046802103
:10526C00FFF7F4FE2046A821FFF7F0FE20463F2171
:10527C00FFF7ECFE2046D321FFF7E8FE2046002185
:10528C00FFF7E4FE20464021FFF7E0FE8D2120468B
:10529C00FFF7DCFE012D0CBF102114212046FFF777
:1052AC00D5FE20462021FFF7D1FE20460021FFF736
:1052BC00CDFE2046A121FFF7C9FE2046C821FFF7ED
:1052CC00C5FE2046DA21FFF7C1FE20461221FFF76A
:1052DC00BDFE81212046FFF7B9FE012D0CBF9F2199
:1052EC00CF212046FFF7B2FED9212046FFF7AEFEB4
:1052FC00012D0CBF2221F1212046FFF7A7FE2046ED
:10530C00DB21FFF7A3FE20464021FFF79FFE20463E
:10531C00A421FFF79BFE2046A621FFF797FE20460F
:10532C00AF21BDE83840FFF791BE94F91D00012173
:10533C0080B204F075F994F91E00012180B204F0DA
:10534C006FF994F82230002B3FF462AF47E704F07A
:10535C000FFA03F057FD5BE72DE9F04F85B01F46C0
:10536C00BDF93880BDF83C30A8EB0209A7EB010A67
:10537C00B9F1000FB8BFC9F10009BAF1000FB8BFFD
:10538C00CAF1000AD14583460C46154604DD3A465F
:10539C002C4647460D469046BC4205DD2A464546FE
:1053AC00904622463C4617463E1BB2B20092A8EBF2
:1053BC00050282EAE271A1EBE271C6F3C03202FA95
:1053CC0086F64545B4BF01224FF0FF3201917610AD
:1053DC000292BC421CDCDBF800200393D145D2F8CE
:1053EC001080C7BF294622462A4621465846C04748
:1053FC00019A039BB61AB1B236B2002E05DA029AA4
:10540C001544009A56182DB236B2013424B2E0E796
:10541C0005B0BDE8F08F2DE9F347BDF82C80076887
:10542C00BDF92890CDF800800446FF6916468A46DF
:10543C001D46B8472368CDF8008009F1FF3232448D
:10544C00DF6951462B46204612B2B8472368CDF887
:10545C0000809F6932464B4651462046B8476B1E2A
:10546C0003EB0A012368CDF828809D6932464B4630
:10547C0009B22046AC4602B0BDE8F047604737B5EC
:10548C00013B13440468BDF8185001951BB20093FE
:10549C0064690B46A04703B030BD37B5BDF8185052
:1054AC000468CDE90025013B0B4464691BB2A0479D
:1054BC0003B030BD2DE9F347BDF92890BDF82C8021
:1054CC00054692460C46CE18B4420BDA2B68CDF842
:1054DC0000809F6921464B46524628460134B84706
:1054EC0024B2F1E702B0BDE8F08713B50268019170
:1054FC00B0F90E100091546AB0F90C30002211462C
:10550C00A04702B010BD704730B54281C2814FF048
:10551C00FF320024054D4261012244600560018187
:10552C00818104610283827630BD00BFB4A80B0078
:10553C002DE9F04F89B0CDE90323BDF94870BDF9D1
:10554C004C300593FA1DCDE9010148BF07F10E025D
:10555C000024BDF850304FEAE20B25464FF080098D
:10556C0005992AB291422ADD049A02EB040A039AA5
:10557C002A444FF0000812B20FFA88F087421FFA43
:10558C0088F119DDC0101AF800C001F0070049FAC3
:10559C0000F01CEA000F0CD002980144019800683E
:1055AC000069CDE90623064609B20198B047DDE94A
:1055BC00062308F10108DFE701355C44D0E709B0A8
:1055CC00BDE8F08F2DE9F04F2DED028B8DB0074625
:1055DC000491BDF860100591BDF864100691B0F906
:1055EC000C1004989DF86850814252DDB7F90E10EA
:1055FC0091424EDD062111FB0504002C49DD02EB26
:10560C00C504002C45DD03EB83030B9393B2079386
:10561C0008339BB2089100240993052C1CBF2C4B1A
:10562C000B9A079E16BF1B1900239B5C0393049ACD
:10563C00ABB20A9304FB05F313FA82F31BB204EB2F
:10564C00020A08EE103AB0460FFA85F90FFA8AFAF8
:10565C00039BDB072FD5012D3B681FD1D3F810B06E
:10566C00059B32B251463846D847039B5B080393DF
:10567C000A9B01369844099BB6B2B3421FFA88F8CC
:10568C00E6D1089B013B013413F0FF0364B208938D
:10569C00C3D10DB0BDEC028BBDE8F08F059ACDE9FE
:1056AC00009218EE101AD3F824B00FFA88F24B4679
:1056BC003846D847D9E7DDE905239342D5D0012DEB
:1056CC003B6803D1D3F810B0069BCAE7069AE6E70D
:1056DC00B0A30B0030B50A2985B0044607D1027E71
:1056EC00638A03EBC20363820023238221E00D292A
:1056FC001FD0037E0293C38A0193838A0093B0F96F
:10570C0012200B46B0F91010FFF75CFF207E238AA5
:10571C0000EB400103EB4103A17E1BB20246238246
:10572C0039B1B4F90C106FF0050505FB00118B4273
:10573C00D6DC012005B030BD012938BF012101762E
:10574C0070478182C2827047407E7047B0F90C006E
:10575C007047B0F90E00704708B5D0F8D000036858
:10576C001B6B9847003818BF012008BDF8B50646DA
:10577C000F461446C4B1D6F8D00003681B6B98478B
:10578C0008B90020F8BDD6F8D000FA2C03682546DD
:10579C00A8BFFA25DB682A463946984783B2E41A33
:1057AC009D42A4B2E6D0ECE70120EBE770472DE96F
:1057BC00F8430646884691461F461D460024D6F8F7
:1057CC00D00003681B6B9847D0B1002D18DBD6F8BE
:1057DC00D00003681B69984760B1D6F8D000036805
:1057EC005B69984708F804000134A4B24C4507D013
:1057FC003D46ECE70A3D0A202DB203F095F8DEE7B2
:10580C002046BDE8F88370B5044600F122059622C7
:10581C000021284604F03EF96168284604F07AF924
:10582C00D4F8D0002289036829465E6A0023B04769
:10583C00003818BF012070BD10B5D4210446FEF706
:10584C0026FC204610BD10B50446D0F8D0000368E5
:10585C001B6B984720B1D4F8D0000368DB6A9847DB
:10586C00012010BD70B503689B6804469847C8B901
:10587C00204600F0CAF9042570B1013D15F0FF0572
:10588C000AD0204600F0A8F841F2883003F04CF81A
:10589C00204600F0BAF9EFE7236820469B68BDE884
:1058AC007040184770BD13B504460846019104F0CA
:1058BC0039F9C0F3072323706070A31C84B20199DB
:1058CC002246184604F036F9204402B010BD000000
:1058DC0030B502810A4A0B4DC0E90323039B436197
:1058EC000023C0E90051C0E92F33C0E93133C0E9CE
:1058FC000633C0F8CC300384A0F8B83030BD00BFFC
:10590C00FD9D0B0028A90B002DE9F74F16460268E8
:10591C001BB297690193012205460C46B847C7B2E2
:10592C00012F019B03D0002003B0BDE8F08F04F1E0
:10593C00010804F1050A4FF000092A680193D2F816
:10594C0018B0414601222846D847C0B20128EAD1F6
:10595C0018F8012B02F07F01C24501FB07994FEAB1
:10596C00C717E0D012F0800F019BE6D1A8EB04041E
:10597C00A7B2341B2A68013C4C45D2F818A03DBF95
:10598C0006F1FF32D21B92B21FFA89F24146284629
:10599C00D047C0B2384480B2C6E700002DE9F041D0
:1059AC00DFF8308005460C4616461F463B469622CD
:1059BC0021462846FFF7A8FF48B12378B6EB131F02
:1059CC0005D003F05DF9414602F043FFEEE7BDE878
:1059DC00F08100BF08A90B0010B5E02380F822303D
:1059EC000146002380F8233051F8223B04465B69C2
:1059FC0002229847236820461B69BDE810401847CF
:105A0C0038B505460846102300F8023B0C462949D8
:105A1C00FFF749FF0423037002234370AB698BB17A
:105A2C001B787BB10623437095F82030012B39D1BC
:105A3C000E23437095F82130012B02BF437843F0BD
:105A4C00200343702B691B781BB1437863F07F03F1
:105A5C0043706B691B781BB1437843F04003437070
:105A6C00012383702C23C370E9680B78F3B10430E5
:105A7C00FFF719FFA96931B10B7823B1FFF713FFB9
:105A8C00E969FFF710FF29690B780BB1FFF70BFFE2
:105A9C0069690B780BB1FFF706FF001BC0B2831EC0
:105AAC00637038BD022BC5D11E23C2E7037143714D
:105ABC000630DFE719A90B002DE9F7430546104620
:105ACC000E469846019204F02DF89DF82C90BDF8E6
:105ADC002870019984B2B9F1000F35D102344FEA24
:105AEC0049033046A4B243F030033C4400F8013B78
:105AFC00A4B2224604F07F037F2A88BF43F08003C0
:105B0C007F2A00F8013B4FEAD414F2D8FFF7CBFE02
:105B1C000346B9F1000F0CD0B5F8B820120A027088
:105B2C00B5F8B8204270B5F8B82001320233A5F8A8
:105B3C00B8203A464146184603F092FF3844801B81
:105B4C0080B203B0BDE8F0830434C8E773B59DF8A8
:105B5C00186000F122050446CDE9003613460A46CA
:105B6C002946FFF7A9FF236802465B6929462046B0
:105B7C00984710B9002002B070BD002EFBD04FF436
:105B8C00FA73962229462046FFF7BEFE0428F1D16F
:105B9C0094F822301B09042BECD1A38CB4F8B80078
:105BAC005BBA01339BB2C31A58425841E3E730B594
:105BBC0085B0044610461D460391029203F0B2FFD5
:105BCC00DDE9022183B200952046FFF7BFFF05B047
:105BDC0030BD38B51D4682230B70B0F8B8301B0AA7
:105BEC008B70B0F8B830CB70B0F8B8300C460133CD
:105BFC00A0F8B8301146201DFFF755FE00F8015BE8
:105C0C00001BC0B2831E637038BD2DE9F0410368E0
:105C1C00DB680446984700284BD004F1220529463E
:105C2C002046FFF7EDFE236882B25B6929462046C9
:105C3C00984700283DD041F27073962229462046A1
:105C4C00FFF762FEC0B2042833D1638CB3F5087F32
:105C5C002FD194F8250010B140B2BDE8F08104F1C9
:105C6C00BC0704F1D00857F8043BF3B1032657F8EE
:105C7C00042C2946137912682046FFF7AAFF2368E3
:105C8C0082B25B6929462046984790B14FF4FA736B
:105C9C00092229462046FFF781FE30B9013E16F055
:105CAC00FF06E4D16FF00100D7E7B845DBD1002047
:105CBC00D3E74FF0FF30D0E710B5C0E90012037204
:105CCC0010BD1FB504460A22084601A900F04EFC7F
:105CDC00D4E90001237A01AAFFF769FF04B010BDD3
:105CEC0008B5024B1B689B68019308BD6802030052
:105CFC0008B5024B1B68DB68019308BD6802030002
:105D0C0008B5024B1B681B68019308BD2C020300ED
:105D1C0008B5024B1B689B68019308BD2C0203005D
:105D2C0008B5024B1B68DB68019308BD2C0203000D
:105D3C0008B5024B1B681B69019308BD2C020300BC
:105D4C0008B5024B1B685B69019308BD6C0203002C
:105D5C0008B5024B1B685B68019308BD1802030071
:105D6C0008B5024B1B68DB68019308BD18020300E1
:105D7C0008B5024B1B681B69019308BD1802030090
:105D8C0008B5024B1B685B69019308BD1802030040
:105D9C0008B5024B1B68DB6D019308BD18020300AC
:105DAC0008B5024B1B689B68019308BD7802030081
:105DBC0008B5024B1B68DB69019308BD7802030030
:105DCC0008B5024B1B681B6D019308BD78020300DC
:105DDC0008B5024B1B689B6D019308BD780203004C
:105DEC0008B5024B1B681B6E019308BD78020300BB
:105DFC0008B5024B1B685B6F019308BD780203006A
:105E0C0008B5024B1B689B6F019308BD7802030019
:105E1C0008B5024B1B68DB6F019308BD78020300C9
:105E2C0008B5034B1B68D3F88430019308BD000000
:105E3C007802030008B5034B1B68D3F89830019324
:105E4C0008BD00007802030008B5034B1B68D3F8AB
:105E5C00A830019308BD00007802030008B5034B7D
:105E6C001B68D3F8EC30019308BD000078020300E6
:105E7C0008B5034B1B68D3F8F030019308BD000044
:105E8C007802030008B5024B1B685B6C019308BDDC
:105E9C004802030008B5024B1B68DB6C019308BD7C
:105EAC004802030008B5024B1B685B6D019308BDEB
:105EBC004802030008B5024B1B685B69019308BDDF
:105ECC006402030008B5024B1B681B6A019308BDF2
:105EDC006402030008B5024B1B689B6A019308BD62
:105EEC006402030008B5024B1B68DB68019308BD14
:105EFC003C02030008B5024B1B681B69019308BDEB
:105F0C003C02030008B5024B1B685B69019308BD9A
:105F1C003C02030008B5024B1B689B69019308BD4A
:105F2C003C02030008B5024B1B68DB69019308BDFA
:105F3C003C02030008B5024B1B681B6A019308BDA9
:105F4C003C02030008B5024B1B689B6A019308BD19
:105F5C003C02030008B5024B1B681B6C019308BD87
:105F6C003C02030008B5024B1B68DB68019308BDBB
:105F7C002802030008B5024B1B689B69019308BDFE
:105F8C002802030008B5024B1B68DB69019308BDAE
:105F9C002802030008B5024B1B681B6A019308BD5D
:105FAC002802030008B5024B1B685B6A019308BD0D
:105FBC002802030008B5024B1B689B6A019308BDBD
:105FCC002802030008B5024B1B68DB6A019308BD6D
:105FDC002802030008B5024B1B681B6B019308BD1C
:105FEC002802030008B5024B1B685B6B019308BDCC
:105FFC002802030008B5024B1B681B6C019308BDFB
:10600C002802030008B5024B1B689B69019308BD6D
:10601C003802030008B5024B1B68DB69019308BD0D
:10602C003802030008B5024B1B681B6A019308BDBC
:10603C003802030008B5024B1B689B6A019308BD2C
:10604C003802030008B5024B1B681B6B019308BD9B
:10605C003802030008B5024B1B689B6B019308BD0B
:10606C003802030008B5024B1B681B68019308BD7E
:10607C003002030008B5024B1B689B68019308BDF6
:10608C003002030008B5024B1B68DB68019308BDA6
:10609C003002030008B5024B1B681B69019308BD55
:1060AC003002030008B5024B1B685B69019308BD05
:1060BC003002030008B5024B1B68DB69019308BD75
:1060CC003002030008B5024B1B681B6A019308BD24
:1060DC003002030008B5024B1B685B6A019308BDD4
:1060EC003002030008B5024B1B681B6C019308BD02
:1060FC003002030008B5024B1B685B6C019308BDB2
:10610C003002030008B5024B1B681B68019308BDE5
:10611C004C02030008B5024B1B685B68019308BD79
:10612C004C02030008B5024B1B681B69019308BDA8
:10613C004C02030008B5024B1B685B69019308BD58
:10614C004C02030008B5024B1B689B69019308BD08
:10615C004C02030008B5024B1B68DB69019308BDB8
:10616C004C02030008B5024B1B681B6A019308BD67
:10617C004C02030008B5024B1B689B6A019308BDD7
:10618C004C02030008B5024B1B685B6B019308BD06
:10619C006002030008B5024B1B681B6D019308BD20
:1061AC006002030008B5024B1B685B68019308BDD5
:1061BC002002030008B5024B1B685B69019308BD04
:1061CC002002030008B5034B1B68D3F888300193F9
:1061DC0008BD00002002030008B5034B1B68D3F870
:1061EC009430019308BD00002002030008B5024B57
:1061FC001B685B68019308BD4002030008B5024BA5
:10620C001B689B68019308BD4002030008B5024B54
:10621C001B68DB68019308BD4002030008B5024B04
:10622C001B681B69019308BD4002030008B5024BB3
:10623C001B685B69019308BD4002030008B5024B63
:10624C001B689B69019308BD4002030008B5024B13
:10625C001B68DB69019308BD4002030008B5024BC3
:10626C001B681B6A019308BD4002030008B5024B72
:10627C001B681B6B019308BD4002030008B5024B61
:10628C001B685B6B019308BD4002030008B5024B11
:10629C001B681B6C019308BD4002030008B5024B40
:1062AC001B685B6C019308BD4002030008B5024BF0
:1062BC001B689B68019308BD4402030008B5024BA0
:1062CC001B68DB6B019308BD4402030008B5024B4D
:1062DC001B681B68019308BD1C02030008B5024B28
:1062EC001B685B68019308BD1C02030008B5024BD8
:1062FC001B689B68019308BD1C02030008B5024B88
:10630C001B685B6A019308BD1C02030008B5024BB5
:10631C001B68DB6A019308BD1C02030008B5024B25
:10632C001B68DB6B019308BD1C02030008B5024B14
:10633C001B681B6C019308BD1C02030008B5024BC3
:10634C001B685B6C019308BD1C02030000224068B3
:10635C001146FFF783BF002240681146FFF78EBF3E
:10636C0040680022FFF782BF4068002281F00101E3
:10637C00FFF76CBF002340681A461946FFF75EBF53
:10638C00002340681A461946FFF750BF00224068A8
:10639C001146FFF743BF002240681146FFF72EBF9E
:1063AC00406800220221FFF731BF002340681A46E3
:1063BC00FFF71CBF024B03225A60024A1A60704757
:1063CC00B8E603204CA90B000021FFF793BE002177
:1063DC00FFF788BE10B5044608462170FFF76AFE29
:1063EC0000236360204610BD13B504460078FFF708
:1063FC00EEFF58B9207801904FF6FF71FFF732FE8F
:10640C00019802B0BDE81040FFF7DEBF02B010BD2E
:10641C0013B5044600780191FFF7D9FF019948B9EB
:10642C0020780190FFF726FE019802B0BDE81040DD
:10643C00FFF7CABF02B010BD13B504460078019136
:10644C00FFF7C5FF019948B920780190FFF71AFEB4
:10645C00019802B0BDE81040FFF7B6BF02B010BD06
:10646C00400830B51860002418688842E5B206D997
:10647C000134082C02D040081860F5E70725024BC0
:10648C005B5D137030BD00BF80A90B002DE9F0419E
:10649C0088B000230446007802930E461746FFF797
:1064AC0096FF054600BB94F800800146142203A811
:1064BC0003F0F0FA0B232A4603A94046ADF80C3042
:1064CC00FFF708FE04988DF8075002AB0DF1070298
:1064DC0007FB06F1FFF7C4FF20789DF80710FFF7C4
:1064EC00D9FD2078FFF770FF029808B0BDE8F08165
:1064FC0038B5044600780D46FFF769FF0346D0B95E
:10650C00616899B10C4A12F8010B854202D0013333
:10651C00082BF8D10133DBB20122D9402046FFF71A
:10652C00B5FF2078BDE83840FFF74EBF20782946EC
:10653C00FFF7B0FDF5E738BD80A90B0008B5007872
:10654C00FFF7B0FDC0B208BD054B02221A60054B27
:10655C00054A9A600020C3E90000FFF723BE00BF84
:10656C00CCE60320C0E603200000FFFF2DE9F0413C
:10657C00931E8CB0222B4FF000030D4614468DF861
:10658C002C3027D900282ADA2E462D2306F8013B79
:10659C0040420A240DF12B074FF001082246014618
:1065AC0001A803F02BFA029B0198092BCCBF3722D0
:1065BC00302252FA83F307F8013908F10108002858
:1065CC00ECD14246791C304603F03CFA28460CB01C
:1065DC00BDE8F0810A2AD5D018B12E46DAE70A2494
:1065EC00FAE730238DF82B302E460DF12A074FF0A9
:1065FC000208E6E710B504460068FFF76FFE204678
:10660C0010BD10B50446006808B1FFF767FE002303
:10661C00C4E90133236010BD38B504460D4600684B
:10662C000131FFF763FE10B1C4E90005012038BD4C
:10663C0010B50368044623B143688B4201D3012093
:10664C0010BD2046FFF7E8FF0028F9D0A368002B07
:10665C00F5D122681370F2E737B50D461146019259
:10666C000446FFF7E5FF019A28B92046FFF7C9FF5A
:10667C00204603B030BDA2602946206803F0E2F941
:10668C002268A3680021D154F2E7002313B5C0E9B6
:10669C00003304468360037341B10846019103F053
:1066AC0041FA019902462046FFF7D6FF204602B078
:1066BC0010BD38B5054600680C4668B16A688B6831
:1066CC009A4207D3096803F025FAA368AB6000234C
:1066DC00A36038BDFFF702FE23682B6063686B6014
:1066EC00A368AB600023C4E90033F1E710B50023C5
:1066FC00C0E90033044683600373FFF7DAFF2046DA
:10670C0010BD884210B5044605D00B682BB18A68C1
:10671C001946FFF7A1FF204610BDFFF772FFFAE7FD
:10672C0010B500230446C0E9003383600373FFF700
:10673C00E8FF204610BD13B5044659B10846019137
:10674C0003F0F0F9019902462046FFF785FF204639
:10675C0002B010BDFFF755FFF9E770B505460E46C0
:10676C0009B9002070BD6AB1846814442146FFF752
:10677C005FFF0028F5D02868AB683146184403F059
:10678C00C9F9AC600120EDE707B500238DF80410C2
:10679C00012201A98DF80530FFF7DFFF03B05DF88A
:1067AC0004FB02680B46096862B141B9806860B1AC
:1067BC0010787047986840B1097848427047104685
:1067CC0003F09EB90029F5D10846704708B58268D8
:1067DC008B689A4205D1FFF7E4FFB0FA80F04009CC
:1067EC0008BD0020FCE770477047704770470000F9
:1067FC00064B994210B500F10C0405D0084602F086
:10680C00E1FF002808BF0024204610BD44AB0B005C
:10681C00064B994210B500F10C0405D0084602F065
:10682C00D1FF002808BF0024204610BD44AB0B004C
:10683C00064B994210B500F10C0405D0084602F045
:10684C00C1FF002808BF0024204610BD44AB0B003C
:10685C0010B568210446FDF71AFC204610BD10B592
:10686C0028210446FDF713FC204610BD10B530213D
:10687C000446FDF70CFC204610BD6821FDF707BC53
:10688C002821FDF704BC3021FDF701BCF0B5002533
:10689C00EC1C8C420DD86E1C445D875D974205D173
:1068AC002644B14205D31D60601CF0BD0134254463
:1068BC00EEE70020F9E70000024A03490A20FFF73F
:1068CC0061BC00BF6D5D0B0088A90B0030B40D4698
:1068DC0011461A46036809682868D3E90043A446A0
:1068EC0030BC6047012A38B5044602D10B682360DE
:1068FC0003E0022A03D0032A0DD0002038BD082063
:10690C000D68FDF7C0FB03460028F0D095E80300A6
:10691C0083E80300EBE700680028EED00821FDF7C0
:10692C00B6FBEAE710B5836804462BB10322014697
:10693C0098470023C4E9023310BD10B583680446A0
:10694C002BB10322014698470023C4E9023310BD42
:10695C0010B5013802EB410110F8013F1B0903F19E
:10696C003004392C88BF03F1370402F8024B03784A
:10697C0003F00F0303F13004392C88BF03F1370403
:10698C00914202F8014CE7D110BD10B58368044662
:10699C0013B1032201469847204610BD10B504469A
:1069AC005830FFF7F2FF04F14800BDE81040FFF744
:1069BC0021BE10B54368013B0446436063B90368CC
:1069CC009B689847A368013BA3602BB923682046BA
:1069DC00DB68BDE81040184710BDA0F13003DAB2F7
:1069EC00092A01D818467047A0F16103052B01D87C
:1069FC0057387047A0F14103052B94BF37384FF03F
:106A0C00FF30704710B500230370044B0446186820
:106A1C00FFF740FA01232370204610BDD8E603206F
:106A2C0010B5037804461BB1024B1868FFF73AFA0D
:106A3C00204610BDD8E60320052994BF405C0020F9
:106A4C00704782B00346086849686A4603C26A46C2
:106A5C0003CA18601846596002B0704708B58279AD
:106A6C008B799A4206D1062202F0DCFFB0FA80F054
:106A7C00400908BD0020FCE74FF0FF330360838022
:106A8C000020704708B50246002101604160FFF705
:106A9C00F3FF9171104608BD10B5431D01391C78E8
:106AAC0001F8014F834203F1FF33F8D110BD70B5EB
:106ABC00144688B01A460D46002948D0A4B101A945
:106ACC00FFF7EAFF9AB103AA062101A8661EFFF799
:106ADC003FFF112E28BF1126324603A9284602F08B
:106AEC00B1FF0023AB55741C204608B070BD03AA3F
:106AFC00012101A8FFF72CFF3A260DF10F0201210D
:106B0C000DF105008DF80E60FFF722FF0DF112025A
:106B1C0001210DF106008DF81160FFF719FF0DF141
:106B2C00150201210DF107008DF81460FFF710FF1D
:106B3C0006AA012102A88DF81760FFF709FF8DF84E
:106B4C001A600DF11B0201210DF10900BEE70C4684
:106B5C00CAE710B586B0044613460846122201A9AE
:106B6C00FFF7A5FF01A92046FFF78FFD204606B0D1
:106B7C0010BD000010B501230361054B024603F163
:106B8C00100153F8044B42F8044B8B42F9D110BD61
:106B9C0052AB0B0010B50B460446B1B1012A01F102
:106BAC0010020AD1014653F8040B41F8040B93422E
:106BBC00F9D101232361204610BD411E12F8010DAD
:106BCC0001F8010F9A42F9D1F3E7102202F062FFAB
:106BDC00F1E738B504460D46FFF7CCFF00232361DF
:106BEC00A581204638BD38B5044615461A46FFF730
:106BFC00D1FFA581204638BD08B5026922B980892C
:106C0C00003818BF012008BD0249102202F00AFF0B
:106C1C00F6E700BF72AB0B000069704738B50C4645
:106C2C0014220021054602F035FF23691BB9A38904
:106C3C002B80284638BD01232B7421462B4604F1AA
:106C4C00100251F8040B43F8040B9142F9D1F0E710
:106C5C0080897047704708B502690B699A4206D162
:106C6C00102202F0DFFEB0FA80F0400908BD0020CF
:106C7C00FCE7000001232DE9F3410361344B0C4682
:106C8C000646024603F1100153F8040B42F8040BBC
:106C9C008B42F9D144B32421204602F05EFF042834
:106CAC004FF0000523D1ADF8045001AFA51C0634FC
:106CBC0015F8020CFFF791FEB0F1000812DB15F885
:106CCC00010CFFF78AFE00280CDB023540EA0810A5
:106CDC00A54207F8010BEBD19DF8053033739DF8F5
:106CEC00043073730023336102B0BDE8F0814FF0C0
:106CFC0010082421204602F030FFA84207D8424653
:106D0C000021304602B0BDE8F04102F0C3BEB8F13C
:106D1C00000FE9D0605DFFF760FE030615D400019B
:106D2C0008F1FF38C7B206F808702421204602F09B
:106D3C0014FF0135A84208D9605DFFF74EFE40B242
:106D4C000028A4BF384306F808000135D1E700BF7E
:106D5C0052AB0B0013B504460191FFF70BFF204615
:106D6C000199FFF787FF204602B010BDF7B5054625
:106D7C0016461F460A4601ABD0E90001FFF786FD17
:106D8C0030F002040CD0841EBC4228BF3C463EB1FD
:106D9C0001992B68023122461944304602F052FE0A
:106DAC00204603B0F0BD37B513460C4601920A4697
:106DBC0008210546FFF7DAFF40B9019B224609215D
:106DCC00284603B0BDE83040FFF7D0BF03B030BD5C
:106DDC00F0B50C4689B00C490546FFF756FC1F224E
:106DEC0069462046FFF7DFFF064650B16C46002788
:106DFC0014F8011B2846FFF7C7FC10B10137BE423F
:106E0C00F6D1284609B0F0BDFD9D0B0007B5022355
:106E1C0001AA1921FFF7AAFF08B1BDF8040003B0BD
:106E2C005DF804FB38B54FF6FF730025044643802C
:106E3C000E22294605700571063002F02BFE04F176
:106E4C001400FFF797FE04F12800FFF793FE0449A6
:106E5C0004F13C00FFF719FC6565204638BD00BF06
:106E6C00FD9D0B0010B5D0E9063203EBC202934234
:106E7C00184606D0046824888C4203F10803F6D126
:106E8C0010BD0020FCE700002DE9F0410026066053
:106E9C00074628200C46FDF7F6F8051E05F10C08F0
:106EAC000FD00123C5E90133084B2B604046FFF797
:106EBC0061FE0FCC2E6285F8246046460FC623680F
:106ECC003360C7E900853846BDE8F08114AB0B0090
:106EDC0070B50025056006463020FDF7D4F8044651
:106EEC0088B10123C0E90133094B03604FF6FF73EE
:106EFC0083810E30FFF7C6FDC4E90655C4E9085579
:106F0C00C4E90A55A57574600C343460304670BD04
:106F1C0030AB0B0037B50D46044601A8FFF772FDE8
:106F2C002A68D2F802302360D2F80630636001A8D8
:106F3C00FFF776FD204603B030BD30B5054687B06F
:106F4C000C4601A8FFF75EFD2A68236812881B888F
:106F5C009A420DD1294602A8FFF7DCFF214604A86E
:106F6C00FFF7D8FF04A902A8FFF778FD044600B983
:106F7C00002401A8FFF754FD204607B030BD0000E7
:106F8C0010B504466420FDF77EF868B10023C0E913
:106F9C000033C0E90233C0E90433C0E906330362AD
:106FAC00C362C363C364C365206020B90A4A0B493A
:106FBC000A20FFF7E7F80020FEF7F2FE20B1064AA0
:106FCC0007490A20FFF7DEF8216806480022FEF781
:106FDC004FFF204610BD00BF6D5D0B0088A90B0054
:106FEC00C6A90B00E97A0B0010B50A4C2378BFF345
:106FFC005B8FDB070CD42046FDF758F840B10648F0
:10700C00FFF7BEFF2046FDF756F8044802F0ECFCF3
:10701C00014810BDD0E60320DCE60320C9730B0049
:10702C0030B50368093B012B8DB004460D4611D8D1
:10703C00FFF7DAFFA1880068FFF714FF034658B981
:10704C002022CDE904200B4A00920B4904AA3220DD
:10705C00FFF7A0F80DB030BD6A6D002AFAD0D4E964
:10706C00032105F14C00CDE90312AC6D04AA03A970
:10707C00A047EFE708AA0B009FA90B0008B500205A
:10708C00FEF78EFE00EAE07008BD13B50446002141
:10709C006846CDE90011FEF78BFE6B4603CB2060F2
:1070AC002046616002B010BD19B90A460846FEF7C9
:1070BC0087BED1E900010022F9E7000070B5044653
:1070CC0018300E461546FFF72DFC04F12800FFF78B
:1070DC0034FCC4E90365002221460348FEF798FE00
:1070EC000028A8BF606970BDC9850B0010B50446A7
:1070FC004069FFF7F3F8A068FFF7F0F8204610BDE1
:10710C00002247F67F71C0E90022C0E90222C0E9E3
:10711C000422C0E90E22C0E91022C0E91222C0E903
:10712C001422C0E91622C0E91822C0E91B2202620F
:10713C000263A0F86810704730B585B000241023A6
:10714C000D46ADF80230214603236846ADF80030F9
:10715C00CDE901440394FEF753FE21466846ADF891
:10716C000850FEF745FE05B030BD70B5D0E90053B0
:10717C00044605EB0316AE4204D02846FFF73AFA54
:10718C001035F8E72068FFF7A9F8204670BD10B558
:10719C0004460068FFF7A2F8204610BD70B50446FF
:1071AC00C06DFFF79BF8206DFFF798F804F13805D8
:1071BC0004F14400FFF7EBFF2846FFF7D6FF04F17C
:1071CC002800FFF7E2FB04F11800FFF7DEFBD4E91F
:1071DC000053242606FB0356AE4204D02846FFF784
:1071EC0085FF2435F8E72068FFF778F8204670BD56
:1071FC0030B515469FB00C4679B172B101A8FFF7B6
:10720C007FFF21462A4601A8FFF758FF044601A834
:10721C00FFF7C4FF20461FB030BD014CFAE700BF9A
:10722C00F2FEFFFF38B5141E4368054602DB6218F8
:10723C009A4200DD5C1A2A68501801191A44521A35
:10724C0002F00EFC6A68121B6A6038BD37B50A463C
:10725C0004460D4601ABD0E90001FFF717FB0246CF
:10726C0038B101992046FFF7DDFF29462046FFF78C
:10727C00EDFF03B030BD10B50C4629B90A460846DF
:10728C00BDE81040FEF7A4BD01212046FFF7DEFF4C
:10729C00D4E900010022F3E738B504461546FFF7A0
:1072AC0003FF00280ADB29462046FFF7E4FF0028ED
:1072BC0004DBBDE838400020FEF792BD38BD00006D
:1072CC0038B500230446836008200D46FCF7DBFE2E
:1072DC0018B12B6803606B684360034BE360034B8E
:1072EC002060A360204638BDD9680B00F1680B0004
:1072FC000B68036013B15A6801325A60704710B5BD
:10730C0051F8043B044640F8043BFFF7F1FF2368B7
:10731C000BB9FFF7D1FA204610BD10B551F8043B5C
:10732C00044640F8043BFFF7E3FF204610BD10B5C0
:10733C0051F8043B044640F8043BFFF7D9FF2046C4
:10734C0010BD10B50446006808B1FFF732FB2046AB
:10735C0010BD10B504460430FFF7F3FF204610BDF6
:10736C0070B5D0E90053044605EBC306AE4204D019
:10737C00281DFFF7E6FF0835F8E72068FEF7AEFF9B
:10738C00204670BD70B5D0E90053044605EBC3062A
:10739C00AE4204D0281DFFF7D4FF0835F8E720686B
:1073AC00FEF79CFF204670BD10B504462430FFF755
:1073BC00E9FF04F11800FFF7D3FF10BD70B5174BB0
:1073CC001C6854B304F15400FFF7DFFA04F14400D5
:1073DC00FFF7DBFA04F13400FFF7D7FA04F12400CD
:1073EC00FFF7D3FAD4E9065305EBC306AE4204D03B
:1073FC00281DFFF7A6FF0835F8E7A069FEF76EFF1A
:10740C0004F10C00FFF7BEFF2046FFF7A9FF204652
:10741C006421BDE87040FCF73ABE70BDDCE6032089
:10742C0013B50023D1E90042C1E90033036800938E
:10743C0004604368426001A80193FFF782FF02B029
:10744C0010BD826810B50AB902F0B8F9BDE8104059
:10745C00C36818472DE9F0470023C0E90033836067
:10746C00D1F80480984505460F464ADD4FEA0810CE
:10747C00FEF72CFF0646002843D0D5E90041A04278
:10748C0004EB011A16D9504515D2AAF1100AA4F131
:10749C001009AAEB04040444D1451DD01CB151467B
:1074AC002046FFF723F95046FFF7A4F8AAF1100A7B
:1074BC00103CF1E710D0B146A2450DD0B9F1000F48
:1074CC0003D021464846FFF711F92046FFF792F802
:1074DC00103409F11009EFE72868FEF7FFFEC5F834
:1074EC0008802E60D7E9004304EB0318A04506D0B2
:1074FC0021463046FFF714F910341036F6E77B6856
:10750C006B602846BDE8F08730B58DB00C4600F1B5
:10751C00380101A8FFF79EFF029B002B2FDD04F121
:10752C00140104A8FFF754FC04F1080108A8FFF7A4
:10753C004FFC0A9A069B13431FD0DDE9014504EB6F
:10754C000515AC4219D004A92046FFF73FF960B1EC
:10755C00012408A8FFF74EF804A8FFF74BF801A880
:10756C00FFF703FE20460DB030BD204608A9FFF7FB
:10757C002DF910340028E4D0EAE70024E9E70124CF
:10758C00EDE7F8B50023C0E9003383604F689F42F4
:10759C0005460E463EDDF800FEF798FE0446C8B3DD
:1075AC00D5E90003844200EBC30310D99C420FD2EF
:1075BC00083B1A1AA0F1080C22449C4518D01AB1A9
:1075CC001968116059685160083B083AF5E70FD00B
:1075DC00014622468B420BD03AB1D1F800C0C2F81A
:1075EC0000C0D1F804C0C2F804C008310832F1E779
:1075FC00FEF774FE2C60AF60D6E9003103EBC100DE
:10760C00984206D01A6822605A68626008330834BF
:10761C00F6E769602846F8BD70B504460020C4E959
:10762C000000A0604E6886420D4612DD7100FEF728
:10763C005DFE70B12060A660D5E9003203EB42021A
:10764C009A4204D033F8021B20F8021BF8E76B684F
:10765C006360204670BD10B50379044623B90368F6
:10766C00186808B1FEF73AFE204610BD10B5037934
:10767C00044623B90368186808B1FEF72FFE2046AC
:10768C0010BD00002DE9F043D0F86C808FB00F4690
:10769C00B8F1000F72D0056F002D6FD001F11409F5
:1076AC001F230022FF214846FFF760FB0837FF230A
:1076BC000446002219463846FFF758FBAC420646F2
:1076CC0006D0AE4230D0002420460FB0BDE8F08387
:1076DC002046FEF7FBFD03AB049300230446039006
:1076EC008DF8143070B92023CDE90630244B00936B
:1076FC002449034606AA3220FEF74CFD04A8FFF7E6
:10770C00AAFFE1E70246FF212B464846FFF72EFB76
:10771C0003982A46414602F085F918B104A8FFF7F0
:10772C009AFFCEE70124E9E72846FEF7CFFD0024B7
:10773C0003AB0646039004938DF8144078B92023CC
:10774C00CDE906300E4B00930E49034606AA3220B3
:10775C00FEF720FD344604A8FFF788FFB4E7024685
:10776C00FF212B463846FFF701FB03982A4641467A
:10777C0002F058F90028EED10124ECE70124A3E72C
:10778C0020AA0B009FA90B0038B50D1E04460068FB
:10779C0003DDFEF7ABFD18B938BDFEF79FFD0020E9
:1077AC002060A5600120F7E708B583688B4202DAF8
:1077BC00FFF7EAFF08BD0120FCE738B50023C0E95C
:1077CC00003383600D4649689942044610DDFFF78B
:1077DC00DBFF68B1D5E9003122681944994205D024
:1077EC000AB11878107001330132F7E76B686360E7
:1077FC00204638BD38B50B6803604B6843600446BF
:10780C000D4608300831FFF7D8FF05F1140104F1DB
:10781C001400FFF7D2FF95F8203084F82030204672
:10782C0038BD1FB5044601A8FFF7C7FF019B029A9C
:10783C002068236063686260039A0293A368A26065
:10784C0001900393FEF74AFD04B010BD2DE9F04101
:10785C000F4641681D461944836899420446904678
:10786C0012DC266862683E44D21B3146701902F065
:10787C00F7F82A464146304602F0E4F863682B4498
:10788C0063600120BDE8F081FFF77EFF0028E8D19E
:10789C00F8E713460A46002110B50446416002B1D0
:1078AC000BB9002010BDFF2B28BFFF23FFF7CEFF25
:1078BC000028F7D06068F5E7F8B50D46D0E901135C
:1078CC009942044616460BDA276862687919521BEE
:1078DC00481C02F0C5F87E55636801336360F8BD3F
:1078EC000131FFF751FF0028EED1F8E70A46416855
:1078FC00FFF7E2BF2DE9F74304461D460F4601ABE7
:10790C0090460A46D0E900019DF82890FEF7BEFF8C
:10791C00AE1C63680246B9F1000F26D128B333447C
:10792C001B1AFF2B09D801992046FFF77BFC6168D5
:10793C0020463144FFF738FF18B9606803B0BDE842
:10794C00F0836A1C0199D2B22046FFF7B5FF01996A
:10795C003A4601312046FFF7AFFF01992B464246CC
:10796C0002312046FFF772FFE7E7F118FF29E4D850
:10797C002046FFF719FF0028DFD0691CC9B220464A
:10798C00FFF7B4FF39462046FFF7B0FF61682B467E
:10799C004246E6E730B49DF808501AB1029530BC67
:1079AC00FFF7A8BF406830BC70471FB50023C0E983
:1079BC00003383600622009301238DF80F201946B3
:1079CC000DF10F020446FFF7E5FF204604B010BD91
:1079DC008842F8B504460D46164614D9904213D287
:1079EC00A2F10806751AA1F108072C44B74218D069
:1079FC001CB131462046FFF79AFC301DFFF7A1FC65
:107A0C00083E083CF2E70CD0B5420AD01CB129461E
:107A1C002046FFF78CFC281DFFF793FC0835083433
:107A2C00F2E7F8BDF7B5044646686846FFF77FFCF9
:107A3C00D4E901739F4212DB0137002F29DDF800D6
:107A4C00FEF744FC0546F0B1D4E9001201EBC2028A
:107A5C00FFF7BEFF2068FEF741FC2560A760236896
:107A6C00626803EBC60603EBC202314606F108005E
:107A7C00FFF7AEFF1EB169463046FFF758FC63684E
:107A8C0001336360012501A8FFF75BFC284603B0B6
:107A9C00F0BD0025DEE7F8B5D0E9004305460F46FA
:107AAC0004EBC306A64205D039462046FFF745FA3B
:107ABC0008B114B9F8BD0834F4E7201DFFF741FCF8
:107ACC00D5E9003204F1080103EBC2022046FFF7AE
:107ADC007FFF6B68013B6B60ECE700002DE9F04128
:107AEC0005468EB003A80C46FEF78CFF2E68F31EDD
:107AFC000D2B3CD8DFE813F00E0053003B00D100F7
:107B0C003B003B003B003B003B009B009B009B0071
:107B1C009B009B0004A8FFF7DBF9049BAA891A8041
:107B2C006968049808310230FEF78BFF04A906A897
:107B3C00FFF7FDFB06A904F11800FFF773FF0546DC
:107B4C0007A8FFF7FEFB20230693B5B95D4B5E49F2
:107B5C00009332202B4606AA0795FEF71BFB049BCD
:107B6C0029461888FEF766F905A8FFF7EAFB03A873
:107B7C00FEF756FF0EB0BDE8F081544A0092002388
:107B8C005149079306AA0120FEF704FBE36A002B78
:107B9C00EAD004A904F12400FFF753FCE4E7A98917
:107BAC002046FFF75FF906460028E0D00568D5E9C6
:107BBC0006324FF6FF71298003EBC2029A4203D0C2
:107BCC0053F8080B4180F9E7D5E9037307EBC308B9
:107BDC00B84504D0381DFFF7B4FB0837F8E700238D
:107BEC002B61D5E9067307EBC308B84504D0381DE3
:107BFC00FFF7A7FB0837F8E70023EB61AB72E36BE9
:107C0C0023B1314604F13400FFF71BFC0023202282
:107C1C00CDE906232E4A00922B4906AA0120FEF735
:107C2C00B9FA314604F11800FFF735FF9FE7A9892F
:107C3C002046FFF717F9002899D0E36C002B96D05B
:107C4C0000230D2EADF8163001D0102E17D10023C5
:107C5C0069681A4606258DF8153004918DF81420A4
:107C6C000690DDE9040109AB8DF81C60089583E8EA
:107C7C000300236D06A904F14400984777E70F2E03
:107C8C0001BF2B7A696803F0010208250FBFC3F30B
:107C9C0040031A4619461D46DDE7A9892046FFF721
:107CAC00E1F8014600283FF462AFE36D002B3FF48E
:107CBC005EAF6B68069306AA236E04F154009847D6
:107CCC0055E700BF3BAA0B009FA90B0061AA0B0054
:107CDC007EAA0B0038B50D1E0446006805DD142184
:107CEC006943FEF703FB18B938BDFEF7F7FA00201D
:107CFC002060A5600120F7E72DE9F8430024C0E9D6
:107D0C000044846088464968A14207461ADDFFF7A3
:107D1C00E1FFB8B1D8E900934FF0140CD7F800E0AC
:107D2C000CFB039C09EB0405AC4508D01EEB0406C8
:107D3C001FBF0FCD0FC62B6833601434F2E7D8F891
:107D4C0004307B603846BDE8F8832DE9F843D1E96F
:107D5C00008745688368E9199942044617DC1423A7
:107D6C00266862685D4303FB07F95A432E44521B95
:107D7C00314606EB090001F073FE4A464146304697
:107D8C0001F060FE63683B446360BDE8F883FFF775
:107D9C00A1FF0028E3D1F8E782B070B50C4604A926
:107DAC0081E80C00D0E901139942054617DA142337
:107DBC0003FB04F16A682C685A430C44521AE0180D
:107DCC00214604AE01F04CFE0FCE0FC43368236085
:107DDC006B6801336B60BDE8704002B070470131D5
:107DEC00FFF778FF0028E2D1F5E72DE9F04F0024EA
:107DFC0093B0931EC0E90044DBB205460F46904693
:107E0C008460059379688C4272DA386807AB424615
:107E1C00091B2044FEF73AFD0646002868D0059B56
:107E2C00012B2FD8A0F1020B4FEA5B0B4FF000098E
:107E3C000DF13C0A079BCB45234455D03A6803EB24
:107E4C004903134408A8D9789B7843EA0121FEF72B
:107E5C00C0FE0DF1200EBEE80F000DF1340CACE8A5
:107E6C000F00DEF80030CCF800309AE807008DE8FF
:107E7C0007000DAB0CCB69682846FFF78DFF09F1A5
:107E8C000109D7E7A8F10603012B2DD8A0F1020BAD
:107E9C004FEA1B1B4FF000090DF13C0ACB45079B29
:107EAC0022D002333968234403EB0913012219440D
:107EBC0008A8FEF76FFE0DF1200EBEE80F000DF1C5
:107ECC00340CACE80F00DEF80030CCF800309AE847
:107EDC0007008DE80700DDE90D2369682846FFF7E8
:107EEC005BFF09F10109D9E7079B1C44344489E77E
:107EFC00284613B0BDE8F08F30B5002385B0C0E93B
:107F0C00003383600446022201A80D46FFF76DFF83
:107F1C0001A92046FFF719FF01A8FFF738F9022243
:107F2C00294601A8FFF761FF01A92046FFF70DFFC5
:107F3C0001A8FFF72CF90322294601A8FFF755FFEA
:107F4C0001A92046FFF701FF01A8FFF720F906223F
:107F5C00294601A8FFF749FF01A92046FFF7F5FEC6
:107F6C0001A8FFF714F90722294601A8FFF73DFFE6
:107F7C0001A92046FFF7E9FE01A8FFF708F9204602
:107F8C0005B030BD2DE9F04F8BB00C4600F144012B
:107F9C0001A8FFF7B1FE029B002B4ADD04F114018E
:107FAC0004A8FFF7A9FF04F1080107A8FFF7A4FF35
:107FBC00059D089E002D01DC002E38DD019A029FE4
:107FCC00DDF81080DDF81C90142303FB072703FB5E
:107FDC00058503FB06969246BA4528D0C346AB45A9
:107FEC0015D059465046FEF736FE0BF1140B0446DD
:107FFC000028F4D007A8FFF7CAF804A8FFF7C7F8C1
:10800C0001A8FFF7C4F820460BB0BDE8F08FCB46B3
:10801C00B34509D059465046FEF71DFE0BF1140B23
:10802C0004460028F4D0E5E70AF1140AD4E700244A
:10803C00E0E70124E4E713B50B460246D0E9000162
:10804C006C4684E8030093E8030082E8030094E89C
:10805C00030083E8030002B010BD38B505460C469A
:10806C00FFF7E9FFAB68A268AA60A360EB68E2685F
:10807C00EA60E36038BD70B504468CB00E460192E0
:10808C001D46FEF7CFFE2671019904F13C00FEF768
:10809C0052FB04F14C06CDB1109B029502A904A829
:1080AC000393FFF70DF9002308A904A80A93FFF71F
:1080BC00D4FF314608A8FFF7D0FF08A8FEF765FCEF
:1080CC0004A8FEF762FC20460CB070BD0695EAE7EA
:1080DC002DE9F04F87B01D46DDE9104380468B46F5
:1080EC009246129903930022682002910492FBF7A6
:1080FC00CAFF061E06F10C0918D001223746C6E944
:10810C0001220299154A47F8202B039B00915A46ED
:10811C0051464846FFF7AFFF0FCD0FC72B683B60AA
:10812C000FCC06F134050FC523682B6004A940461B
:10813C00CDE90496FFF774F905A8FFF702F9D8F812
:10814C0000303BB9064A07490A2007B0BDE8F04F9A
:10815C00FEF718B807B0BDE8F08F00BFF8AA0B0007
:10816C006D5D0B0088A90B008842F8B504460D46DE
:10817C00164614D9904213D2A2F10806751AA1F131
:10818C0008072C44B74218D01CB131462046FFF7E3
:10819C00C4F8301DFFF7D5F8083E083CF2E70CD0C8
:1081AC00B5420AD01CB129462046FFF7B6F8281D67
:1081BC00FFF7C7F808350834F2E7F8BD70B50E1EA6
:1081CC00054611DDF000FEF781F8044658B1D5E9FB
:1081DC00001201EBC202FFF7C7FF2868FEF77EF81A
:1081EC002C60AE60012070BD0024F6E773B5044628
:1081FC0045686846FFF791F8D4E90113994210DA03
:10820C002368626803EBC50503EBC202294605F13E
:10821C000800FFF7A9FF8DB963680133636001267D
:10822C0006E001312046FFF7C9FF06460028E7D1DA
:10823C0001A8FFF786F8304602B070BD69462846A3
:10824C00FFF76BF8E8E78842F8B504460D4616468A
:10825C0014D9904213D2A2F10806751AA1F108079D
:10826C002C44B74218D01CB131462046FFF747F8D2
:10827C00301DFFF766F8083E083CF2E70CD0B5421B
:10828C000AD01CB129462046FFF739F8281DFFF704
:10829C0058F808350834F2E7F8BD70B50E1E0546DF
:1082AC0011DDF000FEF712F8044658B1D5E90012C2
:1082BC0001EBC202FFF7C7FF2868FEF70FF82C602E
:1082CC00AE60012070BD0024F6E773B50446456826
:1082DC006846FFF714F8D4E90113994210DA2368C1
:1082EC00626803EBC50503EBC202294605F10800E1
:1082FC00FFF7A9FF8DB9636801336360012606E0BF
:10830C0001312046FFF7C9FF06460028E7D101A836
:10831C00FFF717F8304602B070BD69462846FEF7E5
:10832C00EEFFE8E72DE9F04F1746A1B080460AA80A
:10833C000E46FEF767FB3C68237953B93946404635
:10834C00FEF7DDFF0AA8FEF76BFB404621B0BDE847
:10835C00F08F3368D3E9035305EBC303039304F1A4
:10836C00280A04F1140B039B9D4221D0D5F80090F0
:10837C00584609F11401FEF76EFCB8B109F1280159
:10838C005046FEF768FC88B12368D9F800205340AA
:10839C0033F47F430AD12022CDE915235E4A0092A3
:1083AC0015AA5E493220FDF7F5FEC7E70835DAE776
:1083BC005046FEF721FC60B95949012215A815ADAC
:1083CC00FEF7E8FB0FCDD446ACE80F002B68CCF8D9
:1083DC0000303368D3E9005305EBC30B5D45A94668
:1083EC0051466ED055F8080BFEF735FC0028F5D039
:1083FC0004F1140A5046FEF7FFFB88B9494B484973
:10840C001A88013292B21A8015A8012315ADFEF715
:10841C00EAFB0FCDD446ACE80F002B68CCF800304B
:10842C00414B15932822002116A801F033FB51462D
:10843C0004A8FEF7F3FB04AB18AA0DF1200C186886
:10844C005968154603C5083363452A46F7D11868A1
:10845C00286023798DF85830D9F800309B8AADF814
:10846C007430E36B1793314B0022A11D15A8CDE995
:10847C001E34FDF7F3FC00287FF460AF012323705A
:10848C00346839460C340DA8FEF739FF20460DA987
:10849C00FFF71BFF04460EA8FEF753FF002C7FF4DA
:1084AC004DAF2023CDE90D34214B00930DAA23466B
:1084BC0077E739464046FEF722FF0CA8FEF741FF4E
:1084CC0040E70BA8FEF7E0FC514615A8FEF7A6FB0B
:1084DC000B9A0023143215A90120FDF7B5FC0028D6
:1084EC00E7D135680BA90DA8FEF717FF28460DA993
:1084FC00FFF77CFE05460EA8FEF723FF002DD8D013
:10850C0032685368126803F10053013B0CA802EB6C
:10851C00C309FEF716FF6BE79DAA0B009FA90B0082
:10852C0062AB0B00D4E6032003002C002D700B0073
:10853C00C8AA0B008842F8B504460D46164614D955
:10854C00904213D2A2F12406751AA1F124072C44EF
:10855C00B74218D01CB131462046FFF74BF93046D4
:10856C00FEF7C4FD243E243CF2E70CD0B5420AD001
:10857C001CB129462046FFF73DF92846FEF7B6FD0B
:10858C0024352434F2E7F8BDF8B50E1E054613DD8C
:10859C00242707FB06F0FDF799FE044658B1D5E9F0
:1085AC00001207FB0212FFF7C5FF2868FDF796FEC5
:1085BC002C60AE600120F8BD0024F6E72DE9F043F5
:1085CC009DB001AD064628460C46FEF75BFA03A8A3
:1085DC00FFF7EBF906A8FFF7E8F930697169F28942
:1085EC0013AB03C385E803003378B1688DF82430EE
:1085FC0006A8FFF74EF9B289716803A8FFF749F98D
:10860C0094F968307F2B13AF03D09DF924209A4244
:10861C005CDB94F969307F2B03D09DF924209A42BE
:10862C0054DC04F150013846FEF7ABFF149B002BD1
:10863C0052DD139E06EBC309B14550D03046294696
:10864C00FEF70CFA083680460028F5D01398FDF793
:10865C0045FEB8F1000F39D029462046FEF754FFED
:10866C00A0B329462046FFF78DFC064670B304F1F3
:10867C005C013846FEF7D0FF149B002B12DD06A8D8
:10868C00FEF7C4FB804603A8FEF7C0FBDDE91332FE
:10869C0003EB42029A4225D033F8021B884501D0E5
:1086AC008842F7D11398FDF719FE7EB12946204672
:1086BC00FEF7E8FF50B1236AB3B163691395013338
:1086CC006361636A394604F1180098472846FEF73F
:1086DC000DFD1DB0BDE8F0834FF00108B6E74FF07B
:1086EC000008B3E70026DDE7D4F83080B8F1000FBE
:1086FC0007D06369013363612946636B04F1280079
:10870C00E3E7D4F80CC0BCF1000F25D063692269F3
:10871C00013393426361D9D8242253432A4603CAB6
:10872C00243B0CEB03064CF80300716006F10800C7
:10873C0003A9FFF776F806A906F11400FFF771F804
:10874C009DF9243086F82030D4E904329A42BDD306
:10875C004046FDF765FBB9E795E803000DF12808E5
:10876C0088E8030003A90CA8FFF727F806A90FA8AF
:10877C00FFF723F89DF824308DF8483041463846F1
:10878C006668FFF737F8D4E90113994210DA2368C9
:10879C006168242202FB063606F1240002FB01323A
:1087AC003146FFF7C7FE86B963680133636005E0A5
:1087BC0001312046FFF7E8FE0028E8D13846FEF7E5
:1087CC0095FC4046FEF792FC80E739463046FFF7B1
:1087DC0011F8E9E7024800230360FDF753BB00BF23
:1087EC00D8E60320F8B506460D468F180024BD4286
:1087FC000CD0336815F8011B9B6830469847031E54
:10880C0001DB1C44F3E7002C08BF1C462046F8BDD6
:10881C0013B50446084659B1019101F083F9236858
:10882C000199DB680246204602B0BDE810401847AB
:10883C0002B010BD03689B68184738B50D2105467A
:10884C00FFF7F8FF0A2104462846FFF7F3FF204400
:10885C0038BD38B50546FFF7DBFF04462846FFF761
:10886C00ECFF204438BD30B58BB00023012A8DF8C5
:10887C00243098BF0A2209AC0D46B1FBF2F101FB82
:10888C00125303F0FF03092B94BF30333733DBB2A1
:10889C00AA4204F8013DEFD92146FFF7B9FF0BB00E
:1088AC0030BD2DE9F04186B000AF05460E46381DAF
:1088BC00142114463B60FDF721FD13280ED8391DF9
:1088CC002846FFF7A5FF04461EB12846FFF7B5FF63
:1088DC00044420461837BD46BDE8F08100F108037A
:1088EC0023F00703E846ADEB030D2246411C3B6821
:1088FC006846FDF703FD69462846FFF789FF0446E5
:10890C00C546E1E7014B024A1A607047E0E60320D6
:10891C0082AB0B00024B1A68024B1A60704700BF07
:10892C00C0DD0320E4E603200021FDF743BC00007A
:10893C0010B5044B03600446806908B1FEF739F8A2
:10894C00204610BD7CAC0B0010B50446FFF7F0FFC1
:10895C0020461C21FBF79BFB204610BD014B00223F
:10896C009A607047E8E60320014B1860704700BF1F
:10897C00C4DD032008B50B4B43B100F081F903684B
:10898C001B699847002801DDAFF30080064B43B10B
:10899C0000F0AEFE03681B699847002801DDAFF3B9
:1089AC00008008BD000000000000000008B5FFF7C3
:1089BC00E1FFFDF7E5F9014B186008BD40E7032026
:1089CC000548064A064908B5121A01F03BF8054B52
:1089DC00054A1A6008BD00BF00F4032004F403200C
:1089EC0014B00B0000F403201E1C279A07B50023BB
:1089FC0000931A466FF07701FDF7EEFB03B05DF8BC
:108A0C0004FB000007B543880A2B08D0502B0BD170
:108A1C00094B1B684BB103B05DF804EB1847FFF72B
:108A2C00E5FF03B05DF804FB002300931A466FF0DA
:108A3C007701FDF7D1FBF4E7FCE6032010B51248F3
:108A4C000021FDF77BFC114B1A68114B9A42114B1C
:108A5C000CBF012200221A7001D0FFF7B1FFFDF705
:108A6C0077F9044601F01EF80B4B13B12046AFF317
:108A7C00008000210848FDF721FCBDE810400748A4
:108A8C000021FDF79FBB00BF75890B0000F403208C
:108A9C001E1C279AF8E6032000000000118A0B0028
:108AAC00704710B518210446FBF7F1FA204610BDAB
:108ABC00F0B5037D062B8DB00E4600F104074FF088
:108ACC00000412D000F1080515F8011D0A223046E9
:108ADC00FFF7C9FEAF42044419D0002CF4D02E216C
:108AEC003046FFF7A7FE0444EEE72F236A463946CB
:108AFC000A208DF80040FDF7DDF9684601F012F808
:108B0C0033680246DB68694630469847044620467F
:108B1C000DB0F0BD10B5054B0446112240F8043BD6
:108B2C00002100F0B7FF204610BD00BFACAB0B001E
:108B3C000346074A10B543F8042B01F1100251F813
:108B4C00044B43F8044B9142F9D10A781A7010BDCA
:108B5C00ACAB0B00037D042B04D14068003818BF6C
:108B6C0001207047062B07D143683BB983682BB9AA
:108B7C00C3681BB90069F1E70020704701207047FA
:108B8C0010B59DF8084044EA032343EA024242EA46
:108B9C00016104234160037510BD000007B5064B4D
:108BAC000360CB7800938B784A780978FFF7E8FF5D
:108BBC0003B05DF804FB00BFACAB0B004174704715
:108BCC007047704708B50021007CFDF7BBFA40EAFE
:108BDC00E07008BD08B50121007CFDF7B3FA40EA4E
:108BEC00E07008BD08B5007CFDF7A4FA20EAE0703F
:108BFC0008BD08B5007CFDF795FA20EAE07008BDC9
:108C0C0013B50446007C0191FDF794FA00280199F4
:108C1C0001DC607C20B1207CFDF79CFA20EAE0703E
:108C2C0002B010BD007CFDF79DBA10B514210446AE
:108C3C00FBF72DFA204610BD10B54FF47A7304469D
:108C4C0008460021C4E90113044B2360012320745E
:108C5C0063741146FDF756FA204610BDC0AB0B00ED
:108C6C00007C0022FDF756BA007CFDF783BA10B5E4
:108C7C0014220446002100F00DFF204610BD000018
:108C8C0010B50F4C88B003A8FFF7F1FF2178BFF3A4
:108C9C005B8F11F001010FD120460191FBF706FA11
:108CAC00019948B103AA0748FFF7C6FF2046FBF716
:108CBC0002FA054800F098FE024808B010BD00BF4B
:108CCC0000E7032004E70320CD8B0B0070474174B1
:108CDC00704708B5007CFDF735F920EAE07008BD57
:108CEC0008B5007CFDF706F920EAE07008BD08B570
:108CFC00007CFDF70FF940EAE07008BD08B5007C78
:108D0C00FDF700F940EAE07008BD007CFDF70AB9F8
:108D1C0037B5457C04462DB1207C03B0BDE830400E
:108D2C00FDF7E0B8007C0191FDF70CF900280199E2
:108D3C00F2DC284603B030BD10B514210446FBF715
:108D4C00A6F9204610BD000010B54FF47A73044606
:108D5C00084611460022C4E90123044B2360012379
:108D6C0020746374FDF7F6F8204610BDF0AB0B00D1
:108D7C007047F8B5064615460C468F18BC4206D00F
:108D8C00336814F8011B9B6830469847F6E7284671
:108D9C00F8BD007C0022FDF7FDB8007C0021FDF73A
:108DAC0001B9007C0021FDF705B9007C0021FDF71D
:108DBC0009B9007C0021FDF70DB910B5142104464A
:108DCC00FBF765F9204610BD38B5044615464FF43F
:108DDC007A730022C4E90123094B217408462360ED
:108DEC002946FDF707F9BF3008D16B69DB0705D5BC
:108DFC006868FDF773FAE868FDF770FA204638BD2D
:108E0C0020AC0B000023007C1A461946FDF7AAB8CB
:108E1C00007C0022FDF7AEB8C9B2FFF7F9BF007CA9
:108E2C000022FDF7AFB80121FFF7F9BF13B50368B6
:108E3C008DF80710DC6B01224FF0FF330DF10701A9
:108E4C00A04702B010BD10B40368DC6B4FF0FF33C9
:108E5C00A4465DF8044B604713B5134602688DF8C1
:108E6C000710D46B0DF107010122A04702B010BD11
:108E7C0010B54369B3F88620B3F884309A4204469F
:108E8C0008D06369B3F88420511CA3F884101344F0
:108E9C00187910BD03681B6998470028F1D14FF071
:108EAC00FF30F6E7704743691868C043C00F70473E
:108EBC0070470000064B994210B500F10C0405D028
:108ECC00084600F07FFC002808BF0024204610BD97
:108EDC0044AB0B0010B5AC210446FBF7D8F8204688
:108EEC0010BDAC21FBF7D3B82DE9F0414FF00008D1
:108EFC0086B01C46C0F8048005460E46174641460F
:108F0C00102202A800F0C6FD631C09D04FF47A733E
:108F1C00B4FBF3F203FB1244CDE902285C43049446
:108F2C00686910230093006802AB41F2050240F619
:108F3C00FF71FDF767F8002807DAFDF7EFF9036812
:108F4C006B60002006B0BDE8F08168690023006802
:108F5C003A463146FDF776F8031EEEDB1846F1E78C
:108F6C0030B587B0044601AD6846FFF717FE0FCD4C
:108F7C0004340FC42B68237007B030BD70B54D6935
:108F8C00054B04468C3544F8043B06460FCD0FC404
:108F9C002B682370304670BDACAB0B002DE9F04351
:108FAC009846036893B00D460024DB6A06461746C4
:108FBC00984728466B46224621460094FCF798FEBB
:108FCC000546002863D1009B002B4BD05B69002B1E
:108FDC0048D006A8FFF79EFD009B5C696378022BC6
:108FEC0004D1211D06A8FFF7BBFF26E00A2B24D1D4
:108FFC001122294601A800F04DFDA368002B38D0A2
:10900C0004F108030DF1040C183418685968624611
:10901C0003C20833A3429446F7D1062301A90CA836
:10902C008DF81430FFF784FD0DF1340CBCE80F0003
:10903C0007AC0FC4DCF80030237006A8FFF78AFDDC
:10904C0080B1336807ADD3F82090124B0C930FCD41
:10905C000DAC0FC42B6823703A4643460CA930461E
:10906C00C84705460098FCF73BFE284613B0BDE800
:10907C00F083E368002BC3D14FF6FF70D4F8109047
:10908C00FCF720FF8145BBD104F11401AAE725466A
:10909C00E8E700BFACAB0B0038B543691A68002A8F
:1090AC00054610DAB3F88620B3F884309A420AD118
:1090BC0003681B699847044628B92B682846DB6A65
:1090CC009847204638BD0120FCE710B54369B3F83A
:1090DC008620B3F884309A42044605D06369B3F80D
:1090EC0084201344187910BD03681B699847002825
:1090FC00F4D14FF0FF30F6E7F8B543691746B3F8F3
:10910C008620B3F884309A4205460E4616D069691B
:10911C00B1F88430B1F88640E41ABC4228BF3C4612
:10912C00043322461944304600F08CFC6A69B2F8CC
:10913C0084302344A2F884302046F8BD03681B69B0
:10914C0098470028E3D14FF0FF34F5E7426900233C
:10915C00A2F884304269A2F8863070472DE9F041BC
:10916C001F4603680C46DB6A8AB0054616469847CC
:10917C00237DD5F81480042B0CBF02200A20062274
:10918C000121FCF767FFC8F800006B691B68002B16
:10919C0008DA2B682846DB6A0024984720460AB078
:1091AC00BDE8F0812846FFF7D1FFB7B1002303A932
:1091BC00F8B20393ADF81030FCF7C2FD0028E8D1EB
:1091CC00686906230093006803AB41F20B0240F67A
:1091DC00FF71FCF717FF0028DBD11C22002103A82C
:1091EC0000F058FC237D042B1DD14FF4077330463F
:1091FC00ADF80C30FCF76EFEADF80E006068FCF7B5
:10920C0061FE04906B691C22186803A9FCF70AFF25
:10921C000028BED104340FCC6D698C350FC5236882
:10922C002B700124BAE740F61C233046ADF80C3005
:10923C00FCF750FE05AEADF80E00231D04F114072B
:10924C0018685968324603C20833BB421646F7D138
:10925C00D8E7000030B54269B2F886308BB00446CE
:10926C002BB1B2F884209A4201D1FFF76FFF6169EC
:10927C000868002818DBB1F886507F2D14D804310B
:10928C000823C5F180022944FCF7D4FE002813DD25
:10929C006369B3F886200AB9A3F884206369B3F82C
:1092AC0086201044A3F886006369B3F88600B3F8EF
:1092BC008430C01A0BB030BDFDF730F803680B2BAF
:1092CC00F2D0FDF72BF803680B2BEDD020230025F3
:1092DC00CDE90235FDF722F803680193084B0949E3
:1092EC00009302AA2B463220FCF754FF63691868DE
:1092FC00FCF790FE63694FF0FF321A60D4E700BFB1
:10930C0047AC0B0040AC0B0010B543690446186821
:10931C00002801DBFCF77EFE63694FF0FF321A6018
:10932C006069112200218C3000F0B4FB2046BDE8AE
:10933C001040FFF70BBF10B5002304460160C0F8C6
:10934C0084308830FFF7E6FB204610BD73B5002350
:10935C004FF47A72C0E901320E4A03610260436134
:10936C000446AC200191FAF78EFE051E05F10C06A1
:10937C0008D00123C5E90133074B01992B60304616
:10938C00FFF7D9FF2046C4E90565FFF7DFFE02B001
:10939C0070BD00BF7CAC0B0060AC0B0010B54FF087
:1093AC00FF310446FFF7D2FF204610BD10B504462E
:1093BC000068002801DBFCF72DFE204610BD0C30A8
:1093CC00FFF7F4BF002240681146FCF727BF0022CC
:1093DC0040681146FCF742BF002240681146FCF77A
:1093EC004DBF40680022FCF741BF4068002281F06D
:1093FC000101FCF72BBF002340681A461946FCF705
:10940C001DBF002340681A461946FCF70FBF002207
:10941C0040681146FCF7F2BE406800220221FCF7BE
:10942C00F5BE002340681A46FCF7E0BE024B04224E
:10943C005A60024A1A60704718E70320C8AC0B0048
:10944C00002340681A46FCF7D1BE40680022022176
:10945C00FCF7DCBE002240681146FCF7CFBE0022B0
:10946C0040681146FCF7DABE002340681A461946DC
:10947C00FCF7DCBE002340681A461946FCF7DEBE3A
:10948C0040680021FCF702BF40680021FCF706BFD2
:10949C004068002281F00101FCF7D8BE4068002230
:1094AC00FCF7E4BE002240681146FCF7E7BE002240
:1094BC0040681146FCF7D2BE2DE9F04395B0144636
:1094CC000D460746FFF726FB00211C220DA8009134
:1094DC0000F0E0FA40230C9320466B460CAA0021C6
:1094EC00FCF706FC044600284BD1024601216868B3
:1094FC00FCF794FE0221804622466868FCF78EFE3B
:10950C00009E81462146002E3BD0002939D173683C
:10951C00022B03D00A2B11D0F669F4E7B8F1000F37
:10952C00FAD0716906A8043107ADFFF737FB0FCDF0
:10953C003C1D0FC42B6823704146EDE7B9F1000FB9
:10954C00EAD07469102201A800F0A4FA06238DF861
:10955C00143001AD04F108031834186859682A4610
:10956C0003C20833A3421546F7D101A906A807ADDB
:10957C00FFF7DEFA0FCD3C1D0FC42B682370494654
:10958C00CAE70098FCF7ACFB384615B0BDE8F08391
:10959C00024B034A1A6000225A60704720E70320EE
:1095AC0004AD0B00232813B502D9002002B010BD66
:1095BC00A0F10B03022B1AD8174C2178BFF35B8F49
:1095CC0011F001010BD120460191FAF76FFD0199C1
:1095DC0028B11248FCF7FEFE2046FAF76CFD0F4B43
:1095EC001878FCF76FFD0028DFD10120DEE7012899
:1095FC0009D800F0BDF80021007CFCF7F3FC80F0EA
:10960C000100C0B2D2E709380128EED800F070F89A
:10961C00007CFCF78FFCF2E7ACE60320B0E60320FD
:10962C00232838B504460D460AD8FF2908D0FFF781
:10963C00B9FF28B129462046BDE83840FCF768BB85
:10964C0038BD38B504460D46FCF76AFBFF2810D030
:10965C00062804D84D2323FA00F0C30709D420466A
:10966C00FFF7A0FF28B129462046BDE83840FCF79B
:10967C005FBB38BD2DE9F04190461F4607240646D6
:10968C000D46C4F10701B8F1000F12D147FA01F1F0
:10969C0001F001013046FFF7D4FF01212846FFF706
:1096AC00D0FF00212846FFF7CCFF013CE9D2BDE8F2
:1096BC00F08147FA04F1EBE77047000038B5044637
:1096CC0014252A46002100F0E5F92580402507499C
:1096DC0025812846258200F06FF8044960602846F1
:1096EC0000F06AF8E060204638BD00BF38AD0B00D2
:1096FC0030B50E4D2978BFF35B8F11F0010487B0A4
:10970C0011D12846FAF7D2FC68B101A8FFF7D6FFB1
:10971C0001AA21460648FFF717FB2846FAF7CBFCAF
:10972C00044800F061F9024807B030BD28E7032077
:10973C002CE70320C5960B007047000038B50A4B88
:10974C0003600123044643610849202000F034F8EB
:10975C00202560600549A560284600F02DF8C4E975
:10976C000305204638BD00BF1800010038AD0B00C2
:10977C0030B50E4D2978BFF35B8F11F0010487B023
:10978C0011D12846FAF792FC68B16846FFF7D6FF6C
:10979C006A4621460648FFF717FB2846FAF78BFC6A
:1097AC00044800F021F9024807B030BD44E703201B
:1097BC0048E7032045970B00FAF767BC08B5FCF7A0
:1097CC00A5FD0000014900F0F9B800BF54AD0B0035
:1097DC007FB500241023CDE90234036815469E6939
:1097EC0012686B46CDE90044B0479DF8043003F095
:1097FC000603062B03BF009B2B600120204604B000
:10980C0070BD0098904214BF0120062070470000E4
:10981C0010B5034B0360044600F0CDF8204610BD94
:10982C0094AD0B0010B50446FFF7F2FF204608215B
:10983C00FAF72DFC204610BD2DE9F0411F46DDE95D
:10984C000834DDF8188098450646154607D1079967
:10985C0000F0B4F818B165710020BDE8F08139460C
:10986C00304600F0ABF80028F6D00123C4F8008095
:10987C002571A371F0E738B515461C4600F09EF82B
:10988C0020B10823E36006232560237138BD73B52E
:10989C0005460C4601921E4600F090F850B9032E76
:1098AC0008D82368019A5B692946204602B0BDE8B6
:1098BC007040184702B070BD10B5034B03600446EE
:1098CC00FFF7A6FF204610BDF4AD0B0010B5044603
:1098DC00FFF7F2FF20460C21FAF7D9FB204610BD0A
:1098EC00F7B5089F974205460E4614460AD0A8685D
:1098FC0002680897156A31462246AC4603B0BDE8AB
:10990C00F04060471946019300F058F8019B00287D
:10991C00EDD0062003B0F0BD2DE9F14F0D461946F0
:10992C00DDE90A4BDDE90CA681461746984600F0A6
:10993C0045F890B1002D3460377109DB61198A4507
:10994C000CBF06210121B171002001B0BDE8F08FE0
:10995C000235F9D10123B371F6E7544506D15946C6
:10996C00484600F02BF808B17771EDE7D9F80800FC
:10997C000368CDE90CA6CDE90A4BDC693A464346AF
:10998C002946A44601B0BDE8F04F60472DE9F041EF
:10999C0007460C4615461E46FFF76DFF48B9B868DA
:1099AC0003689F692A4633462146BC46BDE8F04110
:1099BC006047BDE8F081704700207047814208B5D0
:1099CC000ED0406803782A2B0CD049680B782A2BD0
:1099DC0008BF013100F094F8B0FA80F0400908BDDE
:1099EC000120FCE70020FAE7002301461A4618463E
:1099FC0000F04CB90A22002100F03EB9002910B544
:109A0C0091FBF2F402FB141306DB002B01DA013498
:109A1C009B1AC0E9004310BD002BC4BF04F1FF34F6
:109A2C009B18F6E710B501390244904201D1002091
:109A3C0005E0037811F8014FA34201D0181B10BDAB
:109A4C000130F2E70A44914200F1FF3300D1704734
:109A5C0010B511F8014B03F8014F9142F9D110BD2B
:109A6C00884210B501EB020402D98442234607D880
:109A7C00431EA14208D011F8012B03F8012FF8E77F
:109A8C00024401468A4200D110BD13F8014D02F880
:109A9C00014DF7E702440346934200D1704703F8A7
:109AAC00011BF9E738B5104B1D68AB6B0446B3B915
:109ABC001820FCF70BFC0246A86320B90B4B0C4892
:109ACC004221FCF733FC0B490B4BC0E900130B4B49
