:02000002B0004C
:1040000000400B00F8A50B00000006000C000502A4
:084010000401A60F00000000EE
:04401800DC8F0B002E
:10401C0009480A49884208B505D0094A824202D0AB
:10402C00121A04F05FFE0748074A0021121A04F026
:10403C0081FE014808BD00BF9CDA032048A10B009B
:10404C0024DF032024DF0320EDE7032070B5074EA7
:10405C00074C04F039F9A41BA4080025AC4200D18C
:10406C0070BD56F8043B98470135F7E7F8A00B00F4
:10407C0020A10B0000F030B808B500F0FDF8BDE849
:10408C00084004F0D9B801F0CBBD01F0C9BD01F076
:10409C00CFBD000008B5034A03490C2001F01CFDFC
:1040AC00FEE700BF41570B00F08F0B000078B0FA11
:1040BC0080F0400970470123037070470EB403B5BC
:1040CC0003AB002153F8042B019304F046F802B023
:1040DC005DF804EB03B0704770B590B004F000FAD3
:1040EC004FF4165104F0ECF9002001F03BFB43F6C1
:1040FC0098250446002001F035FB001B61F10001FE
:10410C00A84271F1000307D204F0EAF904F0DCF9DB
:10411C0010B901F075FDEDE704F0E2F904F0D4F903
:10412C0002F0C8FB02F010FC02F0C4FB494A4A4DF5
:10413C0001460BA803F05CFD0BA802F070FD02F029
:10414C00B9FB464A01460BA803F052FD0BA802F03E
:10415C0066FD0FCD06AC0FC42E68266006AD0FCDE4
:10416C000BAC0FC40BA8266002F0BCF904460BA8DC
:10417C00002C67D102F0D2F90094ADF8160002239E
:10418C000DF116020321364803F06AF802F092FB97
:10419C000022334902F0E6FC04F0A2F9044602F0D6
:1041AC0089FB014606A802F0D6FB06A90BA8002243
:1041BC0002F035F90B9A2B492046FFF77FFF0BA82D
:1041CC0001F07EFE3C220221274800F0A3FF264886
:1041DC0000F030FF244800F0B5FE01242C23CDE97B
:1041EC000134702300931422204B1F48102101F03E
:1041FC0055F91D4800F01EFF3C221B48022100F01F
:10420C0089FF1948022101F04DFA22461648002177
:10421C0001F04DFA212216491348FFF74FFF1248BF
:10422C0000F008FF104800F08DFE21460A2004F033
:10423C005BFB104800F079FA0E4810B0BDE87040F6
:10424C0000F0ACBA02F06CF9002300930246102384
:10425C00072198E7A0E6032034DF0320F4E00320D5
:10426C0090DF032005900B009CDF032031910B00A5
:10427C001B900B00B4E003202DE9F04F89B002F045
:10428C0019FB4FF4FA7102F0BDFB02F013FB394934
:10429C00DFF8F490384C394D364EDFF8F0B0DFF8DB
:1042AC00F080282202F00AFC89F8000004F018F9CA
:1042BC0099F800203249FFF701FF0027A24699F830
:1042CC000030BB424EDD1F235A46FF2106F1080089
:1042DC0002F0B2F90023062288F8003002FB07A294
:1042EC0098F80010079205290FD83046069102F075
:1042FC0009F896F820302B70DDE9061298F800309A
:10430C005054013388F80030EAE72378FA2B24D193
:10431C006378DA2B21D104F0E3F895F9003004939B
:10432C006379039323790293E3780193A378009341
:10433C00227863781349FFF7C1FE95F900303733C3
:10434C0003DB01210A2004F0E0FA95F900303B333D
:10435C0003DA00210A2004F0D8FA013701350634BB
:10436C002436ACE741F2883009B0BDE8F04F03F0D9
:10437C0037BF00BFFCE00320C2DF0320CCE00320EA
:10438C0027900B0039900B008FDF032070DF032088
:10439C00C1DF03202DE9F0410E4CDFF844800E4EB6
:1043AC000E4F20600D462168A94210DCD8F8002081
:1043BC0089B2304600F09EFB23683A68013399B20B
:1043CC00304600F097FB236802332360EBE7BDE82F
:1043DC00F08100BFC8E00320B4E00320A0DA032082
:1043EC009CDA03202DE9F04792B014460E460546A0
:1043FC0004F076F82146074606A802F0F1F90021F0
:10440C0006A801F07FFF2146059008A802F0E8F904
:10441C00012108A801F076FF214604900AA802F0B9
:10442C00DFF902210AA801F06DFF214680460CA895
:10443C0002F0D6F903210CA801F064FF2146814655
:10444C000EA802F0CDF904210EA801F05BFF214665
:10445C00824610A802F0C4F9052110A801F052FF01
:10446C00CDE90089CDE902A0DDE9043238463249B4
:10447C00DFF8EC80314FFFF721FE0024E3B2B342AA
:10448C0004F1010408D204F02BF898F800303946F6
:10449C00EA5CFFF713FEF1E704F022F82849294EF5
:1044AC00DFF8C080284C294FFFF708FE04F018F8FD
:1044BC002A462749FFF702FE284604F0FFFB002896
:1044CC0014BF01230023234D337014D100210A2083
:1044DC0004F01BFAD8F8002029682068FFF75AFF6F
:1044EC0020683A682968FFF755FF1B4812B0BDE8F1
:1044FC00F04700F042BB01210A2004F006FA03F059
:10450C00EFFF32781549FFF7D9FD134800F035FB62
:10451C00D8F8002029682068FFF73CFF3A68296822
:10452C002068FFF737FF0C4800F038F93378002B80
:10453C00CCD012B0BDE8F08766900B0098900B00C1
:10454C0096900B0024DF03209CE60320A0DA0320C6
:10455C009D900B00A4DA0320B4E00320AA900B007A
:10456C00C0DF03209CDA03202DE9F04F4F4D99B0AA
:10457C0028247F26284601F0EBFE05F1080002F006
:10458C007AFE05F1140002F076FE013C85F82060FD
:10459C0005F12405EED146494648474DDFF8149104
:1045AC0002F03EF84549464802F03AF8454942487F
:1045BC0002F036F80FCD0DF1100BABE80F00B9E897
:1045CC000F002F68CBF800700DF1240804ADA8E89B
:1045DC000F000FCD0EAE0FC6CA46DFF80CC15AF84D
:1045EC0010E9C8F800E0376009AFCCE900440FCF00
:1045FC0013AD0FC513AFC5F800E00EAB6046CDE9A7
:10460C000144314900974FF0100203F0C7F9DFF86D
:10461C00B0C0D9F80090BCE80F000DF1100EAEE858
:10462C000F00BAE80F00DCF800E0CBF800E00DF169
:10463C00240C0DF1100AACE80F00BAE80F000DF1D4
:10464C00380CACE80F00C8F80090DFF8A080C6F872
:10465C0000E00DF1240CC8E90044BCE80F003E4614
:10466C000FC61A4BC5F8009019490294CDE9007396
:10467C004FF004020EAB404603F090F9154802F0DF
:10468C00FAFD022310220F21134800F075F80421C3
:10469C00124800F041FC124B124A9A600220C3E906
:1046AC00004419B0BDE8F04F01F026BAFCE003203D
:1046BC00BC900B0034DF03205CDF0320E1900B0087
:1046CC0048DF032006910B002B910B00F1430B00EC
:1046DC002E910B0090DF0320B4E003209CDF03201D
:1046EC0028DF03200000FFFFA0E60320F4E00320F6
:1046FC0038B50446C0680D4608B101F099FAA379A3
:10470C00062B0CBF0420032010FB05F080B2A08008
:10471C0001F086FAE06028B1A288002104F00AFBBF
:10472C00658038BDA0806080FBE710B50446012190
:10473C00C07904F0D9F8E079002104F0E6F80123FF
:10474C00237010BD37B5037805460C461BB1C079F4
:10475C00002104F0C9F82B78EC715BB1A0B20121F7
:10476C00019004F0C1F80198002103B0BDE830407D
:10477C0004F0CBB803B030BD70B500250446164626
:10478C008371C0E9035505700572FFF7B1FF204630
:10479C003146FFF7D7FF204670BD0000C368002BE1
:1047AC0000F0A4812DE9F04F8379023BDBB2042B9E
:1047BC009CBFBF4A52F8234085B0054688BF3224BF
:1047CC0000F0C0FF2B69C01AA042F9D3B94CAE88D7
:1047DC00D4F800351BB9D4F86035002B7EDBB64C11
:1047EC00D4F8003523B9D4F86035002BC0F26E81B3
:1047FC00B24CD4F80035002B00F04481EB79B04A70
:10480C00B04C1268190102EB0313575CAE495B788C
:10481C00D1F8FC2042F08072C1F8FC20226803F031
:10482C001F0343EA471301273A432260A988D5F8AE
:10483C000C80D4F804909F40002944D04FF0000E17
:10484C0072464FF0A04118F801CB0820802663680F
:10485C009B1A462BFBD96268D1F808351CEA060F67
:10486C0043EA0703C1F808352FD063689B1A282B3D
:10487C00FBD9D1F80C35013843EA07034FEA560649
:10488C00C1F80C35E3D1AB880EF1010E1FFA8EFE88
:10489C007345D8D84FF4307103FB01F163689B1A50
:1048AC00462BFBD96368A3EB09098945C0F0E4806A
:1048BC004FF4967000F03EFFA988D5F80C80D4F820
:1048CC0004900029BAD10A46E8E763689B1A112BB9
:1048DC00CFD863689B1A112BF7D9CAE7D4F8643583
:1048EC00002BBFF67CAFD4F86835002BBFF677AF42
:1048FC00D4F86C35002BBFF672AF3601331D184659
:10490C00009301F08DF900283FF478AFAB88002BB1
:10491C0000F0ED80EA68013B12FA83F702F1FF3EEA
:10492C00002348F2060248F20D011EF801CF1CF0DC
:10493C00800F0CBF93468B461CF0400F0CBF1646E5
:10494C000E461CF0200F0CBF9046884603F101095F
:10495C00CDF80880019603F102081FFA89F9019E2F
:10496C0020F813B01FFA88F820F81960029E20F87E
:10497C00186003F103081CF0100F1FFA88F80CBF25
:10498C0093468B4620F818B003F104081CF0080F6E
:10499C001FFA88F80CBF93468B4620F818B003F129
:1049AC0005081CF0040F1FFA88F80CBF93468B46C1
:1049BC0020F818B003F1080A03F1060807339BB27C
:1049CC001CF0020F1FFA88F80CBF93468B46CDF8EB
:1049DC000CA01CF0010F20F818B015BF20F8131014
:1049EC0020F813201FFA8AF3BDF80C3077459CD1C0
:1049FC00591C023389B29BB249005B004FF400474B
:104A0C004752009AC7522E4B56081F680022142397
:104A1C00C4F80425C4F80C25C4F80835C4F81425CA
:104A2C00C4F81025C4F82005C4F82465C4F828255A
:104A3C00C4F82C25EB7907EB031C1B010121FE5C50
:104A4C009CF8013003F01F0343EA4613C4F86035A9
:104A5C00C4F80015C4F81021A160D4F81031002B53
:104A6C00FBD000234FF0FF32C4F81031C4F80035EE
:104A7C00C4F8602501F0DCF800F064FE286105B094
:104A8C00BDE8F08FD4F86035002BBFF6B7AED4F884
:104A9C006435002BBFF6B2AED4F86835002BBFF6E8
:104AAC00ADAED4F86C35002BBFF6A8AE25E700BF31
:104ABC0078950B0000C0014000100240002002401D
:104ACC00A8E60320001000E000ED00E0D4F8643507
:104ADC00002BBFF68DAED4F86835002BBFF688AE30
:104AEC00D4F86C35002BBFF683AE06E77047042371
:104AFC00022183E743888B42F0B52DD9067AC2F3A5
:104B0C000743C2F30724D5B23EB1734374437543D4
:104B1C00C3F30723C4F307242D0A90F806C0C76813
:104B2C00BCF1060F0CBF042603264E43ACF1020C5D
:104B3C00B919BCF1060F1DD8DFE80CF0041C0804F1
:104B4C000F040400BC554B708D7005E0FE2B28BF84
:104B5C00FE23BB554D708C70F0BDBB554C708D70E9
:104B6C00037A120E13B9D2B2CA70F5E75A43C2F3E4
:104B7C000722F9E7BB554C70E6E78288C068002134
:104B8C0004F0D8B808B500F0ADFD014B186008BDB5
:104B9C00A8E60320F0B5457EBDF81440022D69D07F
:104BAC00032D00F09980012D6CD10589D2432A4444
:104BBC0012B2002A5DDBB0F90850954259DD00298C
:104BCC00BEBF5B181BB20021B0F90A00CD1885429C
:104BDC00C4BF431A1BB2002B4BDDC1F3C400DFF87A
:104BEC0020C102EBC01211F00701DBB20CEB02008A
:104BFC001AD0C1F10805404EEDB2AB42775D3FBF14
:104C0C00A5EB030EFF2646FA0EF637401CF80260A1
:104C1C00012C0CBF3E43BE43AB420CF8026028D3C0
:104C2C0008390B44DBB28030072B19D9012C4FF01B
:104C3C00FF3518BF0025EDB200F180011A46083A85
:104C4C00D2B2072A01F8805C01F18001F7D8A3F1F8
:104C5C000802C2F3C402013200EBC21003F00703D6
:104C6C003BB1264AD25C0378012C0CBF134393430F
:104C7C000370F0BD4589D2432A44CD180189491BE4
:104C8C0012B209B2002AF4DBB0F90A509542F0DDF9
:104C9C000029BEBF5B181BB20021B0F90870CE18FA
:104CAC00BE42C4BF6B1A1BB2002BE2DDD0108025B4
:104CBC0010FB05111248014402F00700012282404A
:104CCC00012CD2B20B440CD18B42D2D011F8010B77
:104CDC00104301F8010CF7E7CD184189491B09B2C3
:104CEC0067E7D243D2B28B42C3D011F8010B10400C
:104CFC0001F8010CF7E700BFB0DA0320A8DA0320B3
:104D0C00B8DA0320F0B5457EBDF81440022D34D03E
:104D1C00032D00F09B80012D37D1D5180289521B31
:104D2C0012B20029C0F29180B0F90A508D4240F3C2
:104D3C008C80002ABEBF9B181BB20022B0F90870F1
:104D4C00D618BE42C4BFAB1A1BB2002B7DDDC810F7
:104D5C00802510FB05224548024401F00700012183
:104D6C008140012CC9B2134475D19A426DD012F80E
:104D7C00010B084302F8010CF7E70589C9432944E4
:104D8C00D5184289521B09B212B200295DDBB0F969
:104D9C0008508D4259DD002ABEBF9B181BB2002261
:104DAC00B0F90A00D5188542C4BF831A1BB2002B78
:104DBC004BDDC2F3C400DFF8B4C001EBC01112F03C
:104DCC000702DBB20CEB01001AD0C2F10805284E29
:104DDC00EDB2AB42775D3FBFA5EB030EFF2646FA63
:104DEC000EF637401CF80160012C0CBF3E43BE434D
:104DFC00AB420CF8016028D3083A1344DBB2803084
:104E0C00072B19D9012C4FF0FF3518BF0025EDB237
:104E1C0000F180011A46083AD2B2072A01F8805CE8
:104E2C0001F18001F7D8A3F10802C2F3C4020132E8
:104E3C0000EBC21003F007033BB10E4AD25C0378BF
:104E4C00012C0CBF134393430370F0BD4589C94338
:104E5C00294409B265E7C943C9B29A42F5D012F8A0
:104E6C00010B084002F8010CF7E700BFB8DA032089
:104E7C00B0DA0320A8DA032070470000F8B50D1E45
:104E8C00064614461F462DDB00F016FCA84229DD11
:104E9C00002C27DB304600F012FCA04222DD30460D
:104EAC0000F008FC02281ED0032825D0012804D1CC
:104EBC003389E2431A442C4615B2002C2246B8BF63
:104ECC00E21DD210802112FB01550E49012204F083
:104EDC0007044B5702FA04F464B297420CBF234305
:104EEC00A3434B55F8BD318972890139E4434D1BFD
:104EFC0014442DB224B2E0E77389013B5B1B2546B9
:104F0C001CB2DAE7B8DA032010B524210446FFF707
:104F1C00BEF8204610BD000038B5402204460D46B0
:104F2C00802100F0A7FA064B2360FF2384F8213080
:104F3C0063774FF6FF73E38384F82050204638BD27
:104F4C0094950B0002484FF48062002103F0F2BEEE
:104F5C00B8DA032013B50B4C2178BFF35B8F11F03B
:104F6C0001010BD120460191FFF7A0F8019928B15E
:104F7C00054800F0D9FE2046FFF79DF8024802B024
:104F8C0010BD00BFACE60320B0E6032007B590F8D7
:104F9C00223043B10191FFF7DDFF019903B05DF8B9
:104FAC0004EB00F075BF0B46817F407F012203B0FC
:104FBC005DF804EB03F0C2BC38B590F91D30013339
:104FCC0004460D461DD090F92100012180B203F05A
:104FDC009CFC94F91F00002180B203F096FC94F91C
:104FEC002100002180B203F090FC29462046FFF7F7
:104FFC00CDFF94F921000121BDE8384080B203F0C7
:10500C0084BC03F019FD94F91B1003F035FB03F07D
:10501C0013FD036800219B68984703F00DFD03689E
:10502C0029469B68984703F007FDBDE8384003F01C
:10503C002ABB0000F8B521210446FFF7BDFF002173
:10504C002046FFF7B9FF7F212046FFF7B5FF22214D
:10505C002046FFF7B1FF00212046FFF7ADFF0721E7
:10506C002046FFF7A9FF94F91D30294F01332AD0B0
:10507C0094F92100012180B203F047FC94F91F0040
:10508C00012180B203F041FC94F92100002180B28F
:10509C0003F03BFC012000F04DFB4FF48065013D1B
:1050AC0017F8011B2046ADB2FFF770FF002DF6D1AB
:1050BC00012000F03FFB94F921000121BDE8F840EC
:1050CC0080B203F022BC002503F0B6FC94F91B104F
:1050DC0003F0D2FA03F0B0FC036840219B689847B8
:1050EC0005F11006B6B203F0A7FC0368795D9B6866
:1050FC0098476B1C9DB2AE42F5D103F09DFC03F0BA
:10510C00C2FAB6F5806F00D1F8BD3546DCE700BFBA
:10511C00B8DA032038B590F91D3001770133044615
:10512C000D46C27600F0C98090F91F00012180B2B3
:10513C0003F0DAFB94F92100012180B203F0D4FBD7
:10514C0094F82230002B00F0A68094F92100012164
:10515C0080B203F0DAFBFFF7FDFE012100F002FE46
:10516C00FFF7F8FE102100F06DFEFFF7F3FE0021B3
:10517C0000F00CFEFFF7EEFE00F0E0FD94F92000CD
:10518C00012180B203F0B0FB94F92000012180B220
:10519C0003F0BBFB012003F023F894F9200000215D
:1051AC0080B203F0B2FB0A2003F01AF894F9200045
:1051BC00012180B203F0A9FB2046AE21FFF7FCFED3
:1051CC002046D521FFF7F8FE20468021FFF7F4FE9C
:1051DC002046A821FFF7F0FE20463F21FFF7ECFE0A
:1051EC002046D321FFF7E8FE20460021FFF7E4FE1E
:1051FC0020464021FFF7E0FE8D212046FFF7DCFE24
:10520C00012D0CBF102114212046FFF7D5FE20469E
:10521C002021FFF7D1FE20460021FFF7CDFE2046CE
:10522C00A121FFF7C9FE2046C821FFF7C5FE204685
:10523C00DA21FFF7C1FE20461221FFF7BDFE8121C6
:10524C002046FFF7B9FE012D0CBF9F21CF21204630
:10525C00FFF7B2FED9212046FFF7AEFE012D0CBFA1
:10526C002221F1212046FFF7A7FE2046DB21FFF784
:10527C00A3FE20464021FFF79FFE2046A421FFF706
:10528C009BFE2046A621FFF797FE2046AF21BDE8E6
:10529C003840FFF791BE94F91D00012180B203F054
:1052AC0023FB94F91E00012180B203F01DFB94F83E
:1052BC002230002B3FF462AF47E703F0BDFB03F055
:1052CC00D1F95BE72DE9F04F85B01F46BDF9388069
:1052DC00BDF83C30A8EB0209A7EB010AB9F1000FAD
:1052EC00B8BFC9F10009BAF1000FB8BFCAF1000A82
:1052FC00D14583460C46154604DD3A462C464746B6
:10530C000D469046BC4205DD2A464546904622464F
:10531C003C4617463E1BB2B20092A8EB050282EA4D
:10532C00E271A1EBE271C6F3C03202FA86F6454592
:10533C00B4BF01224FF0FF32019176100292BC42B1
:10534C001CDCDBF800200393D145D2F81080C7BFDA
:10535C00294622462A4621465846C047019A039BB5
:10536C00B61AB1B236B2002E05DA029A1544009A7A
:10537C0056182DB236B2013424B2E0E705B0BDE8C0
:10538C00F08F2DE9F347BDF82C800768BDF9289004
:10539C00CDF800800446FF6916468A461D46B8477C
:1053AC002368CDF8008009F1FF323244DF695146A1
:1053BC002B46204612B2B8472368CDF800809F696F
:1053CC0032464B4651462046B8476B1E03EB0A014A
:1053DC002368CDF828809D6932464B4609B2204699
:1053EC00AC4602B0BDE8F047604737B5013B13440B
:1053FC000468BDF8185001951BB2009364690B4604
:10540C00A04703B030BD37B5BDF818500468CDE9DE
:10541C000025013B0B4464691BB2A04703B030BDAF
:10542C002DE9F347BDF92890BDF82C80054692462E
:10543C000C46CE18B4420BDA2B68CDF800809F696D
:10544C0021464B46524628460134B84724B2F1E770
:10545C0002B0BDE8F08713B502680191B0F90E10E7
:10546C000091546AB0F90C3000221146A04702B0EA
:10547C0010BD704730B54281C2814FF0FF3200241D
:10548C00054D426101224460056001818181046106
:10549C000283827630BD00BFC89A0B002DE9F04F15
:1054AC0089B0CDE90323BDF94870BDF94C300593A3
:1054BC00FA1DCDE9010148BF07F10E020024BDF829
:1054CC0050304FEAE20B25464FF0800905992AB27D
:1054DC0091422ADD049A02EB040A039A2A444FF003
:1054EC00000812B20FFA88F087421FFA88F119DD12
:1054FC00C0101AF800C001F0070049FA00F01CEACD
:10550C00000F0CD002980144019800680069CDE9A5
:10551C000623064609B20198B047DDE9062308F1D7
:10552C000108DFE701355C44D0E709B0BDE8F08F36
:10553C002DE9F04F2DED028B8DB007460491BDF88F
:10554C0060100591BDF864100691B0F90C10049828
:10555C009DF86850814252DDB7F90E1091424EDD34
:10556C00062111FB0504002C49DD02EBC504002CBF
:10557C0045DD03EB83030B9393B2079308339BB284
:10558C00089100240993052C1CBF2C4B0B9A079EE9
:10559C0016BF1B1900239B5C0393049AABB20A93AE
:1055AC0004FB05F313FA82F31BB204EB020A08EEB8
:1055BC00103AB0460FFA85F90FFA8AFA039BDB070B
:1055CC002FD5012D3B681FD1D3F810B0059B32B2FB
:1055DC0051463846D847039B5B0803930A9B013618
:1055EC009844099BB6B2B3421FFA88F8E6D1089BDF
:1055FC00013B013413F0FF0364B20893C3D10DB027
:10560C00BDEC028BBDE8F08F059ACDE9009218EE47
:10561C00101AD3F824B00FFA88F24B463846D84704
:10562C00D9E7DDE905239342D5D0012D3B6803D1A1
:10563C00D3F810B0069BCAE7069AE6E7C4950B00B0
:10564C0030B50A2985B0044607D1027E638A03EB84
:10565C00C20363820023238221E00D291FD0037E25
:10566C000293C38A0193838A0093B0F912200B46EC
:10567C00B0F91010FFF75CFF207E238A00EB40018D
:10568C0003EB4103A17E1BB20246238239B1B4F96C
:10569C000C106FF0050505FB00118B42D6DC0120C8
:1056AC0005B030BD012938BF0121017670478182D8
:1056BC00C2827047407E7047B0F90C007047B0F959
:1056CC000E00704708B5024B1B689B68019308BD20
:1056DC006802030008B5024B1B68DB68019308BD28
:1056EC006802030008B5024B1B681B68019308BDD8
:1056FC002C02030008B5024B1B689B68019308BD84
:10570C002C02030008B5024B1B68DB68019308BD33
:10571C002C02030008B5024B1B681B69019308BDE2
:10572C002C02030008B5024B1B685B68019308BD93
:10573C001802030008B5024B1B68DB68019308BD17
:10574C001802030008B5024B1B681B69019308BDC6
:10575C001802030008B5024B1B685B69019308BD76
:10576C001802030008B5024B1B68DB6D019308BDE2
:10577C001802030008B5024B1B689B68019308BD17
:10578C007802030008B5024B1B68DB69019308BD66
:10579C007802030008B5024B1B681B6D019308BD12
:1057AC007802030008B5024B1B689B6D019308BD82
:1057BC007802030008B5024B1B681B6E019308BDF1
:1057CC007802030008B5024B1B685B6F019308BDA0
:1057DC007802030008B5024B1B689B6F019308BD50
:1057EC007802030008B5024B1B68DB6F019308BD00
:1057FC007802030008B5034B1B68D3F8843001937F
:10580C0008BD00007802030008B5034B1B68D3F8F1
:10581C009830019308BD00007802030008B5034BD3
:10582C001B68D3F8A830019308BD00007802030070
:10583C0008B5034B1B68D3F8EC30019308BD00008E
:10584C007802030008B5034B1B68D3F8F0300193C2
:10585C0008BD00007802030008B5024B1B685B6CA6
:10586C00019308BD4802030008B5024B1B68DB6CB2
:10587C00019308BD4802030008B5024B1B685B6D21
:10588C00019308BD4802030008B5024B1B685B6915
:10589C00019308BD6402030008B5024B1B68DB686A
:1058AC00019308BD3C02030008B5024B1B681B6941
:1058BC00019308BD3C02030008B5024B1B685B69F1
:1058CC00019308BD3C02030008B5024B1B689B69A1
:1058DC00019308BD3C02030008B5024B1B68DB6951
:1058EC00019308BD3C02030008B5024B1B681B6A00
:1058FC00019308BD3C02030008B5024B1B689B6A70
:10590C00019308BD3C02030008B5024B1B681B6CDD
:10591C00019308BD3C02030008B5024B1B68DB6811
:10592C00019308BD2802030008B5024B1B689B6954
:10593C00019308BD2802030008B5024B1B68DB6904
:10594C00019308BD2802030008B5024B1B681B6AB3
:10595C00019308BD2802030008B5024B1B685B6A63
:10596C00019308BD2802030008B5024B1B689B6A13
:10597C00019308BD2802030008B5024B1B68DB6AC3
:10598C00019308BD2802030008B5024B1B681B6B72
:10599C00019308BD2802030008B5024B1B685B6B22
:1059AC00019308BD2802030008B5024B1B681B6C51
:1059BC00019308BD2802030008B5024B1B681B6845
:1059CC00019308BD3002030008B5024B1B689B68AD
:1059DC00019308BD3002030008B5024B1B68DB685D
:1059EC00019308BD3002030008B5024B1B681B690C
:1059FC00019308BD3002030008B5024B1B685B69BC
:105A0C00019308BD3002030008B5024B1B68DB692B
:105A1C00019308BD3002030008B5024B1B681B6ADA
:105A2C00019308BD3002030008B5024B1B685B6A8A
:105A3C00019308BD3002030008B5024B1B681B6CB8
:105A4C00019308BD3002030008B5024B1B685B6C68
:105A5C00019308BD3002030008B5024B1B681B689C
:105A6C00019308BD4C02030008B5024B1B685B6830
:105A7C00019308BD4C02030008B5024B1B681B695F
:105A8C00019308BD4C02030008B5024B1B685B690F
:105A9C00019308BD4C02030008B5024B1B689B69BF
:105AAC00019308BD4C02030008B5024B1B68DB696F
:105ABC00019308BD4C02030008B5024B1B681B6A1E
:105ACC00019308BD4C02030008B5024B1B689B6A8E
:105ADC00019308BD4C02030008B5024B1B685B6BBD
:105AEC00019308BD6002030008B5024B1B681B6DD7
:105AFC00019308BD6002030008B5024B1B685B688C
:105B0C00019308BD2002030008B5024B1B685B69BA
:105B1C00019308BD2002030008B5034B1B68D3F8A2
:105B2C008830019308BD00002002030008B5034B28
:105B3C001B68D3F89430019308BD000020020300C9
:105B4C0008B5024B1B685B68019308BD400203005B
:105B5C0008B5024B1B689B68019308BD400203000B
:105B6C0008B5024B1B68DB68019308BD40020300BB
:105B7C0008B5024B1B681B69019308BD400203006A
:105B8C0008B5024B1B685B69019308BD400203001A
:105B9C0008B5024B1B689B69019308BD40020300CA
:105BAC0008B5024B1B68DB69019308BD400203007A
:105BBC0008B5024B1B681B6A019308BD4002030029
:105BCC0008B5024B1B681B6B019308BD4002030018
:105BDC0008B5024B1B685B6B019308BD40020300C8
:105BEC0008B5024B1B681B6C019308BD40020300F7
:105BFC0008B5024B1B685B6C019308BD40020300A7
:105C0C0008B5024B1B689B68019308BD4402030056
:105C1C0008B5024B1B68DB6B019308BD4402030003
:105C2C0008B5024B1B681B68019308BD1C020300DE
:105C3C0008B5024B1B685B68019308BD1C0203008E
:105C4C0008B5024B1B689B68019308BD1C0203003E
:105C5C0008B5024B1B685B6A019308BD1C0203006C
:105C6C0008B5024B1B68DB6A019308BD1C020300DC
:105C7C0008B5024B1B68DB6B019308BD1C020300CB
:105C8C0008B5024B1B681B6C019308BD1C0203007A
:105C9C0008B5024B1B685B6C019308BD1C0203002A
:105CAC00002240681146FFF783BF0022406811466E
:105CBC00FFF78EBF40680022FFF782BF40680022CA
:105CCC0081F00101FFF76CBF002340681A461946AA
:105CDC00FFF75EBF002340681A461946FFF750BF16
:105CEC00002240681146FFF743BF0022406811466E
:105CFC00FFF72EBF406800220221FFF731BF0023BF
:105D0C0040681A46FFF71CBF024B03225A60024A36
:105D1C001A607047B8E60320009B0B000021FFF7C8
:105D2C0093BE0021FFF788BE10B5044608462170CB
:105D3C00FFF76AFE00236360204610BD13B50446CE
:105D4C000078FFF7EEFF58B9207801904FF6FF71FD
:105D5C00FFF732FE019802B0BDE81040FFF7DEBF3E
:105D6C0002B010BD13B5044600780191FFF7D9FFBE
:105D7C00019948B920780190FFF726FE019802B0EE
:105D8C00BDE81040FFF7CABF02B010BD13B5044602
:105D9C0000780191FFF7C5FF019948B9207801906F
:105DAC00FFF71AFE019802B0BDE81040FFF7B6BF2E
:105DBC0002B010BD400830B5186000241868884245
:105DCC00E5B206D90134082C02D040081860F5E77A
:105DDC000725024B5B5D137030BD00BF349B0B007D
:105DEC002DE9F04188B000230446007802930E465A
:105DFC001746FFF796FF054600BB94F80080014656
:105E0C00142203A802F096FF0B232A4603A940464E
:105E1C00ADF80C30FFF708FE04988DF8075002AB74
:105E2C000DF1070207FB06F1FFF7C4FF20789DF880
:105E3C000710FFF7D9FD2078FFF770FF029808B024
:105E4C00BDE8F08138B5044600780D46FFF769FFD0
:105E5C000346D0B9616899B10C4A12F8010B85421E
:105E6C0002D00133082BF8D10133DBB20122D94027
:105E7C002046FFF7B5FF2078BDE83840FFF74EBF4E
:105E8C0020782946FFF7B0FDF5E738BD349B0B00B1
:105E9C0008B50078FFF7B0FDC0B208BD054B022273
:105EAC001A60054B054A9A600020C3E90000FFF711
:105EBC0023BE00BFCCE60320C0E603200000FFFF9A
:105ECC0010B504460068FFF7B3FE204610BD10B5B0
:105EDC000446006808B1FFF7ABFE0023C4E90133A8
:105EEC00236010BD38B504460D4600680131FFF73C
:105EFC00A7FE10B1C4E90005012038BD10B5036838
:105F0C00044623B143688B4201D3012010BD2046C7
:105F1C00FFF7E8FF0028F9D0A368002BF5D1226821
:105F2C001370F2E737B50D46114601920446FFF7A0
:105F3C00E5FF019A28B92046FFF7C9FF204603B0B8
:105F4C0030BDA2602946206802F0CCFE2268A3680E
:105F5C000021D154F2E7002313B5C0E90033044605
:105F6C008360037341B10846019102F02BFF019944
:105F7C0002462046FFF7D6FF204602B010BD38B5CA
:105F8C00054600680C4668B16A688B689A4207D36C
:105F9C00096802F00FFFA368AB600023A36038BD53
:105FAC00FFF746FE23682B6063686B60A368AB60E9
:105FBC000023C4E90033F1E710B50023C0E9003336
:105FCC00044683600373FFF7DAFF204610BD884256
:105FDC0010B5044605D00B682BB18A681946FFF73B
:105FEC00A1FF204610BDFFF772FFFAE710B50023A2
:105FFC000446C0E9003383600373FFF7E8FF2046D3
:10600C0010BD13B5044659B10846019102F0DAFEF1
:10601C00019902462046FFF785FF204602B010BDCD
:10602C00FFF755FFF9E770B505460E4609B9002094
:10603C0070BD6AB1846814442146FFF75FFF0028E5
:10604C00F5D02868AB683146184402F0B3FEAC605A
:10605C000120EDE707B500238DF80410012201A9FA
:10606C008DF80530FFF7DFFF03B05DF804FB026825
:10607C000B46096862B141B9806860B1107870470D
:10608C00986840B1097848427047104602F088BEC3
:10609C000029F5D10846704708B582688B689A428A
:1060AC0005D1FFF7E4FFB0FA80F0400908BD0020ED
:1060BC00FCE770477047704770470000064B9942E9
:1060CC0010B500F10C0405D0084602F0DFFC0028E6
:1060DC0008BF0024204610BDF89C0B00064B9942CB
:1060EC0010B500F10C0405D0084602F0CFFC0028D6
:1060FC0008BF0024204610BDF89C0B00064B9942AB
:10610C0010B500F10C0405D0084602F0BFFC0028C5
:10611C0008BF0024204610BDF89C0B0010B5682168
:10612C000446FDF7B4FF204610BD10B528210446E7
:10613C00FDF7ADFF204610BD10B530210446FDF72C
:10614C00A6FF204610BD6821FDF7A1BF2821FDF751
:10615C009EBF3021FDF79BBFF0B50025EC1C8C4297
:10616C000DD86E1C445D875D974205D12644B14223
:10617C0005D31D60601CF0BD01342544EEE7002002
:10618C00F9E70000024A03490A20FFF7A5BC00BF4B
:10619C0041570B003C9B0B0030B40D4611461A4680
:1061AC00036809682868D3E90043A44630BC6047FB
:1061BC00012A38B5044602D10B68236003E0022A99
:1061CC0003D0032A0DD0002038BD08200D68FDF740
:1061DC005AFF03460028F0D095E8030083E803003B
:1061EC00EBE700680028EED00821FDF750FFEAE746
:1061FC0010B5836804462BB103220146984700234F
:10620C00C4E9023310BD10B5836804462BB10322D8
:10621C00014698470023C4E9023310BD10B501387C
:10622C0002EB410110F8013F1B0903F13004392C3A
:10623C0088BF03F1370402F8024B037803F00F0315
:10624C0003F13004392C88BF03F13704914202F872
:10625C00014CE7D110BD10B58368044613B103227D
:10626C0001469847204610BD10B504465830FFF73C
:10627C00F2FF04F14800BDE81040FFF721BE10B555
:10628C004368013B0446436063B903689B689847C5
:10629C00A368013BA3602BB923682046DB68BDE8EB
:1062AC001040184710BDA0F13003DAB2092A01D80A
:1062BC0018467047A0F16103052B01D85738704779
:1062CC00A0F14103052B94BF37384FF0FF307047D6
:1062DC0010B500230370044B04461868FFF7C4FA8A
:1062EC0001232370204610BDD8E6032010B5037897
:1062FC0004461BB1024B1868FFF7BEFA204610BDCE
:10630C00D8E60320052994BF405C0020704782B07A
:10631C000346086849686A4603C26A4603CA18609D
:10632C001846596002B0704708B582798B799A4249
:10633C0006D1062202F0C6FCB0FA80F0400908BD76
:10634C000020FCE74FF0FF33036083800020704790
:10635C0008B50246002101604160FFF7F3FF91711F
:10636C00104608BD10B5431D01391C7801F8014FCA
:10637C00834203F1FF33F8D110BD70B5144688B0D9
:10638C001A460D46002948D0A4B101A9FFF7EAFF2F
:10639C009AB103AA062101A8661EFFF73FFF112E32
:1063AC0028BF1126324603A9284602F09BFC002385
:1063BC00AB55741C204608B070BD03AA012101A87E
:1063CC00FFF72CFF3A260DF10F0201210DF105000C
:1063DC008DF80E60FFF722FF0DF1120201210DF175
:1063EC0006008DF81160FFF719FF0DF11502012160
:1063FC000DF107008DF81460FFF710FF06AA0121BC
:10640C0002A88DF81760FFF709FF8DF81A600DF1DF
:10641C001B0201210DF10900BEE70C46CAE710B5BD
:10642C0086B0044613460846122201A9FFF7A5FFC1
:10643C0001A92046FFF78FFD204606B010BD0000D5
:10644C0010B501230361054B024603F1100153F80B
:10645C00044B42F8044B8B42F9D110BD069D0B0046
:10646C0010B50B460446B1B1012A01F110020AD154
:10647C00014653F8040B41F8040B9342F9D1012364
:10648C002361204610BD411E12F8010D01F8010FC9
:10649C009A42F9D1F3E7102202F04CFCF1E738B53F
:1064AC0004460D46FFF7CCFF00232361A58120464F
:1064BC0038BD38B5044615461A46FFF7D1FFA581FD
:1064CC00204638BD08B5026922B98089003818BF4A
:1064DC00012008BD0249102202F0F4FBF6E700BFD0
:1064EC00269D0B000069704738B50C46142200211C
:1064FC00054602F01FFC23691BB9A3892B80284693
:10650C0038BD01232B7421462B4604F1100251F89F
:10651C00040B43F8040B9142F9D1F0E780897047E2
:10652C00704708B502690B699A4206D1102202F035
:10653C00C9FBB0FA80F0400908BD0020FCE7000060
:10654C0001232DE9F3410361344B0C460646024608
:10655C0003F1100153F8040B42F8040B8B42F9D1F0
:10656C0044B32421204602F035FC04284FF00005EA
:10657C0023D1ADF8045001AFA51C063415F8020C5C
:10658C00FFF791FEB0F1000812DB15F8010CFFF7D4
:10659C008AFE00280CDB023540EA0810A54207F8F9
:1065AC00010BEBD19DF8053033739DF804307373F8
:1065BC000023336102B0BDE8F0814FF010082421B4
:1065CC00204602F007FCA84207D84246002130467C
:1065DC0002B0BDE8F04102F0ADBBB8F1000FE9D05C
:1065EC00605DFFF760FE030615D4000108F1FF386B
:1065FC00C7B206F808702421204602F0EBFB0135E7
:10660C00A84208D9605DFFF74EFE40B20028A4BF37
:10661C00384306F808000135D1E700BF069D0B0092
:10662C0013B504460191FFF70BFF20460199FFF7C4
:10663C0087FF204602B010BDF7B5054616461F462B
:10664C000A4601ABD0E90001FFF786FD30F00204E9
:10665C000CD0841EBC4228BF3C463EB101992B682D
:10666C00023122461944304602F03CFB204603B06E
:10667C00F0BD37B513460C4601920A460821054673
:10668C00FFF7DAFF40B9019B22460921284603B0E7
:10669C00BDE83040FFF7D0BF03B030BDF0B50C46BD
:1066AC0089B00C490546FFF756FC1F226946204667
:1066BC00FFF7DFFF064650B16C46002714F8011BAC
:1066CC002846FFF7C7FC10B10137BE42F6D1284669
:1066DC0009B0F0BD97900B0007B5022301AA192150
:1066EC00FFF7AAFF08B1BDF8040003B05DF804FB86
:1066FC0038B54FF6FF730025044643800E22294619
:10670C0005700571063002F015FB04F11400FFF75B
:10671C0097FE04F12800FFF793FE044904F13C00B6
:10672C00FFF719FC6565204638BD00BF97900B003C
:10673C0010B5D0E9063203EBC2029342184606D0DC
:10674C00046824888C4203F10803F6D110BD0020A4
:10675C00FCE700002DE9F0410026066007462820E2
:10676C000C46FDF790FC051E05F10C080FD001231B
:10677C00C5E90133084B2B604046FFF761FE0FCC97
:10678C002E6285F8246046460FC623683360C7E93D
:10679C0000853846BDE8F081C89C0B0070B500251B
:1067AC00056006463020FDF76EFC044688B10123D7
:1067BC00C0E90133094B03604FF6FF7383810E3040
:1067CC00FFF7C6FDC4E90655C4E90855C4E90A55E6
:1067DC00A57574600C343460304670BDE49C0B00BD
:1067EC0037B50D46044601A8FFF772FD2A68D2F8AA
:1067FC0002302360D2F80630636001A8FFF776FD03
:10680C00204603B030BD30B5054687B00C4601A814
:10681C00FFF75EFD2A68236812881B889A420DD107
:10682C00294602A8FFF7DCFF214604A8FFF7D8FF92
:10683C0004A902A8FFF778FD044600B9002401A8BA
:10684C00FFF754FD204607B030BD000010B50446DC
:10685C006420FDF718FC68B10023C0E90033C0E9DF
:10686C000233C0E90433C0E906330362C362C36375
:10687C00C364C365206020B90A4A0B490A20FFF79C
:10688C002BF90020FEF776FF20B1064A07490A20B3
:10689C00FFF722F9216806480022FEF7D3FF2046B5
:1068AC0010BD00BF41570B003C9B0B007A9B0B00AB
:1068BC00B5730B0010B50A4C2378BFF35B8FDB0765
:1068CC000CD42046FDF7F2FB40B10648FFF7BEFFA3
:1068DC002046FDF7F0FB044802F0EAF9014810BD30
:1068EC00D0E60320DCE60320956C0B0030B5036882
:1068FC00093B012B8DB004460D4611D8FFF7DAFF8A
:10690C00A1880068FFF714FF034658B92022CDE98F
:10691C0004200B4A00920B4904AA3220FFF7E4F83A
:10692C000DB030BD6A6D002AFAD0D4E9032105F10F
:10693C004C00CDE90312AC6D04AA03A9A047EFE704
:10694C00BC9B0B00539B0B0008B50020FEF712FFFD
:10695C0000EAE07008BD13B5044600216846CDE995
:10696C000011FEF70FFF6B4603CB206020466160E1
:10697C0002B010BD19B90A460846FEF70BBFD1E9A3
:10698C0000010022F9E7000070B5044618300E46ED
:10699C001546FFF72DFC04F12800FFF734FCC4E981
:1069AC000365002221460348FEF71CFF0028A8BF00
:1069BC00606970BD957E0B0010B504464069FFF709
:1069CC0037F9A068FFF734F9204610BD002247F6CE
:1069DC007F71C0E90022C0E90222C0E90422C0E9AB
:1069EC000E22C0E91022C0E91222C0E91422C0E92B
:1069FC001622C0E91822C0E91B2202620263A0F829
:106A0C006810704730B585B0002410230D46ADF8E2
:106A1C000230214603236846ADF80030CDE901442D
:106A2C000394FEF7D7FE21466846ADF80850FEF7F2
:106A3C00C9FE05B030BD70B5D0E90053044605EB76
:106A4C000316AE4204D02846FFF73AFA1035F8E7A1
:106A5C002068FFF7EDF8204670BD10B504460068BD
:106A6C00FFF7E6F8204610BD70B50446C06DFFF781
:106A7C00DFF8206DFFF7DCF804F1380504F1440071
:106A8C00FFF7EBFF2846FFF7D6FF04F12800FFF7CE
:106A9C00E2FB04F11800FFF7DEFBD4E900532426D7
:106AAC0006FB0356AE4204D02846FFF785FF24357B
:106ABC00F8E72068FFF7BCF8204670BD30B51546E6
:106ACC009FB00C4679B172B101A8FFF77FFF214648
:106ADC002A4601A8FFF758FF044601A8FFF7C4FF98
:106AEC0020461FB030BD014CFAE700BFF2FEFFFF9D
:106AFC0038B5141E4368054602DB62189A4200DD65
:106B0C005C1A2A68501801191A44521A02F0F8F843
:106B1C006A68121B6A6038BD37B50A4604460D46D2
:106B2C0001ABD0E90001FFF717FB024638B1019920
:106B3C002046FFF7DDFF29462046FFF7EDFF03B0A7
:106B4C0030BD10B50C4629B90A460846BDE81040C0
:106B5C00FEF728BE01212046FFF7DEFFD4E9000135
:106B6C000022F3E738B504461546FFF703FF00286B
:106B7C000ADB29462046FFF7E4FF002804DBBDE8CA
:106B8C0038400020FEF716BE38BD000038B5002393
:106B9C000446836008200D46FDF775FA18B12B6882
:106BAC0003606B684360034BE360034B2060A3609E
:106BBC00204638BDA5610B00BD610B000B6803605E
:106BCC0013B15A6801325A60704710B551F8043B42
:106BDC00044640F8043BFFF7F1FF23680BB9FFF7BD
:106BEC00D1FA204610BD10B551F8043B044640F8CC
:106BFC00043BFFF7E3FF204610BD10B551F8043BF2
:106C0C00044640F8043BFFF7D9FF204610BD10B5F1
:106C1C000446006808B1FFF732FB204610BD10B5E2
:106C2C0004460430FFF7F3FF204610BD70B5D0E9E1
:106C3C000053044605EBC306AE4204D0281DFFF7F3
:106C4C00E6FF0835F8E72068FEF7F2FF204670BD36
:106C5C0070B5D0E90053044605EBC306AE4204D030
:106C6C00281DFFF7D4FF0835F8E72068FEF7E0FF92
:106C7C00204670BD10B504462430FFF7E9FF04F13F
:106C8C001800FFF7D3FF10BD70B5174B1C6854B339
:106C9C0004F15400FFF7DFFA04F14400FFF7DBFACC
:106CAC0004F13400FFF7D7FA04F12400FFF7D3FA0C
:106CBC00D4E9065305EBC306AE4204D0281DFFF7FA
:106CCC00A6FF0835F8E7A069FEF7B2FF04F10C0047
:106CDC00FFF7BEFF2046FFF7A9FF20466421BDE861
:106CEC007040FDF7D4B970BDDCE6032013B500236A
:106CFC00D1E90042C1E900330368009304604368A2
:106D0C00426001A80193FFF782FF02B010BD8268B8
:106D1C0010B50AB901F0B6FEBDE81040C3681847BB
:106D2C002DE9F0470023C0E900338360D1F80480DB
:106D3C00984505460F464ADD4FEA0810FEF770FFEE
:106D4C000646002843D0D5E90041A04204EB011AC5
:106D5C0016D9504515D2AAF1100AA4F11009AAEBC4
:106D6C0004040444D1451DD01CB151462046FFF704
:106D7C0023F95046FFF7A4F8AAF1100A103CF1E7EA
:106D8C0010D0B146A2450DD0B9F1000F03D0214669
:106D9C004846FFF711F92046FFF792F8103409F135
:106DAC001009EFE72868FEF743FFC5F808802E604E
:106DBC00D7E9004304EB0318A04506D02146304622
:106DCC00FFF714F910341036F6E77B686B60284631
:106DDC00BDE8F08730B58DB00C4600F1380101A844
:106DEC00FFF79EFF029B002B2FDD04F1140104A87A
:106DFC00FFF754FC04F1080108A8FFF74FFC0A9AAE
:106E0C00069B13431FD0DDE9014504EB0515AC428D
:106E1C0019D004A92046FFF73FF960B1012408A856
:106E2C00FFF74EF804A8FFF74BF801A8FFF703FE95
:106E3C0020460DB030BD204608A9FFF72DF91034BF
:106E4C000028E4D0EAE70024E9E70124EDE7F8B5EF
:106E5C000023C0E9003383604F689F4205460E460D
:106E6C003EDDF800FEF7DCFE0446C8B3D5E90003AE
:106E7C00844200EBC30310D99C420FD2083B1A1A70
:106E8C00A0F1080C22449C4518D01AB11968116065
:106E9C0059685160083B083AF5E70FD00146224685
:106EAC008B420BD03AB1D1F800C0C2F800C0D1F877
:106EBC0004C0C2F804C008310832F1E7FEF7B8FE8E
:106ECC002C60AF60D6E9003103EBC100984206D0CC
:106EDC001A6822605A68626008330834F6E7696001
:106EEC002846F8BD70B504460020C4E90000A06037
:106EFC004E6886420D4612DD7100FEF7A1FE70B1A0
:106F0C002060A660D5E9003203EB42029A4204D01D
:106F1C0033F8021B20F8021BF8E76B68636020460D
:106F2C0070BD10B50379044623B90368186808B11D
:106F3C00FEF77EFE204610BD10B50379044623B93A
:106F4C000368186808B1FEF773FE204610BD0000F8
:106F5C002DE9F043D0F86C808FB00F46B8F1000FDC
:106F6C0072D0056F002D6FD001F114091F23002280
:106F7C00FF214846FFF760FB0837FF230446002239
:106F8C0019463846FFF758FBAC42064606D0AE42CF
:106F9C0030D0002420460FB0BDE8F0832046FEF729
:106FAC003FFE03AB04930023044603908DF814308A
:106FBC0070B92023CDE90630244B009324490346B5
:106FCC0006AA3220FEF790FD04A8FFF7AAFFE1E71E
:106FDC000246FF212B464846FFF72EFB03982A4614
:106FEC00414601F06FFE18B104A8FFF79AFFCEE7F7
:106FFC000124E9E72846FEF713FE002403AB0646FE
:10700C00039004938DF8144078B92023CDE9063011
:10701C000E4B00930E49034606AA3220FEF764FD80
:10702C00344604A8FFF788FFB4E70246FF212B463D
:10703C003846FFF701FB03982A46414601F042FE11
:10704C000028EED10124ECE70124A3E7D49B0B002C
:10705C00539B0B0038B50D1E0446006803DDFEF78C
:10706C00EFFD18B938BDFEF7E3FD00202060A560E8
:10707C000120F7E708B583688B4202DAFFF7EAFFD5
:10708C0008BD0120FCE738B50023C0E9003383605C
:10709C000D4649689942044610DDFFF7DBFF68B1E5
:1070AC00D5E9003122681944994205D00AB1187803
:1070BC00107001330132F7E76B686360204638BD0E
:1070CC0038B50B6803604B68436004460D460830C6
:1070DC000831FFF7D8FF05F1140104F11400FFF794
:1070EC00D2FF95F8203084F82030204638BD1FB5EB
:1070FC00044601A8FFF7C7FF019B029A2068236092
:10710C0063686260039A0293A368A2600190039380
:10711C00FEF78EFD04B010BD2DE9F0410F4641681D
:10712C001D461944836899420446904612DC266831
:10713C0062683E44D21B3146701901F0E1FD2A46CB
:10714C004146304601F0CEFD63682B44636001205C
:10715C00BDE8F081FFF77EFF0028E8D1F8E7134681
:10716C000A46002110B50446416002B10BB900205B
:10717C0010BDFF2B28BFFF23FFF7CEFF0028F7D051
:10718C006068F5E7F8B50D46D0E90113994204465D
:10719C0016460BDA276862687919521B481C01F0F5
:1071AC00AFFD7E55636801336360F8BD0131FFF7B5
:1071BC0051FF0028EED1F8E70A464168FFF7E2BF1D
:1071CC002DE9F74304461D460F4601AB90460A468F
:1071DC00D0E900019DF82890FEF7BEFFAE1C636855
:1071EC000246B9F1000F26D128B333441B1AFF2BEA
:1071FC0009D801992046FFF77BFC61682046314491
:10720C00FFF738FF18B9606803B0BDE8F0836A1C5B
:10721C000199D2B22046FFF7B5FF01993A460131E8
:10722C002046FFF7AFFF01992B464246023120461C
:10723C00FFF772FFE7E7F118FF29E4D82046FFF7C4
:10724C0019FF0028DFD0691CC9B22046FFF7B4FF34
:10725C0039462046FFF7B0FF61682B464246E6E709
:10726C0030B49DF808501AB1029530BCFFF7A8BF96
:10727C00406830BC70471FB50023C0E90033836001
:10728C000622009301238DF80F2019460DF10F02F1
:10729C000446FFF7E5FF204604B010BD8842F8B560
:1072AC0004460D46164614D9904213D2A2F1080694
:1072BC00751AA1F108072C44B74218D01CB13146FD
:1072CC002046FFF79AFC301DFFF7A1FC083E083C56
:1072DC00F2E70CD0B5420AD01CB129462046FFF784
:1072EC008CFC281DFFF793FC08350834F2E7F8BD39
:1072FC00F7B5044646686846FFF77FFCD4E901738E
:10730C009F4212DB0137002F29DDF800FEF788FCC5
:10731C000546F0B1D4E9001201EBC202FFF7BEFF43
:10732C002068FEF785FC2560A7602368626803EB84
:10733C00C60603EBC202314606F10800FFF7AEFFAA
:10734C001EB169463046FFF758FC63680133636031
:10735C00012501A8FFF75BFC284603B0F0BD002512
:10736C00DEE7F8B5D0E9004305460F4604EBC3064B
:10737C00A64205D039462046FFF745FA08B114B9A4
:10738C00F8BD0834F4E7201DFFF741FCD5E90032C5
:10739C0004F1080103EBC2022046FFF77FFF6B6884
:1073AC00013B6B60ECE700002DE9F04105468EB027
:1073BC0003A80C46FEF78CFF2E68F31E0D2B3CD851
:1073CC00DFE813F00E0053003B00D1003B003B0004
:1073DC003B003B003B009B009B009B009B009B00E9
:1073EC0004A8FFF7DBF9049BAA891A806968049842
:1073FC0008310230FEF78BFF04A906A8FFF7FDFB4E
:10740C0006A904F11800FFF773FF054607A8FFF75C
:10741C00FEFB20230693B5B95D4B5E4900933220E9
:10742C002B4606AA0795FEF75FFB049B2946188896
:10743C00FEF7EAF905A8FFF7EAFB03A8FEF756FFEB
:10744C000EB0BDE8F081544A0092002351490793D5
:10745C0006AA0120FEF748FBE36A002BEAD004A938
:10746C0004F12400FFF753FCE4E7A9892046FFF759
:10747C005FF906460028E0D00568D5E906324FF6DC
:10748C00FF71298003EBC2029A4203D053F8080B18
:10749C004180F9E7D5E9037307EBC308B84504D07D
:1074AC00381DFFF7B4FB0837F8E700232B61D5E94B
:1074BC00067307EBC308B84504D0381DFFF7A7FBCC
:1074CC000837F8E70023EB61AB72E36B23B131466D
:1074DC0004F13400FFF71BFC00232022CDE9062326
:1074EC002E4A00922B4906AA0120FEF7FDFA3146DE
:1074FC0004F11800FFF735FF9FE7A9892046FFF735
:10750C0017F9002899D0E36C002B96D000230D2E90
:10751C00ADF8163001D0102E17D1002369681A4629
:10752C0006258DF8153004918DF814200690DDE9B0
:10753C00040109AB8DF81C60089583E80300236DEA
:10754C0006A904F14400984777E70F2E01BF2B7A68
:10755C00696803F0010208250FBFC3F340031A4604
:10756C0019461D46DDE7A9892046FFF7E1F80146DB
:10757C0000283FF462AFE36D002B3FF45EAF6B6805
:10758C00069306AA236E04F15400984755E700BFF2
:10759C00EF9B0B00539B0B00159C0B00329C0B00BC
:1075AC0038B50D1E0446006805DD14216943FEF74D
:1075BC0047FB18B938BDFEF73BFB00202060A560E7
:1075CC000120F7E72DE9F8430024C0E9004484606A
:1075DC0088464968A14207461ADDFFF7E1FFB8B1BA
:1075EC00D8E900934FF0140CD7F800E00CFB039C87
:1075FC0009EB0405AC4508D01EEB04061FBF0FCDEC
:10760C000FC62B6833601434F2E7D8F804307B6073
:10761C003846BDE8F8832DE9F843D1E90087456881
:10762C008368E9199942044617DC142326686268BA
:10763C005D4303FB07F95A432E44521B314606EBBC
:10764C00090001F05DFB4A464146304601F04AFB19
:10765C0063683B446360BDE8F883FFF7A1FF002833
:10766C00E3D1F8E782B070B50C4604A981E80C00B0
:10767C00D0E901139942054617DA142303FB04F1F0
:10768C006A682C685A430C44521AE018214604AE1E
:10769C0001F036FB0FCE0FC4336823606B680133E7
:1076AC006B60BDE8704002B070470131FFF778FFA6
:1076BC000028E2D1F5E72DE9F04F002493B0931E9A
:1076CC00C0E90044DBB205460F4690468460059342
:1076DC0079688C4272DA386807AB4246091B204441
:1076EC00FEF73AFD0646002868D0059B012B2FD8E3
:1076FC00A0F1020B4FEA5B0B4FF000090DF13C0AB5
:10770C00079BCB45234455D03A6803EB49031344FC
:10771C0008A8D9789B7843EA0121FEF7C0FE0DF149
:10772C00200EBEE80F000DF1340CACE80F00DEF8B3
:10773C000030CCF800309AE807008DE807000DAB5C
:10774C000CCB69682846FFF78DFF09F10109D7E7D3
:10775C00A8F10603012B2DD8A0F1020B4FEA1B1B3D
:10776C004FF000090DF13C0ACB45079B22D00233A8
:10777C003968234403EB09130122194408A8FEF7C6
:10778C006FFE0DF1200EBEE80F000DF1340CACE8CD
:10779C000F00DEF80030CCF800309AE807008DE8D6
:1077AC000700DDE90D2369682846FFF75BFF09F147
:1077BC000109D9E7079B1C44344489E7284613B0D8
:1077CC00BDE8F08F30B5002385B0C0E9003383608D
:1077DC000446022201A80D46FFF76DFF01A92046C1
:1077EC00FFF719FF01A8FFF738F90222294601A873
:1077FC00FFF761FF01A92046FFF70DFF01A8FFF776
:10780C002CF90322294601A8FFF755FF01A92046B0
:10781C00FFF701FF01A8FFF720F90622294601A86E
:10782C00FFF749FF01A92046FFF7F5FE01A8FFF776
:10783C0014F90722294601A8FFF73DFF01A92046AC
:10784C00FFF7E9FE01A8FFF708F9204605B030BDA7
:10785C002DE9F04F8BB00C4600F1440101A8FFF765
:10786C00B1FE029B002B4ADD04F1140104A8FFF7C2
:10787C00A9FF04F1080107A8FFF7A4FF059D089EC6
:10788C00002D01DC002E38DD019A029FDDF81080FE
:10789C00DDF81C90142303FB072703FB058503FB72
:1078AC0006969246BA4528D0C346AB4515D05946E4
:1078BC005046FEF736FE0BF1140B04460028F4D0AC
:1078CC0007A8FFF7CAF804A8FFF7C7F801A8FFF745
:1078DC00C4F820460BB0BDE8F08FCB46B34509D0B9
:1078EC0059465046FEF71DFE0BF1140B04460028BA
:1078FC00F4D0E5E70AF1140AD4E70024E0E7012408
:10790C00E4E713B50B460246D0E900016C4684E867
:10791C00030093E8030082E8030094E8030083E883
:10792C00030002B010BD38B505460C46FFF7E9FF61
:10793C00AB68A268AA60A360EB68E268EA60E360E7
:10794C0038BD70B504468CB00E4601921D46FEF74C
:10795C00CFFE2671019904F13C00FEF752FB04F1B5
:10796C004C06CDB1109B029502A904A80393FFF716
:10797C000DF9002308A904A80A93FFF7D4FF314698
:10798C0008A8FFF7D0FF08A8FEF765FC04A8FEF7CF
:10799C0062FC20460CB070BD0695EAE72DE9F04F6D
:1079AC0087B01D46DDE9104380468B4692461299FE
:1079BC0003930022682002910492FCF764FB061EDC
:1079CC0006F10C0918D001223746C6E901220299AA
:1079DC00154A47F8202B039B00915A4651464846BE
:1079EC00FFF7AFFF0FCD0FC72B683B600FCC06F135
:1079FC0034050FC523682B6004A94046CDE90496D5
:107A0C00FFF774F905A8FFF702F9D8F800303BB975
:107A1C00064A07490A2007B0BDE8F04FFEF75CB8EC
:107A2C0007B0BDE8F08F00BFAC9C0B0041570B00BA
:107A3C003C9B0B008842F8B504460D46164614D9FB
:107A4C00904213D2A2F10806751AA1F108072C4432
:107A5C00B74218D01CB131462046FFF7C4F8301D90
:107A6C00FFF7D5F8083E083CF2E70CD0B5420AD037
:107A7C001CB129462046FFF7B6F8281DFFF7C7F8BA
:107A8C0008350834F2E7F8BD70B50E1E054611DD59
:107A9C00F000FEF7C5F8044658B1D5E9001201EB29
:107AAC00C202FFF7C7FF2868FEF7C2F82C60AE6071
:107ABC00012070BD0024F6E773B50446456868469E
:107ACC00FFF791F8D4E90113994210DA2368626840
:107ADC0003EBC50503EBC202294605F10800FFF7CD
:107AEC00A9FF8DB9636801336360012606E001319B
:107AFC002046FFF7C9FF06460028E7D101A8FFF78B
:107B0C0086F8304602B070BD69462846FFF76BF820
:107B1C00E8E78842F8B504460D46164614D990425B
:107B2C0013D2A2F10806751AA1F108072C44B7422A
:107B3C0018D01CB131462046FFF747F8301DFFF72F
:107B4C0066F8083E083CF2E70CD0B5420AD01CB1EE
:107B5C0029462046FFF739F8281DFFF758F8083555
:107B6C000834F2E7F8BD70B50E1E054611DDF000C5
:107B7C00FEF756F8044658B1D5E9001201EBC202E3
:107B8C00FFF7C7FF2868FEF753F82C60AE600120A2
:107B9C0070BD0024F6E773B5044645686846FFF7E8
:107BAC0014F8D4E90113994210DA2368626803EBE4
:107BBC00C50503EBC202294605F10800FFF7A9FF32
:107BCC008DB9636801336360012606E001312046FC
:107BDC00FFF7C9FF06460028E7D101A8FFF717F801
:107BEC00304602B070BD69462846FEF7EEFFE8E766
:107BFC002DE9F04F1746A1B080460AA80E46FEF7B5
:107C0C0067FB3C68237953B939464046FEF7DDFFE4
:107C1C000AA8FEF76BFB404621B0BDE8F08F336835
:107C2C00D3E9035305EBC303039304F1280A04F1CE
:107C3C00140B039B9D4221D0D5F80090584609F1B6
:107C4C001401FEF76EFCB8B109F128015046FEF79D
:107C5C0068FC88B12368D9F80020534033F47F4383
:107C6C000AD12022CDE915235E4A009215AA5E495D
:107C7C003220FDF739FFC7E70835DAE75046FEF743
:107C8C0021FC60B95949012215A815ADFEF7E8FB96
:107C9C000FCDD446ACE80F002B68CCF8003033681D
:107CAC00D3E9005305EBC30B5D45A94651466ED095
:107CBC0055F8080BFEF735FC0028F5D004F1140A32
:107CCC005046FEF7FFFB88B9494B48491A880132E8
:107CDC0092B21A8015A8012315ADFEF7EAFB0FCD61
:107CEC00D446ACE80F002B68CCF80030414B159310
:107CFC002822002116A801F01DF8514604A8FEF711
:107D0C00F3FB04AB18AA0DF1200C18685968154642
:107D1C0003C5083363452A46F7D1186828602379D0
:107D2C008DF85830D9F800309B8AADF87430E36B7D
:107D3C001793314B0022A11D15A8CDE91E34FDF778
:107D4C0077FD00287FF460AF012323703468394637
:107D5C000C340DA8FEF739FF20460DA9FFF71BFFC9
:107D6C0004460EA8FEF753FF002C7FF44DAF2023E2
:107D7C00CDE90D34214B00930DAA234677E7394604
:107D8C004046FEF722FF0CA8FEF741FF40E70BA888
:107D9C00FEF7E0FC514615A8FEF7A6FB0B9A002354
:107DAC00143215A90120FDF739FD0028E7D13568FB
:107DBC000BA90DA8FEF717FF28460DA9FFF77CFEAF
:107DCC0005460EA8FEF723FF002DD8D03268536865
:107DDC00126803F10053013B0CA802EBC309FEF738
:107DEC0016FF6BE7519C0B00539B0B00169D0B0071
:107DFC00D4E6032003002C00F9680B007C9C0B00DC
:107E0C008842F8B504460D46164614D9904213D252
:107E1C00A2F12406751AA1F124072C44B74218D0FC
:107E2C001CB131462046FFF74BF93046FEF7C4FD36
:107E3C00243E243CF2E70CD0B5420AD01CB12946B2
:107E4C002046FFF73DF92846FEF7B6FD24352434CD
:107E5C00F2E7F8BDF8B50E1E054613DD242707FB27
:107E6C0006F0FDF7DDFE044658B1D5E9001207FB1C
:107E7C000212FFF7C5FF2868FDF7DAFE2C60AE6032
:107E8C000120F8BD0024F6E72DE9F0439DB001ADCB
:107E9C00064628460C46FEF75BFA03A8FFF7EBF9FB
:107EAC0006A8FFF7E8F930697169F28913AB03C3CF
:107EBC0085E803003378B1688DF8243006A8FFF705
:107ECC004EF9B289716803A8FFF749F994F9683043
:107EDC007F2B13AF03D09DF924209A425CDB94F9DD
:107EEC0069307F2B03D09DF924209A4254DC04F195
:107EFC0050013846FEF7ABFF149B002B52DD139E4E
:107F0C0006EBC309B14550D030462946FEF70CFAB2
:107F1C00083680460028F5D01398FDF789FEB8F195
:107F2C00000F39D029462046FEF754FFA0B329464E
:107F3C002046FFF78DFC064670B304F15C01384611
:107F4C00FEF7D0FF149B002B12DD06A8FEF7C4FB36
:107F5C00804603A8FEF7C0FBDDE9133203EB4202B7
:107F6C009A4225D033F8021B884501D08842F7D1BC
:107F7C001398FDF75DFE7EB129462046FEF7E8FF1B
:107F8C0050B1236AB3B16369139501336361636ABA
:107F9C00394604F1180098472846FEF70DFD1DB030
:107FAC00BDE8F0834FF00108B6E74FF00008B3E7E7
:107FBC000026DDE7D4F83080B8F1000F07D06369F4
:107FCC00013363612946636B04F12800E3E7D4F8BD
:107FDC000CC0BCF1000F25D06369226901339342B8
:107FEC006361D9D8242253432A4603CA243B0CEBA1
:107FFC0003064CF80300716006F1080003A9FFF7B3
:10800C0076F806A906F11400FFF771F89DF92430F3
:10801C0086F82030D4E904329A42BDD34046FDF7AD
:10802C00E9FBB9E795E803000DF1280888E803009F
:10803C0003A90CA8FFF727F806A90FA8FFF723F848
:10804C009DF824308DF84830414638466668FFF775
:10805C0037F8D4E90113994210DA236861682422B5
:10806C0002FB063606F1240002FB01323146FFF713
:10807C00C7FE86B963680133636005E001312046B1
:10808C00FFF7E8FE0028E8D13846FEF795FC40469D
:10809C00FEF792FC80E739463046FFF711F8E9E726
:1080AC00024800230360FDF7D7BB00BFD8E60320CE
:1080BC00F8B506460D468F180024BD420CD0336827
:1080CC0015F8011B9B6830469847031E01DB1C44C6
:1080DC00F3E7002C08BF1C462046F8BD13B5044638
:1080EC00084659B1019100F06DFE23680199DB68D7
:1080FC000246204602B0BDE81040184702B010BD41
:10810C0003689B68184738B50D210546FFF7F8FF43
:10811C000A2104462846FFF7F3FF204438BD30B54A
:10812C008BB00023012A8DF8243098BF0A2209ACA9
:10813C000D46B1FBF2F101FB125303F0FF03092BC7
:10814C0094BF30333733DBB2AA4204F8013DEFD988
:10815C002146FFF7C3FF0BB030BD2DE9F04186B0CF
:10816C0000AF05460E46381D142114463B60FDF742
:10817C006FFD13280ED8391D2846FFF7AFFF0446B4
:10818C001EB12846FFF7BFFF044420461837BD46F2
:10819C00BDE8F08100F1080323F00703E846ADEBDE
:1081AC00030D2246411C3B686846FDF751FD6946AC
:1081BC002846FFF793FF0446C546E1E7014B024A08
:1081CC001A607047E0E60320369D0B00024B1A68DC
:1081DC00024B1A60704700BFB8DE0320E4E60320B0
:1081EC000021FDF791BC0000014B00229A60704702
:1081FC00E8E60320014B1860704700BFBCDE03208B
:10820C0008B50B4B43B100F06BF903681B69984739
:10821C00002801DDAFF30080064B43B100F0CCFB2E
:10822C0003681B699847002801DDAFF3008008BD87
:10823C00000000000000000008B5FFF7E1FFFDF7AB
:10824C0089FA014B186008BD40E703200548064A2F
:10825C00064908B5121A00F045FD054B054A1A608F
:10826C0008BD00BF00F4032004F4032044A10B005C
:10827C0000F403201E1C279A07B5002300931A460E
:10828C006FF07701FDF752FC03B05DF804FB0000C2
:10829C0007B543880A2B08D0502B0BD1094B1B6810
:1082AC004BB103B05DF804EB1847FFF7E5FF03B0E3
:1082BC005DF804FB002300931A466FF07701FDF77D
:1082CC0035FCF4E7FCE6032010B512480021FDF75D
:1082DC00DFFC114B1A68114B9A42114B0CBF012257
:1082EC0000221A7001D0FFF7B1FFFDF71BFA04460C
:1082FC0000F028FD0B4B13B12046AFF3008000219A
:10830C000848FDF785FCBDE8104007480021FDF743
:10831C0003BC00BF01820B0000F403201E1C279A33
:10832C00F8E60320000000009D820B00704710B59A
:10833C0018210446FBF7ABFE204610BDF0B5037DBB
:10834C00062B8DB00E4600F104074FF0000412D03E
:10835C0000F1080515F8011D0A223046FFF7DFFE73
:10836C00AF42044419D0002CF4D02E213046FFF734
:10837C00C7FE0444EEE72F236A4639460A208DF8DF
:10838C000040FDF781FA684600F01CFD3368024698
:10839C00DB68694630469847044620460DB0F0BD70
:1083AC0010B5054B0446112240F8043B002100F0A7
:1083BC00C1FC204610BD00BF609D0B000346074A60
:1083CC0010B543F8042B01F1100251F8044B43F89B
:1083DC00044B9142F9D10A781A7010BD609D0B00C4
:1083EC0010B59DF8084044EA032343EA024242EAEE
:1083FC00016104234160037510BD000007B5064BF5
:10840C000360CB7800938B784A780978FFF7E8FF04
:10841C0003B05DF804FB00BF609D0B004174704716
:10842C007047704708B50021007CFDF735FB40EA2A
:10843C00E07008BD08B50121007CFDF72DFB40EA7A
:10844C00E07008BD08B5007CFDF71EFB20EAE0706B
:10845C0008BD08B5007CFDF70FFB20EAE07008BDF5
:10846C0013B50446007C0191FDF70EFB0028019921
:10847C0001DC607C20B1207CFDF716FB20EAE0706B
:10848C0002B010BD007CFDF717BB10B514210446DB
:10849C00FBF7FDFD204610BD10B54FF47A73044672
:1084AC0008460021C4E90113044B23600123207406
:1084BC0063741146FDF7D0FA204610BD749D0B0075
:1084CC00007C0022FDF7D0BA007CFDF7FDBA10B598
:1084DC0014220446002100F02DFC204610BD0000A3
:1084EC0010B50F4C88B003A8FFF7F1FF2178BFF34C
:1084FC005B8F11F001010FD120460191FBF7D6FDE6
:10850C00019948B103AA0748FFF7C6FF2046FBF7BD
:10851C00D2FD054800F0CCFB024808B010BD00BFEE
:10852C0000E7032004E703202D840B0070474174FF
:10853C00704708B5007CFDF7DFF920EAE07008BD54
:10854C0008B5007CFDF7B0F920EAE07008BD08B56D
:10855C00007CFDF7B9F940EAE07008BD08B5007C75
:10856C00FDF7AAF940EAE07008BD007CFDF7B4B94C
:10857C0037B5457C04462DB1207C03B0BDE83040B6
:10858C00FDF78AB9007C0191FDF7B6F90028019935
:10859C00F2DC284603B030BD10B514210446FBF7BD
:1085AC0076FD204610BD000010B54FF47A730446DA
:1085BC00084611460022C4E90123044B2360012321
:1085CC0020746374FDF7A0F9204610BDA49D0B0028
:1085DC007047F8B5064615460C468F18BC4206D0B7
:1085EC00336814F8011B9B6830469847F6E7284619
:1085FC00F8BD007C0022FDF7A7B9007C0021FDF737
:10860C00ABB9007C0021FDF7AFB9007C0021FDF770
:10861C00B3B9007C0021FDF7B7B910B5142104469D
:10862C00FBF735FD204610BD38B5044615464FF412
:10863C007A730022C4E90123094B21740846236094
:10864C002946FDF7B1F9BF3008D16B69DB0705D5B9
:10865C006868FDF7EDFAE868FDF7EAFA204638BDE0
:10866C00D49D0B000023007C1A461946FDF754B923
:10867C00007C0022FDF758B9C9B2FFF7F9BF007CA6
:10868C000022FDF759B90121FFF7F9BF002240681C
:10869C001146FDF76DBA002240681146FDF788BA05
:1086AC00002240681146FDF793BA40680022FDF79E
:1086BC0087BA4068002281F00101FDF771BA0023EE
:1086CC0040681A461946FDF763BA002340681A46FB
:1086DC001946FDF755BA002240681146FDF738BA25
:1086EC00406800220221FDF73BBA002340681A467D
:1086FC00FDF726BA024B04225A60024A1A607047F0
:10870C0018E70320FC9D0B00002340681A46FDF778
:10871C0017BA406800220221FDF722BA00224068F5
:10872C001146FDF715BA002240681146FDF720BA34
:10873C00002340681A461946FDF722BA0023406808
:10874C001A461946FDF724BA40680021FDF748BACD
:10875C0040680021FDF74CBA4068002281F001010D
:10876C00FDF71EBA40680022FDF72ABA00224068C5
:10877C001146FDF72DBA002240681146FDF718BAD4
:10878C002DE9F04395B014460D460746FFF708FE59
:10879C0000211C220DA8009100F0CCFA40230C9370
:1087AC0020466B460CAA0021FCF794FF04460028D7
:1087BC004BD1024601216868FDF7DAF902218046A7
:1087CC0022466868FDF7D4F9009E81462146002EAA
:1087DC003BD0002939D17368022B03D00A2B11D05E
:1087EC00F669F4E7B8F1000FFAD0716906A8043104
:1087FC0007ADFFF703FE0FCD3C1D0FC42B68237094
:10880C004146EDE7B9F1000FEAD07469102201A8D6
:10881C0000F090FA06238DF8143001AD04F1080332
:10882C001834186859682A4603C20833A3421546FF
:10883C00F7D101A906A807ADFFF7C0FD0FCD3C1D70
:10884C000FC42B6823704946CAE70098FCF73AFF1F
:10885C00384615B0BDE8F083024B034A1A6000227B
:10886C005A60704720E70320389E0B00232813B56D
:10887C0002D9002002B010BDA0F10B03022B1AD8B4
:10888C00174C2178BFF35B8F11F001010BD12046FF
:10889C000191FBF70BFC019928B11248FDF744FA42
:1088AC002046FBF708FC0F4B1878FDF7B5F80028AD
:1088BC00DFD10120DEE7012809D800F0BDF8002146
:1088CC00007CFDF769F880F00100C0B2D2E70938EE
:1088DC000128EED800F070F8007CFDF705F8F2E7FF
:1088EC00ACE60320B0E60320232838B504460D4639
:1088FC000AD8FF2908D0FFF7B9FF28B1294620462E
:10890C00BDE83840FCF7F6BE38BD38B504460D4618
:10891C00FCF7F8FEFF2810D0062804D84D2323FAC4
:10892C0000F0C30709D42046FFF7A0FF28B1294661
:10893C002046BDE83840FCF7EDBE38BD2DE9F041CE
:10894C0090461F46072406460D46C4F10701B8F1B0
:10895C00000F12D147FA01F101F001013046FFF787
:10896C00D4FF01212846FFF7D0FF00212846FFF74E
:10897C00CCFF013CE9D2BDE8F08147FA04F1EBE70A
:10898C007047000038B5044614252A46002100F033
:10899C00D1F925804025074925812846258200F0FC
:1089AC006FF804496060284600F06AF8E0602046E1
:1089BC0038BD00BF6C9E0B0030B50E4D2978BFF34F
:1089CC005B8F11F0010487B011D12846FBF76EFBC9
:1089DC0068B101A8FFF7D6FF01AA21460648FFF7A8
:1089EC00E3FD2846FBF767FB044800F061F90248F9
:1089FC0007B030BD28E703202CE703208D890B003E
:108A0C007047000038B50A4B0360012304464361EC
:108A1C000849202000F034F8202560600549A56045
:108A2C00284600F02DF8C4E90305204638BD00BFE8
:108A3C00180001006C9E0B0030B50E4D2978BFF369
:108A4C005B8F11F0010487B011D12846FBF72EFB88
:108A5C0068B16846FFF7D6FF6A4621460648FFF71D
:108A6C00E3FD2846FBF727FB044800F021F90248F8
:108A7C0007B030BD44E7032048E703200D8A0B0004
:108A8C00FBF703BB08B5FDF7EBF80000014900F05C
:108A9C00F9B800BF889E0B007FB500241023CDE9E8
:108AAC000234036815469E6912686B46CDE9004492
:108ABC00B0479DF8043003F00603062B03BF009B60
:108ACC002B600120204604B070BD0098904214BF6A
:108ADC00012006207047000010B5034B03600446CC
:108AEC0000F0CDF8204610BDC89E0B0010B5044612
:108AFC00FFF7F2FF20460821FBF7C9FA204610BD0C
:108B0C002DE9F0411F46DDE90834DDF81880984561
:108B1C000646154607D1079900F0B4F818B16571EF
:108B2C000020BDE8F0813946304600F0ABF8002853
:108B3C00F6D00123C4F800802571A371F0E738B595
:108B4C0015461C4600F09EF820B10823E36006236E
:108B5C002560237138BD73B505460C4601921E463F
:108B6C0000F090F850B9032E08D82368019A5B697D
:108B7C002946204602B0BDE87040184702B070BDCF
:108B8C0010B5034B03600446FFF7A6FF204610BD4B
:108B9C00289F0B0010B50446FFF7F2FF20460C216E
:108BAC00FBF775FA204610BDF7B5089F97420546AE
:108BBC000E4614460AD0A86802680897156A314612
:108BCC002246AC4603B0BDE8F0406047194601931D
:108BDC0000F058F8019B0028EDD0062003B0F0BD42
:108BEC002DE9F14F0D461946DDE90A4BDDE90CA6DE
:108BFC0081461746984600F045F890B1002D346038
:108C0C00377109DB61198A450CBF06210121B1714D
:108C1C00002001B0BDE8F08F0235F9D10123B3710A
:108C2C00F6E7544506D15946484600F02BF808B1F2
:108C3C007771EDE7D9F808000368CDE90CA6CDE90A
:108C4C000A4BDC693A4643462946A44601B0BDE8C6
:108C5C00F04F60472DE9F04107460C4615461E467D
:108C6C00FFF76DFF48B9B86803689F692A46334619
:108C7C002146BC46BDE8F0416047BDE8F081704735
:108C8C0000207047814208B50ED0406803782A2B2B
:108C9C000CD049680B782A2B08BF013100F080F802
:108CAC00B0FA80F0400908BD0120FCE70020FAE78B
:108CBC00002301461A46184600F024B90A22002166
:108CCC0000F016B910B501390244904201D10020D0
:108CDC0005E0037811F8014FA34201D0181B10BD19
:108CEC000130F2E70A44914200F1FF3300D17047A2
:108CFC0010B511F8014B03F8014F9142F9D110BD99
:108D0C00884210B501EB020402D98442234607D8ED
:108D1C00431EA14208D011F8012B03F8012FF8E7EC
:108D2C00024401468A4200D110BD13F8014D02F8ED
:108D3C00014DF7E702440346934200D1704703F814
:108D4C00011BF9E738B5104B1D68AB6B0446B3B982
:108D5C001820FCF765FF0246A86320B90B4B0C48A2
:108D6C004221FCF78DFF0B490B4BC0E900130B4B59
:108D7C0083600B23838100210120C2E90401AB6BCA
:108D8C0000221C615A6138BDBCDE0320619F0B00C0
:108D9C00789F0B000E33CDAB34126DE6ECDE050084
:108DAC0010F8012B11F8013B012A28BF9A42F7D089
:108DBC00D01A7047034611F8012B03F8012B002A37
:108DCC00F9D17047034613F8012B002AFBD1181A6E
:108DDC000138704710B5024601448A42134603D04D
:108DEC001C780132002CF8D1181A10BD012B2DE97A
:108DFC00F04701D0242B06D9FCF73AFF1623036069
:108E0C000020BDE8F087DFF8E4C00D462E4615F8CB
:108E1C00014B14F80C7017F00807F7D12D2C32D138
:108E2C002C780127B51C002B5BD0102B09D1302CD2
:108E3C0007D12C7804F0DF04582C4DD16C7810231A
:108E4C00023507F1004808F1FF384FF0000CB8FB71
:108E5C00F3F9664603FB198AA4F1300EBEF1090F33
:108E6C0016D87446A34224DDBCF1000F1EDBB145BD
:108E7C001CD301D1A24519DB06FB03464FF0010CB4
:108E8C0015F8014BE8E72B2C04BF2C78B51CCAE76E
:108E9C00A4F1410EBEF1190F01D8373CE2E7A4F161
:108EAC00610EBEF1190F04D8573CDBE74FF0FF3CC5
:108EBC00E6E7BCF1000F05DA22230360464642B90F
:108ECC0030469EE707B17642002AF9D0BCF1000F7C
:108EDC0000D0691E1160F3E73024002BB1D10823B8
:108EEC00AFE7302CA5D00A23ABE700BFF69F0B00F1
:108EFC0013460A46014602480068FFF777BF00BFD9
:108F0C00BCDE03202DE9F843DFF8B8800646D8F81C
:108F1C0000001F460D46914600F056F8254B1C6884
:108F2C0034B9254C1C60254B13B11B68C4F8883030
:108F3C0063681F2B07DDD8F8000000F047F84FF0EE
:108F4C00FF30BDE8F8834EB3D4F8880088B91C4BC9
:108F5C0023B9D8F8000000F038F8F0E74FF484702B
:108F6C00FCF75EFE0028F4D00023C0E94033C4F8BF
:108F7C008800636840F8239001229A4000EB83013B
:108F8C00D0F800311343C0F80031022EC1F88070C4
:108F9C0002BFD0F804311343C0F804316368D8F829
:108FAC0000005A1C0233626044F8235000F00EF8A3
:108FBC000020C6E7E8E703205CE703200000000080
:108FCC002D5C0B0020DF03207047704770470000BA
:108FDC001D400B0059400B0081400B0085400B00DD
:108FEC000000000043616C6C206F6E207075726520
:108FFC00207669727475616C004172676F6E2042E5
:10900C004C4520416464726573733A25730A0050B1
:10901C006C617954696D652125630025692064654F
:10902C00766963657320666F756E640A00464F55EA
:10903C004E443D253032583A253032583A2530329C
:10904C00583A253032583A253032583A2530325871
:10905C002C525353493D25690A0072656365697644
:10906C00656420646174612066726F6D3A253032DC
:10907C00583A253032583A253032583A2530325841
:10908C003A253032583A253032580A0025303258B9
:10909C00004D6573736167653A2025730A0054753A
:1090AC00726E206F6E20627574746F6E25690A0083
:1090BC0036453430303030312D423541332D463346
:1090CC0039332D453041392D453530453234444303
:1090DC00434139450036453430303030322D42353D
:1090EC0041332D463339332D453041392D453530FB
:1090FC0045323444434341394500364534303030F1
:10910C0030332D423541332D463339332D453041E3
:10911C00392D45353045323444434341394500748B
:10912C007800727800FFFE7FFFFFFFFFFFFFFFFF5D
:10913C003FFFFFFFFC0FFFFFFFFFFFFFFFF01FFFD5
:10914C00FFFFF801FFFFFFFFFFFFFFC01FFFFFFF47
:10915C00F8007FFFFFFFFFFFFF000FFFFFFFF00096
:10916C001FFFFFFFFFFFFC000FFFFFFFF00007FFDB
:10917C00FFFFFFFFF00007FFFFFFF00001FFFFFF05
:10918C00FFFFC00007FFFFFFE000007FFFFFFFFFB6
:10919C00000003FFFFFFE000003FFFFFFFFE0000A9
:1091AC0003FFFFFFC01C001FFFFFFFF8000E03FFB3
:1091BC00FFFFC01F8007FFFFFFF0007E01FFFFFFD6
:1091CC00C03FE003FFFFFFE000FF01FFFFFFC03FD8
:1091DC00F001FFFFFFC003FF01FFFFFFC07FFC009A
:1091EC00F00007000FFF81FFFFFF807FFE000000F3
:1091FC0000001FFF81FFFFFF807FFF800000000049
:10920C007FFF80FFFFFF807FFFC000000000FFFF9B
:10921C0080FFFFFF80FFFF8000000000FFFF80FF4A
:10922C00FFFF80FFFE00000000007FFF80FFFFFFBC
:10923C0080FFFC00000000001FFFC0FFFFFF80FF4D
:10924C00F000000000000FFF80FFFFFF807FE000B8
:10925C000000000003FF80FFFFFF807FC0000000C4
:10926C00000001FF80FFFFFFC07F800000000000B6
:10927C0000FF81FFFFFFC07F000000000000007FA7
:10928C0081FFFFFFC03E000000000000003F01FF17
:10929C00FFFFC03C000000000000001F01FFFFFFAB
:1092AC00C038000000000000000F01FFFFFFE018B5
:1092BC00000000000000000E03FFFFFFE0100000A4
:1092CC0000000000000603FFFFFFE00000000000AC
:1092DC000000000007FFFFFFF0000000000000008E
:1092EC00000007FFFFFFF00000000000000000007E
:1092FC0007FFFFFFF80000000000000000000FFF58
:10930C00FFFFF80000000000000000000FFFFFFF4F
:10931C00FC0000000000000000001FFFFFFFFC002D
:10932C0000000000000000003FFFFFFFFE000000F7
:10933C000000000000003FFFFFFFFF0000000000E6
:10934C00000000007FFFFFFFFF0000000000000096
:10935C0000007FFFFFFFFF00000000000000000086
:10936C007FFFFFFFFF0000000000000000007FFFF8
:10937C00FFFFFF0000000000000000007FFFFFFF68
:10938C00FE0000000000000000007FFFFFFFFE0059
:10939C0000000000000000003FFEFF0FFE00000078
:1093AC000000000000003FF07F80FE000000000085
:1093BC00000000003F01FFF80E000000000000005C
:1093CC000000703FFFFF03000000000000000000E1
:1093DC0060FFFFFFF30000000000000000007FFFB3
:1093EC00FFFFFF0000000000000000007FFFFFFFF8
:1093FC00FF0000000000000000007FFFFF000300E2
:10940C00000000000000000040007F00030000008E
:10941C00000000000000FFFFFFFFFF8000000008BD
:10942C0000000000FFFFFFFFFF800000001E020095
:10943C000000DFFFFFFFE1C0000029FF9E000001DC
:10944C00C1FFFFFF03C000002BFFD4000001E03F71
:10945C00FFE03FE0000037FFE4000003FE03FF8362
:10946C00FFE000001FFFFC000003FFE0FF9FFFE098
:10947C0000001FFFF8000007FFFEFFFFFFF00000D9
:10948C000FFFF8000007FFFFFFFFFFF800000FFFC2
:10949C00F000000FFFFFFFFFFFFC000007FFE000E4
:1094AC00001FFFFFFFFFFFFC000003FFE000003F79
:1094BC00FFFFFFFFFFFE000001FFC000003FFFFFAA
:1094CC00FFFFFFFF000000FF0000007FFFFFFFFF1A
:1094DC00FFFF8000001C000000FFFFFFFFFFFFFFED
:1094EC00C0000000000003FFFFFFFFFFFFFFE000D4
:1094FC000000000007FFFFFFFFFFFFFFF800000068
:10950C0000000FFFFFFFFFFFFFFFFC00000000004B
:10951C001FFFFFFFFFFFFFFFFF00000000007FFFAA
:10952C00FFFFFFFFFFFFFFC000000001FFFFFFFF79
:10953C00FFFFFFFFFFF000000007FFFFFFFFFFFF33
:10954C00FFFFFFFC0000001FFFFFFFFFFFFFFFFFFF
:10955C00FFFF800001FFFFFFFFFFFFFFFFFFFFFF8B
:10956C00FE003FFFFFFFFFFFFF0000002C0100008B
:10957C0018000000F40100002C0100005000000055
:10958C000000000000000000854E0B00154F0B0082
:10959C004D560B00BD800B00894E0B00D1520B00B9
:1095AC00114D0B00A14B0B008F530B002D540B00D6
:1095BC0063540B007F540B0000000000003E5B4F17
:1095CC005B3E3E6B4F6B3E1C3E7C3E1C183C7E3C17
:1095DC00181C577D571C1C5E7F5E1C00183C180025
:1095EC00FFE7C3E7FF0018241800FFE7DBE7FF30B5
:1095FC00483A060E2629792926407F050507407F23
:10960C0005253F5A3CE73C5A7F3E1C1C08081C1C95
:10961C003E7F14227F22145F5F005F5F06097F018B
:10962C007F006689956A606060606094A2FFA29476
:10963C0008047E040810207E201008082A1C080844
:10964C001C2A08081E101010100C1E0C1E0C303892
:10965C003E3830060E3E0E06000000000000005F93
:10966C0000000007000700147F147F14242A7F2AAF
:10967C001223130864623649562050000807030071
:10968C00001C2241000041221C002A1C7F1C2A08BD
:10969C00083E080800807030000808080808000020
:1096AC0060600020100804023E5149453E00427F94
:1096BC00400072494949462141494D331814127FE3
:1096CC001027454545393C4A494931412111090783
:1096DC003649494936464949291E00001400000004
:1096EC0040340000000814224114141414140041D6
:1096FC0022140802015909063E415D594E7C121193
:10970C00127C7F494949363E414141227F414141CA
:10971C003E7F494949417F090909013E4141517345
:10972C007F0808087F00417F41002040413F017FB6
:10973C00081422417F404040407F021C027F7F047E
:10974C0008107F3E4141413E7F090909063E4151C7
:10975C00215E7F09192946264949493203017F01B7
:10976C00033F4040403F1F2040201F3F4038403FB8
:10977C00631408146303047804036159494D4300CE
:10978C007F4141410204081020004141417F040205
:10979C00010204404040404000030708002054549C
:1097AC0078407F284444383844444428384444287A
:1097BC007F385454541800087E090218A4A49C78CD
:1097CC007F0804047800447D40002040403D007F29
:1097DC001028440000417F40007C047804787C0809
:1097EC000404783844444438FC18242418182424DD
:1097FC0018FC7C08040408485454542404043F44C2
:10980C00243C4040207C1C2040201C3C4030403CF0
:10981C0044281028444C9090907C4464544C440050
:10982C0008364100000077000000413608000201B4
:10983C000204023C2623263C1EA1A161123A4040A0
:10984C00207A38545455592155557941215454781E
:10985C0041215554784020545579400C1E527212B7
:10986C00395555555939545454593955545458003F
:10987C0000457C410002457D420001457C40F029B9
:10988C002429F0F0282528F07C5455450020545408
:10989C007C547C0A097F493249494932324848484C
:1098AC0032324A4848303A4141217A3A4240207893
:1098BC00009DA0A07D39444444393D4040403D3C8E
:1098CC0024FF2424487E4943662B2FFC2F2BFF09B1
:1098DC0029F620C0887E09032054547941000044A5
:1098EC007D413048484A32384040227A007A0A0A90
:1098FC00727D0D19317D2629292F28262929292603
:10990C0030484D4020380808080808080808382F47
:10991C0010C8ACBA2F102834FA00007B00000814D1
:10992C002A142222142A1408AA005500AAAA55AAFD
:10993C0055AA000000FF00101010FF00141414FFB3
:10994C00001010FF00FF1010F010F0141414FC00A5
:10995C001414F700FF0000FF00FF1414F404FC14AF
:10996C001417101F10101F101F1414141F001010A8
:10997C0010F0000000001F101010101F101010101D
:10998C00F010000000FF101010101010101010FF3D
:10999C0010000000FF140000FF00FF00001F101754
:1099AC000000FC04F414141710171414F404F4003D
:1099BC0000FF00F714141414141414F700F7141403
:1099CC0014171410101F101F141414F4141010F08A
:1099DC0010F000001F101F0000001F14000000FCFE
:1099EC00140000F010F01010FF10FF141414FF14EA
:1099FC001010101F00000000F010FFFFFFFFFFF021
:109A0C00F0F0F0F0FFFFFF0000000000FFFF0F0F71
:109A1C000F0F0F38444438447C2A2A3E147E02022D
:109A2C000606027E027E0263554941633844443C7B
:109A3C0004407E201E2006027E020299A5E7A5990D
:109A4C001C2A492A1C4C7201724C304A4D4D303044
:109A5C0048784830BC625A463D3E494949007E012F
:109A6C0001017E2A2A2A2A2A44445F444440514A4E
:109A7C00444040444A51400000FF0103E080FF0095
:109A8C000008086B6B083612362436060F090F06D1
:109A9C00000018180000001010003040FF010100F9
:109AAC001F01011E00191D1712003C3C3C3C00001C
:109ABC00000000000000000000000000000000009A
:109ACC00000000004D560B00BD800B00A1400B00A8
