:02000002B0004C
:1040000000400B0068910B00000006000C00050248
:084010000401A60F00000000EE
:04401800EC7F0B002E
:10401C0009480A49884208B505D0094A824202D0AB
:10402C00121A03F06FFE0748074A0021121A03F018
:10403C0091FE014808BD00BF84E10320B88C0B0041
:10404C000CE603200CE60320EDE7032070B5074EC9
:10405C00074C03F049F9A41BA4080025AC4200D17D
:10406C0070BD56F8043B98470135F7E7688C0B0098
:10407C00908C0B0000F030B808B500F0EFF8BDE8FC
:10408C00084003F0E9B801F08BBC01F089BC01F0E9
:10409C008FBC000008B5034A03490C2001F0DCFB7F
:1040AC00FEE700BF05550B0000800B000078B0FA4E
:1040BC0080F0400970470123037070470EB403B5BC
:1040CC0003AB002153F8042B019303F056F802B014
:1040DC005DF804EB03B0704770B58EB003F010FAC6
:1040EC004FF4165103F0FCF9002001F01DFA43F6D1
:1040FC0098250446002001F017FA001B61F100011D
:10410C00A84271F1000307D203F0FAF903F0ECF9BD
:10411C0010B901F035FCEDE703F0F2F903F0E4F926
:10412C0002F084F902F0CCF902F080F9434A444DD4
:10413C00014609A802F0BCFE09A802F076FA02F0CA
:10414C0075F9404A014609A802F0B2FE09A802F02E
:10415C006CFA0FCD04AC0FC42E68266004AD0FCDE5
:10416C0009AC0FC409A8266001F0D4FF044609A8C5
:10417C00002C5BD101F0EAFF0094ADF80E00022395
:10418C000DF10E020321304802F07AFB02F04EF9D9
:10419C0000222D4902F0EDF903F0B2F9044602F0C9
:1041AC0045F9014604A802F092F904A909A80022D5
:1041BC0001F057FF099A25492046FFF77FFF09A810
:1041CC0001F03EFD3C220221214800F0CFFE2048A8
:1041DC0000F05CFE1E4800F0E1FD1D4800F056FEAC
:1041EC003C221B48022100F0C1FE1948022101F0BB
:1041FC003BF917480122002101F03BF92122154916
:10420C001348FFF75BFF124800F040FE104800F027
:10421C00C5FD01210A2003F077FB0F4800F0B1F92E
:10422C000D480EB0BDE8704000F0E4B901F090FF0D
:10423C0000230093024610230721A4E7A0E60320E5
:10424C0010E6032094E603204CE6032015800B00B7
:10425C0058E603202B800B007CE6032070470000FF
:10426C002DE9F0410E4CDFF844800E4E0E4F2060CD
:10427C000D462168A94210DCD8F8002089B23046DE
:10428C0000F064FB23683A68013399B2304600F0C1
:10429C005DFB236802332360EBE7BDE8F08100BFD0
:1042AC0090E603207CE6032088E1032084E10320D0
:1042BC002DE9F04792B014460E46054603F020F95E
:1042CC002146074606A802F047F8002106A801F08F
:1042DC003BFE2146059008A802F03EF8012108A8F3
:1042EC0001F032FE214604900AA802F035F80221B2
:1042FC000AA801F029FE214680460CA802F02CF8F1
:10430C0003210CA801F020FE214681460EA802F0E4
:10431C0023F804210EA801F017FE2146824610A8AE
:10432C0002F01AF8052110A801F00EFECDE9008963
:10433C00CDE902A0DDE904322A49DFF8D080384605
:10434C00FFF7BCFE0024E7B2BE4204F1010406D91B
:10435C0003F0D6F8EA5D4146FFF7B0FEF3E703F051
:10436C00CFF82149214CFFF7A9FE03F0C9F82049E9
:10437C002A46FFF7A3FE284603F0B0FC002814BF22
:10438C0001230023237009D100210A2003F0CDFA68
:10439C00184812B0BDE8F04700F01BBB01210A2001
:1043AC0003F0C3FA03F0ACF822781349134E144D02
:1043BC00FFF784FE0F4800F00CFB124B31681A68B3
:1043CC002868FFF74DFF104B31681A682868FFF713
:1043DC0047FF084800F00EF92378002BD4D012B018
:1043EC00BDE8F08737800B0067800B000CE60320DC
:1043FC006E800B007CE603207B800B008CE103209D
:10440C009CE6032084E1032088E1032069800B00F3
:10441C002DE9F04F3E4C3F4D3F49404E99B0204660
:10442C0001F016FF3E49284601F012FF3D49304687
:10443C0001F00EFF0FCE4FF0100A0DEB0A070FC75D
:10444C00D6F80090C7F8009027460FCF09AE0FC6DC
:10445C000DEB0A0BBBE80F00D7F800E0C6F800E044
:10446C000EAE0FC6DFF8D8C0C6F800904FF00008AB
:10447C000DF12409CCE90088B9E80F0013AE0FC682
:10448C00C6F800E013AE0EAB52466046CDE901888B
:10449C002549009602F0E2FB0FCD0DEB0A0EAEE8BB
:1044AC000F000FCCD5F800C03F68CEF800C009ADA6
:1044BC000FC52F600DEB0A050FCD0EAC0FC4DFF846
:1044CC0084E0C4F800C009ADCEE900880FCD3446B5
:1044DC000FC4164B27604FF0040970464A46CDE9CD
:1044EC0000631349CDF808800EAB02F0B7FB1148FE
:1044FC0002F0D1F9022352460F210F4800F068F860
:10450C000E48494619B0BDE8F04F00F031BC00BF71
:10451C0010E6032024E603208D800B0038E60320F0
:10452C00B2800B00D7800B00FC800B00BD420B004F
:10453C00FF800B004CE603207CE6032058E60320AA
:10454C00A0E6032094E6032038B50446C0680D4667
:10455C0008B101F02DFAA379062B0CBF042003201F
:10456C0010FB05F080B2A08001F01AFAE06028B1CF
:10457C00A288002103F0EEFB658038BDA08060802E
:10458C00FBE710B504460121C07903F0BDF9E079D1
:10459C00002103F0CAF90123237010BD37B503784D
:1045AC0005460C461BB1C079002103F0ADF92B7800
:1045BC00EC715BB1A0B20121019003F0A5F9019857
:1045CC00002103B0BDE8304003F0AFB903B030BDFB
:1045DC0070B50025044616468371C0E90355057075
:1045EC000572FFF7B1FF20463146FFF7D7FF204693
:1045FC0070BD0000C368002B00F0A4812DE9F04FC2
:10460C008379023BDBB2042B9CBFBF4A52F8234098
:10461C0085B0054688BF322400F076FF2B69C01A9E
:10462C00A042F9D3B94CAE88D4F800351BB9D4F8F4
:10463C006035002B7EDBB64CD4F8003523B9D4F8AA
:10464C006035002BC0F26E81B24CD4F80035002BD3
:10465C0000F04481EB79B04AB04C1268190102EBBE
:10466C000313575CAE495B78D1F8FC2042F08072A2
:10467C00C1F8FC20226803F01F0343EA471301270B
:10468C003A432260A988D5F80C80D4F804909F4056
:10469C00002944D04FF0000E72464FF0A04118F89C
:1046AC0001CB0820802663689B1A462BFBD96268D5
:1046BC00D1F808351CEA060F43EA0703C1F80835A0
:1046CC002FD063689B1A282BFBD9D1F80C350138F5
:1046DC0043EA07034FEA5606C1F80C35E3D1AB8821
:1046EC000EF1010E1FFA8EFE7345D8D84FF43071BF
:1046FC0003FB01F163689B1A462BFBD96368A3EBA0
:10470C0009098945C0F0E4804FF4967000F0F4FE7E
:10471C00A988D5F80C80D4F804900029BAD10A469F
:10472C00E8E763689B1A112BCFD863689B1A112B8F
:10473C00F7D9CAE7D4F86435002BBFF67CAFD4F8B0
:10474C006835002BBFF677AFD4F86C35002BBFF66D
:10475C0072AF3601331D1846009301F021F9002881
:10476C003FF478AFAB88002B00F0ED80EA68013B9A
:10477C0012FA83F702F1FF3E002348F2060248F2D8
:10478C000D011EF801CF1CF0800F0CBF93468B4619
:10479C001CF0400F0CBF16460E461CF0200F0CBF31
:1047AC009046884603F10109CDF80880019603F183
:1047BC0002081FFA89F9019E20F813B01FFA88F835
:1047CC0020F81960029E20F8186003F103081CF011
:1047DC00100F1FFA88F80CBF93468B4620F818B0C0
:1047EC0003F104081CF0080F1FFA88F80CBF93465D
:1047FC008B4620F818B003F105081CF0040F1FFAC3
:10480C0088F80CBF93468B4620F818B003F1080AC1
:10481C0003F1060807339BB21CF0020F1FFA88F84D
:10482C000CBF93468B46CDF80CA01CF0010F20F862
:10483C0018B015BF20F8131020F813201FFA8AF3B4
:10484C00BDF80C3077459CD1591C023389B29BB210
:10485C0049005B004FF400474752009AC7522E4B59
:10486C0056081F6800221423C4F80425C4F80C252C
:10487C00C4F80835C4F81425C4F81025C4F820056C
:10488C00C4F82465C4F82825C4F82C25EB7907EB6B
:10489C00031C1B010121FE5C9CF8013003F01F037B
:1048AC0043EA4613C4F86035C4F80015C4F8102167
:1048BC00A160D4F81031002BFBD000234FF0FF3255
:1048CC00C4F81031C4F80035C4F8602501F070F854
:1048DC0000F01AFE286105B0BDE8F08FD4F8603501
:1048EC00002BBFF6B7AED4F86435002BBFF6B2AED2
:1048FC00D4F86835002BBFF6ADAED4F86C35002B70
:10490C00BFF6A8AE25E700BF04810B0000C0014034
:10491C000010024000200240A8E60320001000E036
:10492C0000ED00E0D4F86435002BBFF68DAED4F862
:10493C006835002BBFF688AED4F86C35002BBFF66B
:10494C0083AE06E770470423022183E743888B423A
:10495C00F0B52DD9067AC2F30743C2F30724D5B2BA
:10496C003EB1734374437543C3F30723C4F3072465
:10497C002D0A90F806C0C768BCF1060F0CBF0426C0
:10498C0003264E43ACF1020CB919BCF1060F1DD82D
:10499C00DFE80CF0041C08040F040400BC554B7039
:1049AC008D7005E0FE2B28BFFE23BB554D708C701F
:1049BC00F0BDBB554C708D70037A120E13B9D2B288
:1049CC00CA70F5E75A43C2F30722F9E7BB554C709E
:1049DC00E6E78288C068002103F0BCB908B500F096
:1049EC0063FD014B186008BDA8E60320F0B5457EB9
:1049FC00BDF81440022D69D0032D00F09980012DD3
:104A0C006CD10589D2432A4412B2002A5DDBB0F97D
:104A1C000850954259DD0029BEBF5B181BB200211E
:104A2C00B0F90A00CD188542C4BF431A1BB2002B43
:104A3C004BDDC1F3C400DFF820C102EBC01211F052
:104A4C000701DBB20CEB02001AD0C1F10805404E95
:104A5C00EDB2AB42775D3FBFA5EB030EFF2646FAE6
:104A6C000EF637401CF80260012C0CBF3E43BE43CF
:104A7C00AB420CF8026028D308390B44DBB280300F
:104A8C00072B19D9012C4FF0FF3518BF0025EDB2BB
:104A9C0000F180011A46083AD2B2072A01F8805C6C
:104AAC0001F18001F7D8A3F10802C2F3C40201326C
:104ABC0000EBC21003F007033BB1264AD25C03782B
:104ACC00012C0CBF134393430370F0BD4589D243B3
:104ADC002A44CD180189491B12B209B2002AF4DB11
:104AEC00B0F90A509542F0DD0029BEBF5B181BB22D
:104AFC000021B0F90870CE18BE42C4BF6B1A1BB2AD
:104B0C00002BE2DDD010802510FB0511124801446A
:104B1C0002F0070001228240012CD2B20B440CD1CE
:104B2C008B42D2D011F8010B104301F8010CF7E7BE
:104B3C00CD184189491B09B267E7D243D2B28B42E7
:104B4C00C3D011F8010B104001F8010CF7E700BFBE
:104B5C0098E1032090E10320A0E10320F0B5457E0D
:104B6C00BDF81440022D34D0032D00F09B80012D94
:104B7C0037D1D5180289521B12B20029C0F291808C
:104B8C00B0F90A508D4240F38C80002ABEBF9B18AE
:104B9C001BB20022B0F90870D618BE42C4BFAB1AC3
:104BAC001BB2002B7DDDC810802510FB052245486B
:104BBC00024401F0070001218140012CC9B21344C9
:104BCC0075D19A426DD012F8010B084302F8010C12
:104BDC00F7E70589C9432944D5184289521B09B204
:104BEC0012B200295DDBB0F908508D4259DD002A64
:104BFC00BEBF9B181BB20022B0F90A00D518854223
:104C0C00C4BF831A1BB2002B4BDDC2F3C400DFF808
:104C1C00B4C001EBC01112F00702DBB20CEB0100C7
:104C2C001AD0C2F10805284EEDB2AB42775D3FBFFA
:104C3C00A5EB030EFF2646FA0EF637401CF8016072
:104C4C00012C0CBF3E43BE43AB420CF8016028D391
:104C5C00083A1344DBB28030072B19D9012C4FF0E2
:104C6C00FF3518BF0025EDB200F180011A46083A55
:104C7C00D2B2072A01F8805C01F18001F7D8A3F1C8
:104C8C000802C2F3C402013200EBC21003F00703A6
:104C9C003BB10E4AD25C0378012C0CBF13439343F7
:104CAC000370F0BD4589C943294409B265E7C9437E
:104CBC00C9B29A42F5D012F8010B084002F8010C67
:104CCC00F7E700BFA0E1032098E1032090E1032067
:104CDC0070470000F8B50D1E064614461F462DDB26
:104CEC0000F0CCFBA84229DD002C27DB304600F07D
:104CFC00C8FBA04222DD304600F0BEFB02281ED0CD
:104D0C00032825D0012804D13389E2431A442C46C8
:104D1C0015B2002C2246B8BFE21DD210802112FB26
:104D2C0001550E49012204F007044B5702FA04F412
:104D3C0064B297420CBF2343A3434B55F8BD318952
:104D4C0072890139E4434D1B14442DB224B2E0E7BF
:104D5C007389013B5B1B25461CB2DAE7A0E10320FB
:104D6C0010B524210446FFF792F9204610BD00002F
:104D7C0038B5402204460D46802100F0A7FA064BB8
:104D8C002360FF2384F8213063774FF6FF73E383AE
:104D9C0084F82050204638BD20810B0002484FF487
:104DAC008062002102F0D6BFA0E1032013B50B4CAA
:104DBC002178BFF35B8F11F001010BD120460191DB
:104DCC00FFF774F9019928B1054800F06DFE2046F3
:104DDC00FFF771F9024802B010BD00BFACE603202A
:104DEC00B0E6032007B590F8223043B10191FFF7EC
:104DFC00DDFF019903B05DF804EB00F009BF0B4631
:104E0C00817F407F012203B05DF804EB02F0A6BD68
:104E1C0038B590F91D30013304460D461DD090F97C
:104E2C002100012180B202F080FD94F91F000021C5
:104E3C0080B202F07AFD94F92100002180B202F0D8
:104E4C0074FD29462046FFF7CDFF94F9210001217E
:104E5C00BDE8384080B202F068BD02F0FDFD94F967
:104E6C001B1002F019FC02F0F7FD036800219B688F
:104E7C00984702F0F1FD036829469B68984702F0B9
:104E8C00EBFDBDE8384002F00EBC0000F8B5212166
:104E9C000446FFF7BDFF00212046FFF7B9FF7F2135
:104EAC002046FFF7B5FF22212046FFF7B1FF002176
:104EBC002046FFF7ADFF07212046FFF7A9FF94F925
:104ECC001D30294F01332AD094F92100012180B2E1
:104EDC0002F02BFD94F91F00012180B202F025FD98
:104EEC0094F92100002180B202F01FFD012000F096
:104EFC0003FB4FF48065013D17F8011B2046ADB252
:104F0C00FFF770FF002DF6D1012000F0F5FA94F9AF
:104F1C0021000121BDE8F84080B202F006BD002559
:104F2C0002F09AFD94F91B1002F0B6FB02F094FD0E
:104F3C00036840219B68984705F11006B6B202F051
:104F4C008BFD0368795D9B6898476B1C9DB2AE42E4
:104F5C00F5D102F081FD02F0A6FBB6F5806F00D111
:104F6C00F8BD3546DCE700BFA0E1032038B590F969
:104F7C001D300177013304460D46C27600F0C9801E
:104F8C0090F91F00012180B202F0BEFC94F92100BF
:104F9C00012180B202F0B8FC94F82230002B00F012
:104FAC00A68094F92100012180B202F0BEFCFFF72B
:104FBC00FDFE012100F096FDFFF7F8FE102100F038
:104FCC0001FEFFF7F3FE002100F0A0FDFFF7EEFE5F
:104FDC0000F074FD94F92000012180B202F094FCE1
:104FEC0094F92000012180B202F09FFC012002F014
:104FFC0007F994F92000002180B202F096FC0A20F7
:10500C0002F0FEF894F92000012180B202F08DFC30
:10501C002046AE21FFF7FCFE2046D521FFF7F8FE17
:10502C0020468021FFF7F4FE2046A821FFF7F0FE72
:10503C0020463F21FFF7ECFE2046D321FFF7E8FE88
:10504C0020460021FFF7E4FE20464021FFF7E0FE5A
:10505C008D212046FFF7DCFE012D0CBF1021142101
:10506C002046FFF7D5FE20462021FFF7D1FE204633
:10507C000021FFF7CDFE2046A121FFF7C9FE2046F7
:10508C00C821FFF7C5FE2046DA21FFF7C1FE2046F6
:10509C001221FFF7BDFE81212046FFF7B9FE012D3D
:1050AC000CBF9F21CF212046FFF7B2FED92120460D
:1050BC00FFF7AEFE012D0CBF2221F1212046FFF798
:1050CC00A7FE2046DB21FFF7A3FE20464021FFF779
:1050DC009FFE2046A421FFF79BFE2046A621FFF74A
:1050EC0097FE2046AF21BDE83840FFF791BE94F9FA
:1050FC001D00012180B202F007FC94F91E00012171
:10510C0080B202F001FC94F82230002B3FF462AF25
:10511C0047E702F0A1FC02F0B5FA5BE72DE9F04F8E
:10512C0085B01F46BDF93880BDF83C30A8EB0209AC
:10513C00A7EB010AB9F1000FB8BFC9F10009BAF128
:10514C00000FB8BFCAF1000AD14583460C4615467C
:10515C0004DD3A462C4647460D469046BC4205DDDA
:10516C002A464546904622463C4617463E1BB2B25E
:10517C000092A8EB050282EAE271A1EBE271C6F3A0
:10518C00C03202FA86F64545B4BF01224FF0FF3219
:10519C00019176100292BC421CDCDBF800200393D8
:1051AC00D145D2F81080C7BF294622462A4621464F
:1051BC005846C047019A039BB61AB1B236B2002EBC
:1051CC0005DA029A1544009A56182DB236B20134FB
:1051DC0024B2E0E705B0BDE8F08F2DE9F347BDF848
:1051EC002C800768BDF92890CDF800800446FF6933
:1051FC0016468A461D46B8472368CDF8008009F14B
:10520C00FF323244DF6951462B46204612B2B84772
:10521C002368CDF800809F6932464B4651462046A4
:10522C00B8476B1E03EB0A012368CDF828809D69F3
:10523C0032464B4609B22046AC4602B0BDE8F047B8
:10524C00604737B5013B13440468BDF8185001950D
:10525C001BB2009364690B46A04703B030BD37B551
:10526C00BDF818500468CDE90025013B0B44646976
:10527C001BB2A04703B030BD2DE9F347BDF9289010
:10528C00BDF82C80054692460C46CE18B4420BDA7B
:10529C002B68CDF800809F6921464B465246284624
:1052AC000134B84724B2F1E702B0BDE8F08713B57A
:1052BC0002680191B0F90E100091546AB0F90C30EB
:1052CC0000221146A04702B010BD704730B5428194
:1052DC00C2814FF0FF320024054D4261012244602F
:1052EC0005600181818104610283827630BD00BF3B
:1052FC0054860B002DE9F04F2DED028B8DB0074637
:10530C000491BDF860100591BDF864100691B0F9D8
:10531C000C1004989DF86850814252DDB7F90E10BC
:10532C0091424EDD062111FB0504002C49DD02EBF8
:10533C00C504002C45DD03EB83030B9393B2079359
:10534C0008339BB2089100240993052C1CBF2C4BED
:10535C000B9A079E16BF1B1900239B5C0393049AA0
:10536C00ABB20A9304FB05F313FA82F31BB204EB02
:10537C00020A08EE103AB0460FFA85F90FFA8AFACB
:10538C00039BDB072FD5012D3B681FD1D3F810B041
:10539C00059B32B251463846D847039B5B080393B2
:1053AC000A9B01369844099BB6B2B3421FFA88F89F
:1053BC00E6D1089B013B013413F0FF0364B2089360
:1053CC00C3D10DB0BDEC028BBDE8F08F059ACDE9D1
:1053DC00009218EE101AD3F824B00FFA88F24B464C
:1053EC003846D847D9E7DDE905239342D5D0012DBE
:1053FC003B6803D1D3F810B0069BCAE7069AE6E7E0
:10540C0050810B0030B50A2985B0044607D1027EC5
:10541C00638A03EBC20363820023238221E00D29FC
:10542C001FD0037E0293C38A0193838A0093B0F941
:10543C0012200B46B0F91010FFF75CFF207E238A78
:10544C0000EB400103EB4103A17E1BB20246238219
:10545C0039B1B4F90C106FF0050505FB00118B4246
:10546C00D6DC012005B030BD012938BF0121017601
:10547C0070478182C2827047407E7047B0F90C0041
:10548C007047B0F90E00704708B5024B1B689B685B
:10549C00019308BD6802030008B5024B1B68DB686A
:1054AC00019308BD6802030008B5024B1B681B681A
:1054BC00019308BD2C02030008B5024B1B689B68C6
:1054CC00019308BD2C02030008B5024B1B68DB6876
:1054DC00019308BD2C02030008B5024B1B681B6925
:1054EC00019308BD2C02030008B5024B1B685B68D6
:1054FC00019308BD1802030008B5024B1B68DB685A
:10550C00019308BD1802030008B5024B1B681B6908
:10551C00019308BD1802030008B5024B1B685B69B8
:10552C00019308BD1802030008B5024B1B68DB6D24
:10553C00019308BD1802030008B5024B1B689B6859
:10554C00019308BD7802030008B5024B1B68DB69A8
:10555C00019308BD7802030008B5024B1B681B6D54
:10556C00019308BD7802030008B5024B1B689B6DC4
:10557C00019308BD7802030008B5024B1B681B6E33
:10558C00019308BD7802030008B5034B1B68D3F8E0
:10559C009830019308BD00007802030008B5034B56
:1055AC001B68D3F8A830019308BD000078020300F3
:1055BC0008B5034B1B68D3F8EC30019308BD000011
:1055CC007802030008B5034B1B68D3F8F030019345
:1055DC0008BD00007802030008B5024B1B685B6C29
:1055EC00019308BD4802030008B5024B1B68DB6C35
:1055FC00019308BD4802030008B5024B1B685B6DA4
:10560C00019308BD4802030008B5024B1B685B6997
:10561C00019308BD6402030008B5024B1B68DB68EC
:10562C00019308BD3C02030008B5024B1B681B69C3
:10563C00019308BD3C02030008B5024B1B685B6973
:10564C00019308BD3C02030008B5024B1B689B6923
:10565C00019308BD3C02030008B5024B1B68DB69D3
:10566C00019308BD3C02030008B5024B1B681B6A82
:10567C00019308BD3C02030008B5024B1B689B6AF2
:10568C00019308BD3C02030008B5024B1B681B6C60
:10569C00019308BD3C02030008B5024B1B68DB6894
:1056AC00019308BD2802030008B5024B1B689B69D7
:1056BC00019308BD2802030008B5024B1B68DB6987
:1056CC00019308BD2802030008B5024B1B681B6A36
:1056DC00019308BD2802030008B5024B1B685B6AE6
:1056EC00019308BD2802030008B5024B1B689B6A96
:1056FC00019308BD2802030008B5024B1B68DB6A46
:10570C00019308BD2802030008B5024B1B681B6BF4
:10571C00019308BD2802030008B5024B1B685B6BA4
:10572C00019308BD2802030008B5024B1B681B6CD3
:10573C00019308BD2802030008B5024B1B681B68C7
:10574C00019308BD3002030008B5024B1B689B682F
:10575C00019308BD3002030008B5024B1B68DB68DF
:10576C00019308BD3002030008B5024B1B681B698E
:10577C00019308BD3002030008B5024B1B685B693E
:10578C00019308BD3002030008B5024B1B68DB69AE
:10579C00019308BD3002030008B5024B1B681B6A5D
:1057AC00019308BD3002030008B5024B1B685B6A0D
:1057BC00019308BD3002030008B5024B1B681B6C3B
:1057CC00019308BD3002030008B5024B1B685B6CEB
:1057DC00019308BD3002030008B5024B1B681B681F
:1057EC00019308BD4C02030008B5024B1B685B68B3
:1057FC00019308BD4C02030008B5024B1B681B69E2
:10580C00019308BD4C02030008B5024B1B685B6991
:10581C00019308BD4C02030008B5024B1B689B6941
:10582C00019308BD4C02030008B5024B1B68DB69F1
:10583C00019308BD4C02030008B5024B1B681B6AA0
:10584C00019308BD4C02030008B5024B1B689B6A10
:10585C00019308BD4C02030008B5024B1B685B6B3F
:10586C00019308BD6002030008B5024B1B681B6D59
:10587C00019308BD6002030008B5024B1B685B680E
:10588C00019308BD2002030008B5024B1B685B693D
:10589C00019308BD2002030008B5034B1B68D3F825
:1058AC008830019308BD00002002030008B5034BAB
:1058BC001B68D3F89430019308BD0000200203004C
:1058CC0008B5024B1B685B68019308BD40020300DE
:1058DC0008B5024B1B689B68019308BD400203008E
:1058EC0008B5024B1B68DB68019308BD400203003E
:1058FC0008B5024B1B681B69019308BD40020300ED
:10590C0008B5024B1B685B69019308BD400203009C
:10591C0008B5024B1B689B69019308BD400203004C
:10592C0008B5024B1B68DB69019308BD40020300FC
:10593C0008B5024B1B681B6A019308BD40020300AB
:10594C0008B5024B1B681B6B019308BD400203009A
:10595C0008B5024B1B685B6B019308BD400203004A
:10596C0008B5024B1B681B6C019308BD4002030079
:10597C0008B5024B1B685B6C019308BD4002030029
:10598C0008B5024B1B689B68019308BD44020300D9
:10599C0008B5024B1B68DB6B019308BD4402030086
:1059AC0008B5024B1B681B68019308BD1C02030061
:1059BC0008B5024B1B685B68019308BD1C02030011
:1059CC0008B5024B1B689B68019308BD1C020300C1
:1059DC0008B5024B1B685B6A019308BD1C020300EF
:1059EC0008B5024B1B68DB6A019308BD1C0203005F
:1059FC0008B5024B1B68DB6B019308BD1C0203004E
:105A0C0008B5024B1B681B6C019308BD1C020300FC
:105A1C0008B5024B1B685B6C019308BD1C020300AC
:105A2C00002240681146FFF783BF002240681146F0
:105A3C00FFF78EBF40680022FFF782BF406800224C
:105A4C0081F00101FFF76CBF002340681A4619462C
:105A5C00FFF75EBF002340681A461946FFF750BF98
:105A6C00002240681146FFF743BF002240681146F0
:105A7C00FFF72EBF406800220221FFF731BF002341
:105A8C0040681A46FFF71CBF024B03225A60024AB9
:105A9C001A607047B8E603208C860B000021FFF7D4
:105AAC0093BE0021FFF788BE10B50446084621704E
:105ABC00FFF76AFE00236360204610BD13B5044651
:105ACC000078FFF7EEFF58B9207801904FF6FF7180
:105ADC00FFF732FE019802B0BDE81040FFF7DEBFC1
:105AEC0002B010BD13B5044600780191FFF7D9FF41
:105AFC00019948B920780190FFF726FE019802B071
:105B0C00BDE81040FFF7CABF02B010BD13B5044684
:105B1C0000780191FFF7C5FF019948B920780190F1
:105B2C00FFF71AFE019802B0BDE81040FFF7B6BFB0
:105B3C0002B010BD400830B51860002418688842C7
:105B4C00E5B206D90134082C02D040081860F5E7FC
:105B5C000725024B5B5D137030BD00BFC0860B0088
:105B6C002DE9F04188B000230446007802930E46DC
:105B7C001746FFF796FF054600BB94F800800146D8
:105B8C00142203A802F0E6F80B232A4603A9404688
:105B9C00ADF80C30FFF708FE04988DF8075002ABF7
:105BAC000DF1070207FB06F1FFF7C4FF20789DF803
:105BBC000710FFF7D9FD2078FFF770FF029808B0A7
:105BCC00BDE8F08138B5044600780D46FFF769FF53
:105BDC000346D0B9616899B10C4A12F8010B8542A1
:105BEC0002D00133082BF8D10133DBB20122D940AA
:105BFC002046FFF7B5FF2078BDE83840FFF74EBFD1
:105C0C0020782946FFF7B0FDF5E738BDC0860B00BC
:105C1C0008B50078FFF7B0FDC0B208BD054B0222F5
:105C2C001A60054B054A9A600020C3E90000FFF793
:105C3C0023BE00BFCCE60320C0E603200000FFFF1C
:105C4C0010B504460068FFF7B3FE204610BD10B532
:105C5C000446006808B1FFF7ABFE0023C4E901332A
:105C6C00236010BD38B504460D4600680131FFF7BE
:105C7C00A7FE10B1C4E90005012038BD10B50368BA
:105C8C00044623B143688B4201D3012010BD20464A
:105C9C00FFF7E8FF0028F9D0A368002BF5D12268A4
:105CAC001370F2E737B50D46114601920446FFF723
:105CBC00E5FF019A28B92046FFF7C9FF204603B03B
:105CCC0030BDA2602946206802F01CF82268A36847
:105CDC000021D154F2E7002313B5C0E90033044688
:105CEC008360037341B10846019102F073F8019986
:105CFC0002462046FFF7D6FF204602B010BD13B572
:105D0C00044659B10846019102F064F80199024623
:105D1C002046FFF7C7FF204602B010BDFFF797FFE4
:105D2C00F9E770477047704770470000064B99427F
:105D3C0010B500F10C0405D0084601F0B7FE0028A0
:105D4C0008BF0024204610BD68880B00064B994202
:105D5C0010B500F10C0405D0084601F0A7FE002890
:105D6C0008BF0024204610BD68880B00064B9942E2
:105D7C0010B500F10C0405D0084601F097FE002880
:105D8C0008BF0024204610BD68880B0010B56821A0
:105D9C000446FEF77CF9204610BD10B528210446B8
:105DAC00FEF775F9204610BD10B530210446FEF7FC
:105DBC006EF9204610BD6821FEF769B92821FEF75F
:105DCC0066B93021FEF763B9F0B50025EC1C8C42A6
:105DDC000DD86E1C445D875D974205D12644B142B7
:105DEC0005D31D60601CF0BD01342544EEE7002096
:105DFC00F9E70000024A03490A20FFF72DBD00BF56
:105E0C0005550B00C8860B0030B40D4611461A46DA
:105E1C00036809682868D3E90043A44630BC60478E
:105E2C00012A38B5044602D10B68236003E0022A2C
:105E3C0003D0032A0DD0002038BD08200D68FEF7D2
:105E4C0022F903460028F0D095E8030083E803000C
:105E5C00EBE700680028EED00821FEF718F9EAE716
:105E6C0010B5013802EB410110F8013F1B0903F199
:105E7C003004392C88BF03F1370402F8024B037845
:105E8C0003F00F0303F13004392C88BF03F13704FE
:105E9C00914202F8014CE7D110BD10B5836804465D
:105EAC0013B1032201469847204610BD10B5044695
:105EBC005830FFF7F2FF04F14800BDE81040FFF73F
:105ECC00BFBE10B54368013B0446436063B9036829
:105EDC009B689847A368013BA3602BB923682046B5
:105EEC00DB68BDE81040184710BDA0F13003DAB2F2
:105EFC00092A01D818467047A0F16103052B01D877
:105F0C0057387047A0F14103052B94BF37384FF039
:105F1C00FF30704710B500230370044B044618681B
:105F2C00FFF762FB01232370204610BDD8E6032047
:105F3C0010B5037804461BB1024B1868FFF75CFBE5
:105F4C00204610BDD8E60320052994BF405C0020F4
:105F5C00704782B00346086849686A4603C26A46BD
:105F6C0003CA18601846596002B0704708B58279A8
:105F7C008B799A4206D1062201F0B4FEB0FA80F079
:105F8C00400908BD0020FCE74FF0FF33036083801D
:105F9C000020704708B50246002101604160FFF700
:105FAC00F3FF9171104608BD10B5431D01391C78E3
:105FBC0001F8014F834203F1FF33F8D110BD70B5E6
:105FCC00144688B01A460D46002948D0A4B101A940
:105FDC00FFF7EAFF9AB103AA062101A8661EFFF794
:105FEC003FFF112E28BF1126324603A9284601F087
:105FFC0089FE0023AB55741C204608B070BD03AA63
:10600C00012101A8FFF72CFF3A260DF10F02012107
:10601C000DF105008DF80E60FFF722FF0DF1120255
:10602C0001210DF106008DF81160FFF719FF0DF13C
:10603C00150201210DF107008DF81460FFF710FF18
:10604C0006AA012102A88DF81760FFF709FF8DF849
:10605C001A600DF11B0201210DF10900BEE70C467F
:10606C00CAE710B586B0044613460846122201A9A9
:10607C00FFF7A5FF01A92046FFF72DFE204606B02D
:10608C0010BD000010B501230361054B024603F15E
:10609C00100153F8044B42F8044B8B42F9D110BD5C
:1060AC0076880B0010B50B460446B1B1012A01F1FC
:1060BC0010020AD1014653F8040B41F8040B934229
:1060CC00F9D101232361204610BD411E12F8010DA8
:1060DC0001F8010F9A42F9D1F3E7102201F03AFED0
:1060EC00F1E738B5044615461A46FFF7DBFFA581E4
:1060FC00204638BD08B5026922B98089003818BF1E
:10610C00012008BD0249102201F0ECFDF6E700BFAA
:10611C0096880B000069704738B50C461422002194
:10612C00054601F017FE23691BB9A3892B8028466D
:10613C0038BD01232B7421462B4604F1100251F873
:10614C00040B43F8040B9142F9D1F0E780897047B6
:10615C00704708B502690B699A4206D1102201F00A
:10616C00C1FDB0FA80F0400908BD0020FCE700003A
:10617C0001232DE9F3410361344B0C4606460246DC
:10618C0003F1100153F8040B42F8040B8B42F9D1C4
:10619C0044B32421204601F025FE04284FF00005CD
:1061AC0023D1ADF8045001AFA51C063415F8020C30
:1061BC00FFF79BFEB0F1000812DB15F8010CFFF79E
:1061CC0094FE00280CDB023540EA0810A54207F8C3
:1061DC00010BEBD19DF8053033739DF804307373CC
:1061EC000023336102B0BDE8F0814FF01008242188
:1061FC00204601F0F7FDA84207D842460021304660
:10620C0002B0BDE8F04101F0A5BDB8F1000FE9D036
:10621C00605DFFF76AFE030615D4000108F1FF3834
:10622C00C7B206F808702421204601F0DBFD0135C9
:10623C00A84208D9605DFFF758FE40B20028A4BF01
:10624C00384306F808000135D1E700BF76880B000B
:10625C0013B504460191FFF715FF20460199FFF78E
:10626C0087FF204602B010BD38B54FF6FF730025EE
:10627C00044643800E22294605700571063001F054
:10628C0069FD04F11400FFF7FDFE04F12800FFF78F
:10629C00F9FE044904F13C00FFF71DFD656520463D
:1062AC0038BD00BF68800B0010B5D0E9063203EB97
:1062BC00C2029342184606D0046824888C4203F12B
:1062CC000803F6D110BD0020FCE700002DE9F041D9
:1062DC0000260660074628200C46FDF7D4FE051E56
:1062EC0005F10C080FD00123C5E90133084B2B60D5
:1062FC004046FFF7C7FE0FCC2E6285F82460464659
:10630C000FC623683360C7E900853846BDE8F081C5
:10631C0038880B0070B50025056006463020FDF767
:10632C00B2FE044688B10123C0E90133094B036076
:10633C004FF6FF7383810E30FFF72CFEC4E9065530
:10634C00C4E90855C4E90A55A57574600C34346069
:10635C00304670BD54880B0037B50D46044601A875
:10636C00FFF7D8FD2A68D2F802302360D2F8063045
:10637C00636001A8FFF7DCFD204603B030BD30B5EB
:10638C00054687B00C4601A8FFF7C4FD2A682368B0
:10639C0012881B889A420DD1294602A8FFF7DCFF10
:1063AC00214604A8FFF7D8FF04A902A8FFF7DEFDD9
:1063BC00044600B9002401A8FFF7BAFD204607B037
:1063CC0030BD000010B504466420FDF75CFE68B1DA
:1063DC000023C0E90033C0E90233C0E90433C0E94B
:1063EC0006330362C362C363C364C365206020B910
:1063FC000A4A0B490A20FFF72FFA0020FFF79CF8F6
:10640C0020B1064A07490A20FFF726FA21680648F8
:10641C000022FFF7D7F8204610BD00BF05550B0032
:10642C00C8860B0006870B00D5690B0010B50A4C0B
:10643C002378BFF35B8FDB070CD42046FDF736FEC9
:10644C0040B10648FFF7BEFF2046FDF734FE044876
:10645C0001F03EFC014810BDD0E60320DCE6032031
:10646C00A1660B0030B50368093B012B8DB00446C7
:10647C000D4611D8FFF7DAFFA1880068FFF714FF6B
:10648C00034658B92022CDE904200B4A00920B494F
:10649C0004AA3220FFF7E8F90DB030BD6A6D002A6E
:1064AC00FAD0D4E9032105F14C00CDE90312AC6D0F
:1064BC0004AA03A9A047EFE748870B00DF860B006F
:1064CC0008B50020FFF738F800EAE07008BD13B5F6
:1064DC00044600216846CDE90011FFF735F86B46FC
:1064EC0003CB20602046616002B010BD19B90A468A
:1064FC000846FFF731B8D1E900010022F9E738B5B9
:10650C00141E4368054602DB62189A4200DD5C1AD1
:10651C002A68501801191A44521A01F001FC6A68D1
:10652C00121B6A6038BD37B50A4604460D4601ABEE
:10653C00D0E90001FFF748FC024638B1019920462A
:10654C00FFF7DDFF29462046FFF7EDFF03B030BD16
:10655C0010B50C4629B90A460846BDE81040FFF7AD
:10656C0003B801212046FFF7DEFFD4E90001002229
:10657C00F3E738B504461546FFF7B8FF00280ADBE9
:10658C0029462046FFF7E4FF002804DBBDE838402D
:10659C000020FEF7F1BF38BD38B5002304468360F8
:1065AC0008200D46FDF76FFD18B12B6803606B6872
:1065BC004360034BE360034B2060A360204638BD6F
:1065CC00155E0B002D5E0B000B68036013B15A684F
:1065DC0001325A60704710B551F8043B044640F83C
:1065EC00043BFFF7F1FF23680BB9FFF703FC2046D0
:1065FC0010BD10B551F8043B044640F8043BFFF7BE
:10660C00E3FF204610BD10B551F8043B044640F89A
:10661C00043BFFF7D9FF204610BD10B504460068B7
:10662C0008B1FFF74EFC204610BD10B504460430EF
:10663C00FFF7F3FF204610BD70B5D0E900530446B8
:10664C0005EBC306AE4204D0281DFFF7E6FF083564
:10665C00F8E72068FFF7ACF9204670BD70B5D0E9BB
:10666C000053044605EBC306AE4204D0281DFFF7C9
:10667C00D4FF0835F8E72068FFF79AF9204670BD7B
:10668C0010B504462430FFF7E9FF04F11800FFF7BA
:10669C00D3FF10BD70B5174B1C6854B304F15400F4
:1066AC00FFF7FBFB04F14400FFF7F7FB04F13400A8
:1066BC00FFF7F3FB04F12400FFF7EFFBD4E90653DB
:1066CC0005EBC306AE4204D0281DFFF7A6FF083524
:1066DC00F8E7A069FFF76CF904F10C00FFF7BEFFB7
:1066EC002046FFF7A9FF20466421BDE87040FDF766
:1066FC00CEBC70BDDCE6032013B50023D1E900420B
:10670C00C1E900330368009304604368426001A848
:10671C000193FFF782FF02B010BD826810B50AB971
:10672C0001F0C0F9BDE81040C368184738B50D1E1C
:10673C000446006803DDFFF743F918B938BDFFF7CD
:10674C0037F900202060A5600120F7E708B58368C1
:10675C008B4202DAFFF7EAFF08BD0120FCE72DE9C6
:10676C00F0410F4641681D4619448368994204461E
:10677C00904612DC266862683E44D21B3146701982
:10678C0001F0CEFA2A464146304601F0BBFA636866
:10679C002B4463600120BDE8F081FFF7C7FF0028A0
:1067AC00E8D1F8E7F8B50D46D0E901139942044653
:1067BC0016460BDA276862687919521B481C01F0DF
:1067CC00AFFA7E55636801336360F8BD0131FFF7A2
:1067DC00ADFF0028EED1F8E70A464168FFF7E2BFAB
:1067EC002DE9F74304461D460F4601AB90460A4679
:1067FC00D0E900019DF82890FFF7E6FAAE1C63681B
:10680C000246B9F1000F26D128B333441B1AFF2BD3
:10681C0009D801992046FFF772FE61682046314481
:10682C00FFF794FF18B9606803B0BDE8F0836A1CE9
:10683C000199D2B22046FFF7B5FF01993A460131D2
:10684C002046FFF7AFFF01992B4642460231204606
:10685C00FFF785FFE7E7F118FF29E4D82046FFF79B
:10686C0075FF0028DFD0691CC9B22046FFF7B4FFC2
:10687C0039462046FFF7B0FF61682B464246E6E7F3
:10688C0030B49DF808501AB1029530BCFFF7A8BF80
:10689C00406830BC70471FB50023C0E900338360EB
:1068AC000622009301238DF80F2019460DF10F02DB
:1068BC000446FFF7E5FF204604B010BD8842F8B54A
:1068CC0004460D46164614D9904213D2A2F108067E
:1068DC00751AA1F108072C44B74218D01CB13146E7
:1068EC002046FFF790FE301DFFF797FE083E083C50
:1068FC00F2E70CD0B5420AD01CB129462046FFF76E
:10690C0082FE281DFFF789FE08350834F2E7F8BD32
:10691C00F7B5044646686846FFF775FED4E901737F
:10692C009F4212DB0137002F29DDF800FFF738F802
:10693C000546F0B1D4E9001201EBC202FFF7BEFF2D
:10694C002068FFF735F82560A7602368626803EBC1
:10695C00C60603EBC202314606F10800FFF7AEFF94
:10696C001EB169463046FFF74EFE63680133636023
:10697C00012501A8FFF751FE284603B0F0BD002504
:10698C00DEE7F8B5D0E9004305460F4604EBC30635
:10699C00A64205D039462046FFF7F1FC08B114B9E0
:1069AC00F8BD0834F4E7201DFFF737FED5E90032B7
:1069BC0004F1080103EBC2022046FFF77FFF6B686E
:1069CC00013B6B60ECE700002DE9F04105468EB011
:1069DC0003A80C46FFF79EFA2E68F31E0D2B3CD82D
:1069EC00DFE813F00E0053003B00D1003B003B00EE
:1069FC003B003B003B009B009B009B009B009B00D3
:106A0C0004A8FFF787FC049BAA891A80696804987C
:106A1C0008310230FFF79DFA04A906A8FFF7F3FD31
:106A2C0006A904F11800FFF773FF054607A8FFF746
:106A3C00F4FD20230693B5B95D4B5E4900933220DB
:106A4C002B4606AA0795FEF70FFF049B29461888CC
:106A5C00FEF79AFD05A8FFF7E0FD03A8FFF768FA1B
:106A6C000EB0BDE8F081544A0092002351490793BF
:106A7C0006AA0120FEF7F8FEE36A002BEAD004A96F
:106A8C0004F12400FFF749FEE4E7A9892046FFF74B
:106A9C000BFC06460028E0D00568D5E906324FF617
:106AAC00FF71298003EBC2029A4203D053F8080B02
:106ABC004180F9E7D5E9037307EBC308B84504D067
:106ACC00381DFFF7AAFD0837F8E700232B61D5E93D
:106ADC00067307EBC308B84504D0381DFFF79DFDBE
:106AEC000837F8E70023EB61AB72E36B23B1314657
:106AFC0004F13400FFF711FE00232022CDE9062318
:106B0C002E4A00922B4906AA0120FEF7ADFE314613
:106B1C0004F11800FFF735FF9FE7A9892046FFF71E
:106B2C00C3FB002899D0E36C002B96D000230D2ECC
:106B3C00ADF8163001D0102E17D1002369681A4613
:106B4C0006258DF8153004918DF814200690DDE99A
:106B5C00040109AB8DF81C60089583E80300236DD4
:106B6C0006A904F14400984777E70F2E01BF2B7A52
:106B7C00696803F0010208250FBFC3F340031A46EE
:106B8C0019461D46DDE7A9892046FFF78DFB014616
:106B9C0000283FF462AFE36D002B3FF45EAF6B68EF
:106BAC00069306AA236E04F15400984755E700BFDC
:106BBC0060870B00DF860B0086870B00A3870B001A
:106BCC0013B50B460246D0E900016C4684E803007D
:106BDC0093E8030082E8030094E8030083E80300D1
:106BEC0002B010BD38B505460C46FFF7E9FFAB689F
:106BFC00A268AA60A360EB68E268EA60E36038BD53
:106C0C0070B504468CB00E4601921D46FFF72CFB66
:106C1C002671019904F13C00FFF771F804F14C0660
:106C2C00CDB1109B029502A904A80393FFF7B4FC05
:106C3C00002308A904A80A93FFF7D4FF314608A83B
:106C4C00FFF7D0FF08A8FFF728F904A8FFF725F9EC
:106C5C0020460CB070BD0695EAE700002DE9F04F18
:106C6C0087B01D46DDE9104380468B46924612994B
:106C7C0003930022682002910492FDF704FA061E89
:106C8C0006F10C0918D001223746C6E901220299F7
:106C9C00154A47F8202B039B00915A46514648460B
:106CAC00FFF7AEFF0FCD0FC72B683B600FCC06F183
:106CBC0034050FC523682B6004A94046CDE9049622
:106CCC00FFF71AFD05A8FFF7A8FCD8F800303BB970
:106CDC00064A07490A2007B0BDE8F04FFEF7BCBDD5
:106CEC0007B0BDE8F08F00BF1C880B0005550B00EA
:106CFC00C8860B008842F8B504460D46164614D9D2
:106D0C00904213D2A2F10806751AA1F108072C447F
:106D1C00B74218D01CB131462046FFF76AFC301D33
:106D2C00FFF77BFC083E083CF2E70CD0B5420AD0DA
:106D3C001CB129462046FFF75CFC281DFFF76DFCB3
:106D4C0008350834F2E7F8BD70B50E1E054611DDA6
:106D5C00F000FEF725FE044658B1D5E9001201EB10
:106D6C00C202FFF7C7FF2868FEF722FE2C60AE6058
:106D7C00012070BD0024F6E773B5044645686846EB
:106D8C00FFF737FCD4E90113994210DA23686268E3
:106D9C0003EBC50503EBC202294605F10800FFF71A
:106DAC00A9FF8DB9636801336360012606E00131E8
:106DBC002046FFF7C9FF06460028E7D101A8FFF7D8
:106DCC002CFC304602B070BD69462846FFF711FC1A
:106DDC00E8E78842F8B504460D46164614D99042A9
:106DEC0013D2A2F10806751AA1F108072C44B74278
:106DFC0018D01CB131462046FFF7EDFB301DFFF7D4
:106E0C000CFC083E083CF2E70CD0B5420AD01CB191
:106E1C0029462046FFF7DFFB281DFFF7FEFB083550
:106E2C000834F2E7F8BD70B50E1E054611DDF00012
:106E3C00FEF7B6FD044658B1D5E9001201EBC202CB
:106E4C00FFF7C7FF2868FEF7B3FD2C60AE6001208A
:106E5C0070BD0024F6E773B5044645686846FFF735
:106E6C00BAFBD4E90113994210DA2368626803EB88
:106E7C00C50503EBC202294605F10800FFF7A9FF7F
:106E8C008DB9636801336360012606E00131204649
:106E9C00FFF7C9FF06460028E7D101A8FFF7BDFBA5
:106EAC00304602B070BD69462846FFF794FBE8E710
:106EBC002DE9F04F1746A1B080460AA80E46FFF701
:106ECC0029F83C68237953B939464046FFF783FBD0
:106EDC000AA8FFF72DF8404621B0BDE8F08F3368C3
:106EEC00D3E9035305EBC303039304F1280A04F11C
:106EFC00140B039B9D4221D0D5F80090584609F104
:106F0C001401FFF726F9B8B109F128015046FFF733
:106F1C0020F988B12368D9F80020534033F47F431B
:106F2C000AD12022CDE915235E4A009215AA5E49AA
:106F3C003220FEF799FCC7E70835DAE75046FFF731
:106F4C00D9F860B95949012215A815ADFFF7AAF86F
:106F5C000FCDD446ACE80F002B68CCF8003033686A
:106F6C00D3E9005305EBC30B5D45A94651466ED0E2
:106F7C0055F8080BFFF7EDF80028F5D004F1140ACA
:106F8C005046FFF7B7F888B9494B48491A8801327F
:106F9C0092B21A8015A8012315ADFFF7A2F80FCDF8
:106FAC00D446ACE80F002B68CCF80030414B15935D
:106FBC002822002116A800F0CDFE514604A8FFF7A8
:106FCC00ABF804AB18AA0DF1200C186859681546DB
:106FDC0003C5083363452A46F7D11868286023791E
:106FEC008DF85830D9F800309B8AADF87430E36BCB
:106FFC001793314B0022A11D15A8CDE91E34FEF7C5
:10700C00D7FA00287FF460AF012323703468394627
:10701C000C340DA8FFF7DFFA20460DA9FFF71BFF74
:10702C0004460EA8FFF7F9FA002C7FF44DAF20238D
:10703C00CDE90D34214B00930DAA234677E7394651
:10704C004046FFF7C8FA0CA8FFF7E7FA40E70BA891
:10705C00FFF73CF9514615A8FFF75EF80B9A002391
:10706C00143215A90120FEF799FA0028E7D13568EA
:10707C000BA90DA8FFF7BDFA28460DA9FFF77CFE5A
:10708C0005460EA8FFF7C9FA002DD8D03268536810
:10709C00126803F10053013B0CA802EBC309FFF784
:1070AC00BCFA6BE7C2870B00DF860B0086880B00EF
:1070BC00D4E6032003002C0071640B00ED870B0059
:1070CC00024800230360FEF787BA00BFD8E603200E
:1070DC00F8B506460D468F180024BD420CD0336817
:1070EC0015F8011B9B6830469847031E01DB1C44B6
:1070FC00F3E7002C08BF1C462046F8BD13B5044628
:10710C00084659B1019100F065FE23680199DB68CE
:10711C000246204602B0BDE81040184702B010BD30
:10712C0003689B68184738B50D210546FFF7F8FF33
:10713C000A2104462846FFF7F3FF204438BD30B53A
:10714C008BB00023012A8DF8243098BF0A2209AC99
:10715C000D46B1FBF2F101FB125303F0FF03092BB7
:10716C0094BF30333733DBB2AA4204F8013DEFD978
:10717C002146FFF7C3FF0BB030BD2DE9F04186B0BF
:10718C0000AF05460E46381D142114463B60FEF731
:10719C001FFC13280ED8391D2846FFF7AFFF0446F5
:1071AC001EB12846FFF7BFFF044420461837BD46E2
:1071BC00BDE8F08100F1080323F00703E846ADEBCE
:1071CC00030D2246411C3B686846FEF701FC6946EC
:1071DC002846FFF793FF0446C546E1E7014B024AF8
:1071EC001A607047E0E60320A6880B00024B1A6871
:1071FC00024B1A60704700BFA0E50320E4E60320B1
:10720C000021FEF741BB0000014B00229A60704741
:10721C00E8E60320014B1860704700BFA4E503208B
:10722C0008B50B4B43B100F06BF903681B69984729
:10723C00002801DDAFF30080064B43B100F0CCFB1E
:10724C0003681B699847002801DDAFF3008008BD77
:10725C00000000000000000008B5FFF7E1FFFEF79A
:10726C005BF9014B186008BD40E703200548064A4E
:10727C00064908B5121A00F045FD054B054A1A607F
:10728C0008BD00BF00F4032004F40320B48C0B00F1
:10729C0000F403201E1C279A07B5002300931A46FE
:1072AC006FF07701FEF702FB03B05DF804FB000002
:1072BC0007B543880A2B08D0502B0BD1094B1B6800
:1072CC004BB103B05DF804EB1847FFF7E5FF03B0D3
:1072DC005DF804FB002300931A466FF07701FEF76C
:1072EC00E5FAF4E7FCE6032010B512480021FEF79E
:1072FC008FFB114B1A68114B9A42114B0CBF012298
:10730C0000221A7001D0FFF7B1FFFEF7EDF804462A
:10731C0000F028FD0B4B13B12046AFF30080002189
:10732C000848FEF735FBBDE8104007480021FEF782
:10733C00B3BA00BF21720B0000F403201E1C279A65
:10734C00F8E6032000000000BD720B00704710B57A
:10735C0018210446FCF79BFE204610BDF0B5037DBA
:10736C00062B8DB00E4600F104074FF0000412D02E
:10737C0000F1080515F8011D0A223046FFF7DFFE63
:10738C00AF42044419D0002CF4D02E213046FFF724
:10739C00C7FE0444EEE72F236A4639460A208DF8CF
:1073AC000040FEF731F9684600F014FD33680246E0
:1073BC00DB68694630469847044620460DB0F0BD60
:1073CC0010B5054B0446112240F8043B002100F097
:1073DC00C1FC204610BD00BFD0880B000346074AF5
:1073EC0010B543F8042B01F1100251F8044B43F88B
:1073FC00044B9142F9D10A781A7010BDD0880B0059
:10740C0010B59DF8084044EA032343EA024242EADD
:10741C00016104234160037510BD000007B5064BE4
:10742C000360CB7800938B784A780978FFF7E8FFF4
:10743C0003B05DF804FB00BFD0880B0041747047AB
:10744C007047704708B50021007CFEF7E5F940EA6B
:10745C00E07008BD08B50121007CFEF7DDF940EABB
:10746C00E07008BD08B5007CFEF7CEF920EAE070AC
:10747C0008BD08B5007CFEF7BFF920EAE07008BD36
:10748C0013B50446007C0191FEF7BEF90028019962
:10749C0001DC607C20B1207CFEF7C6F920EAE070AC
:1074AC0002B010BD007CFEF7C7B910B5142104461C
:1074BC00FCF7EDFD204610BD10B54FF47A73044671
:1074CC0008460021C4E90113044B236001232074F6
:1074DC0063741146FEF780F9204610BDE4880B005A
:1074EC00007C0022FEF780B9007CFEF7ADB910B528
:1074FC0014220446002100F02DFC204610BD000093
:10750C0010B50F4C88B003A8FFF7F1FF2178BFF33B
:10751C005B8F11F001010FD120460191FCF7C6FDE4
:10752C00019948B103AA0748FFF7C6FF2046FCF7AC
:10753C00C2FD054800F0CCFB024808B010BD00BFEE
:10754C0000E7032004E703204D740B0070474174DF
:10755C00704708B5007CFEF78FF820EAE07008BD94
:10756C0008B5007CFEF760F820EAE07008BD08B5AD
:10757C00007CFEF769F840EAE07008BD08B5007CB5
:10758C00FEF75AF840EAE07008BD007CFEF764B8DC
:10759C0037B5457C04462DB1207C03B0BDE83040A6
:1075AC00FEF73AB8007C0191FEF766F800280199C5
:1075BC00F2DC284603B030BD10B514210446FCF7AC
:1075CC0066FD204610BD000010B54FF47A730446DA
:1075DC00084611460022C4E90123044B2360012311
:1075EC0020746374FEF750F8204610BD14890B000C
:1075FC007047F8B5064615460C468F18BC4206D0A7
:10760C00336814F8011B9B6830469847F6E7284608
:10761C00F8BD007C0022FEF757B8007C0021FEF775
:10762C005BB8007C0021FEF75FB8007C0021FEF700
:10763C0063B8007C0021FEF767B810B5142104462E
:10764C00FCF725FD204610BD38B5044615464FF411
:10765C007A730022C4E90123094B21740846236084
:10766C002946FEF761F8BF3008D16B69DB0705D5F9
:10767C006868FEF79DF9E868FEF79AF9204638BD70
:10768C0044890B000023007C1A461946FEF704B807
:10769C00007C0022FEF708B8C9B2FFF7F9BF007CE6
:1076AC000022FEF709B80121FFF7F9BF002240685C
:1076BC001146FEF71DB9002240681146FEF738B995
:1076CC00002240681146FEF743B940680022FEF7DD
:1076DC0037B94068002281F00101FEF721B900237F
:1076EC0040681A461946FEF713B9002340681A463B
:1076FC001946FEF705B9002240681146FEF7E8B8B6
:10770C00406800220221FEF7EBB8002340681A46BD
:10771C00FEF7D6B8024B04225A60024A1A60704730
:10772C0018E703206C890B00002340681A46FEF70B
:10773C00C7B8406800220221FEF7D2B80022406888
:10774C001146FEF7C5B8002240681146FEF7D0B8C6
:10775C00002340681A461946FEF7D2B80023406849
:10776C001A461946FEF7D4B840680021FEF7F8B85F
:10777C0040680021FEF7FCB84068002281F001014E
:10778C00FEF7CEB840680022FEF7DAB80022406857
:10779C001146FEF7DDB8002240681146FEF7C8B866
:1077AC002DE9F04395B014460D460746FFF708FE49
:1077BC0000211C220DA8009100F0CCFA40230C9360
:1077CC0020466B460CAA0021FDF766FE04460028F5
:1077DC004BD1024601216868FEF78AF802218046E7
:1077EC0022466868FEF784F8009E81462146002EEA
:1077FC003BD0002939D17368022B03D00A2B11D04E
:10780C00F669F4E7B8F1000FFAD0716906A80431F3
:10781C0007ADFFF703FE0FCD3C1D0FC42B68237083
:10782C004146EDE7B9F1000FEAD07469102201A8C6
:10783C0000F090FA06238DF8143001AD04F1080322
:10784C001834186859682A4603C20833A3421546EF
:10785C00F7D101A906A807ADFFF7C0FD0FCD3C1D60
:10786C000FC42B6823704946CAE70098FDF70CFE3D
:10787C00384615B0BDE8F083024B034A1A6000226B
:10788C005A60704720E70320A8890B00232813B502
:10789C0002D9002002B010BDA0F10B03022B1AD8A4
:1078AC00174C2178BFF35B8F11F001010BD12046EF
:1078BC000191FCF7FBFB019928B11248FEF7F4F893
:1078CC002046FCF7F8FB0F4B1878FDF765FF0028F6
:1078DC00DFD10120DEE7012809D800F0BDF8002136
:1078EC00007CFDF719FF80F00100C0B2D2E7093827
:1078FC000128EED800F070F8007CFDF7B5FEF2E739
:10790C00ACE60320B0E60320232838B504460D4628
:10791C000AD8FF2908D0FFF7B9FF28B1294620461D
:10792C00BDE83840FDF7C8BD38BD38B504460D4636
:10793C00FDF7CAFDFF2810D0062804D84D2323FAE2
:10794C0000F0C30709D42046FFF7A0FF28B1294651
:10795C002046BDE83840FDF7BFBD38BD2DE9F041EC
:10796C0090461F46072406460D46C4F10701B8F1A0
:10797C00000F12D147FA01F101F001013046FFF777
:10798C00D4FF01212846FFF7D0FF00212846FFF73E
:10799C00CCFF013CE9D2BDE8F08147FA04F1EBE7FA
:1079AC007047000038B5044614252A46002100F023
:1079BC00D1F925804025074925812846258200F0EC
:1079CC006FF804496060284600F06AF8E0602046D1
:1079DC0038BD00BFDC890B0030B50E4D2978BFF3E4
:1079EC005B8F11F0010487B011D12846FCF75EFBC8
:1079FC0068B101A8FFF7D6FF01AA21460648FFF798
:107A0C00E3FD2846FCF757FB044800F061F90248F7
:107A1C0007B030BD28E703202CE70320AD790B001D
:107A2C007047000038B50A4B0360012304464361DC
:107A3C000849202000F034F8202560600549A56035
:107A4C00284600F02DF8C4E90305204638BD00BFD8
:107A5C0018000100DC890B0030B50E4D2978BFF3FE
:107A6C005B8F11F0010487B011D12846FCF71EFB87
:107A7C0068B16846FFF7D6FF6A4621460648FFF70D
:107A8C00E3FD2846FCF717FB044800F021F90248F7
:107A9C0007B030BD44E7032048E703202D7A0B00E4
:107AAC00FCF7F3BA08B5FDF79BFF0000014900F0A5
:107ABC00F9B800BFF8890B007FB500241023CDE97D
:107ACC000234036815469E6912686B46CDE9004482
:107ADC00B0479DF8043003F00603062B03BF009B50
:107AEC002B600120204604B070BD0098904214BF5A
:107AFC00012006207047000010B5034B03600446BC
:107B0C0000F0CDF8204610BD388A0B0010B50446A5
:107B1C00FFF7F2FF20460821FCF7B9FA204610BD0A
:107B2C002DE9F0411F46DDE90834DDF81880984551
:107B3C000646154607D1079900F0B4F818B16571DF
:107B4C000020BDE8F0813946304600F0ABF8002843
:107B5C00F6D00123C4F800802571A371F0E738B585
:107B6C0015461C4600F09EF820B10823E36006235E
:107B7C002560237138BD73B505460C4601921E462F
:107B8C0000F090F850B9032E08D82368019A5B696D
:107B9C002946204602B0BDE87040184702B070BDBF
:107BAC0010B5034B03600446FFF7A6FF204610BD3B
:107BBC00988A0B0010B50446FFF7F2FF20460C2103
:107BCC00FCF765FA204610BDF7B5089F97420546AD
:107BDC000E4614460AD0A86802680897156A314602
:107BEC002246AC4603B0BDE8F0406047194601930D
:107BFC0000F058F8019B0028EDD0062003B0F0BD32
:107C0C002DE9F14F0D461946DDE90A4BDDE90CA6CD
:107C1C0081461746984600F045F890B1002D346027
:107C2C00377109DB61198A450CBF06210121B1713D
:107C3C00002001B0BDE8F08F0235F9D10123B371FA
:107C4C00F6E7544506D15946484600F02BF808B1E2
:107C5C007771EDE7D9F808000368CDE90CA6CDE9FA
:107C6C000A4BDC693A4643462946A44601B0BDE8B6
:107C7C00F04F60472DE9F04107460C4615461E466D
:107C8C00FFF76DFF48B9B86803689F692A46334609
:107C9C002146BC46BDE8F0416047BDE8F081704725
:107CAC0000207047814208B50ED0406803782A2B1B
:107CBC000CD049680B782A2B08BF013100F080F8F2
:107CCC00B0FA80F0400908BD0120FCE70020FAE77B
:107CDC00002301461A46184600F01CB90A2200215E
:107CEC0000F00EB910B501390244904201D10020C8
:107CFC0005E0037811F8014FA34201D0181B10BD09
:107D0C000130F2E70A44914200F1FF3300D1704791
:107D1C0010B511F8014B03F8014F9142F9D110BD88
:107D2C00884210B501EB020402D98442234607D8DD
:107D3C00431EA14208D011F8012B03F8012FF8E7DC
:107D4C00024401468A4200D110BD13F8014D02F8DD
:107D5C00014DF7E702440346934200D1704703F804
:107D6C00011BF9E738B5104B1D68AB6B0446B3B972
:107D7C001820FDF715FE0246A86320B90B4B0C48E2
:107D8C004221FDF73DFE0B490B4BC0E900130B4B99
:107D9C0083600B23838100210120C2E90401AB6BBA
:107DAC0000221C615A6138BDA4E50320D18A0B0066
:107DBC00E88A0B000E33CDAB34126DE6ECDE050019
:107DCC0010F8012B11F8013B012A28BF9A42F7D079
:107DDC00D01A7047034613F8012B002AFBD1181A4E
:107DEC000138704710B5024601448A42134603D04D
:107DFC001C780132002CF8D1181A10BD012B2DE97A
:107E0C00F04701D0242B06D9FDF7F2FD16230360B1
:107E1C000020BDE8F087DFF8E4C00D462E4615F8CB
:107E2C00014B14F80C7017F00807F7D12D2C32D138
:107E3C002C780127B51C002B5BD0102B09D1302CD2
:107E4C0007D12C7804F0DF04582C4DD16C7810231A
:107E5C00023507F1004808F1FF384FF0000CB8FB71
:107E6C00F3F9664603FB198AA4F1300EBEF1090F33
:107E7C0016D87446A34224DDBCF1000F1EDBB145BD
:107E8C001CD301D1A24519DB06FB03464FF0010CB4
:107E9C0015F8014BE8E72B2C04BF2C78B51CCAE76E
:107EAC00A4F1410EBEF1190F01D8373CE2E7A4F161
:107EBC00610EBEF1190F04D8573CDBE74FF0FF3CC5
:107ECC00E6E7BCF1000F05DA22230360464642B90F
:107EDC0030469EE707B17642002AF9D0BCF1000F7C
:107EEC0000D0691E1160F3E73024002BB1D10823B8
:107EFC00AFE7302CA5D00A23ABE700BF668B0B0095
:107F0C0013460A46014602480068FFF777BF00BFD8
:107F1C00A4E503202DE9F843DFF8B8800646D8F82D
:107F2C0000001F460D46914600F056F8254B1C6884
:107F3C0034B9254C1C60254B13B11B68C4F8883030
:107F4C0063681F2B07DDD8F8000000F047F84FF0EE
:107F5C00FF30BDE8F8834EB3D4F8880088B91C4BC9
:107F6C0023B9D8F8000000F038F8F0E74FF484702B
:107F7C00FDF716FD0028F4D00023C0E94033C4F807
:107F8C008800636840F8239001229A4000EB83013B
:107F9C00D0F800311343C0F80031022EC1F88070C4
:107FAC0002BFD0F804311343C0F804316368D8F829
:107FBC0000005A1C0233626044F8235000F00EF8A3
:107FCC000020C6E7E8E703205CE703200000000080
:107FDC00AD590B0008E6032070477047704700004E
:107FEC001D400B0059400B0081400B0085400B00DD
:107FFC000000000043616C6C206F6E207075726520
:10800C00207669727475616C004172676F6E2042E4
:10801C004C4520416464726573733A25730A0050B1
:10802C006C617954696D65212563007265636569BE
:10803C0076656420646174612066726F6D3A2530D8
:10804C0032583A253032583A253032583A253032A7
:10805C00583A253032583A253032580A00253032F9
:10806C0058004D6573736167653A2025730A005497
:10807C0075726E206F6E20627574746F6E25690A4E
:10808C000036453430303030312D423541332D46B9
:10809C003339332D453041392D4535304532344453
:1080AC0043434139450036453430303030322D426F
:1080BC003541332D463339332D453041392D453536
:1080CC003045323444434341394500364534303031
:1080DC003030332D423541332D463339332D453035
:1080EC0041392D45353045323444434341394500FF
:1080FC0074780072780000002C0100001800000059
:10810C00F40100002C0100005000000000000000F1
:10811C0000000000DD4C0B006D4D0B0011540B00EA
:10812C00DD700B00E14C0B0029510B00694B0B006F
:10813C00F9490B00E7510B0085520B00BB520B00A9
:10814C00D7520B0000000000003E5B4F5B3E3E6BC5
:10815C004F6B3E1C3E7C3E1C183C7E3C181C577DD5
:10816C00571C1C5E7F5E1C00183C1800FFE7C3E721
:10817C00FF0018241800FFE7DBE7FF30483A060E33
:10818C002629792926407F050507407F05253F5A7A
:10819C003CE73C5A7F3E1C1C08081C1C3E7F1422EA
:1081AC007F22145F5F005F5F06097F017F00668995
:1081BC00956A606060606094A2FFA29408047E04DB
:1081CC000810207E201008082A1C08081C2A080801
:1081DC001E101010100C1E0C1E0C30383E383006C1
:1081EC000E3E0E06000000000000005F00000007BD
:1081FC00000700147F147F14242A7F2A12231308EB
:10820C00646236495620500008070300001C2241C6
:10821C00000041221C002A1C7F1C2A08083E08086A
:10822C00008070300008080808080000606000201A
:10823C00100804023E5149453E00427F40007249FD
:10824C004949462141494D331814127F10274545A1
:10825C0045393C4A494931412111090736494949B7
:10826C0036464949291E0000140000004034000025
:10827C00000814224114141414140041221408028E
:10828C00015909063E415D594E7C1211127C7F4901
:10829C004949363E414141227F4141413E7F494956
:1082AC0049417F090909013E414151737F08080882
:1082BC007F00417F41002040413F017F0814224153
:1082CC007F404040407F021C027F7F0408107F3EAD
:1082DC004141413E7F090909063E4151215E7F091A
:1082EC00192946264949493203017F01033F404081
:1082FC00403F1F2040201F3F4038403F631408146C
:10830C006303047804036159494D43007F414141A3
:10831C000204081020004141417F04020102044084
:10832C0040404040000307080020545478407F2808
:10833C004444383844444428384444287F385454FE
:10834C00541800087E090218A4A49C787F08040421
:10835C007800447D40002040403D007F10284400C0
:10836C0000417F40007C047804787C080404783851
:10837C0044444438FC1824241818242418FC7C0881
:10838C00040408485454542404043F44243C4040FE
:10839C00207C1C2040201C3C4030403C44281028B1
:1083AC00444C9090907C4464544C440008364100FA
:1083BC000000770000004136080002010204023C74
:1083CC002623263C1EA1A161123A4040207A385443
:1083DC0054555921555579412154547841215554BE
:1083EC00784020545579400C1E527212395555550F
:1083FC0059395454545939555454580000457C41FA
:10840C000002457D420001457C40F0292429F0F012
:10841C00282528F07C545545002054547C547C0A63
:10842C00097F4932494949323248484832324A4830
:10843C0048303A4141217A3A42402078009DA0A030
:10844C007D39444444393D4040403D3C24FF242484
:10845C00487E4943662B2FFC2F2BFF0929F620C0A1
:10846C00887E090320545479410000447D413048F2
:10847C00484A32384040227A007A0A0A727D0D1935
:10848C00317D2629292F28262929292630484D4097
:10849C0020380808080808080808382F10C8ACBA93
:1084AC002F102834FA00007B000008142A14222212
:1084BC00142A1408AA005500AAAA55AA55AA000005
:1084CC0000FF00101010FF00141414FF001010FF18
:1084DC0000FF1010F010F0141414FC001414F7002A
:1084EC00FF0000FF00FF1414F404FC141417101FF9
:1084FC0010101F101F1414141F00101010F0000087
:10850C0000001F101010101F10101010F0100000A1
:10851C0000FF101010101010101010FF10000000B1
:10852C00FF140000FF00FF00001F10170000FC04E8
:10853C00F414141710171414F404F40000FF00F7CB
:10854C0014141414141414F700F71414141714102E
:10855C00101F101F141414F4141010F010F000005D
:10856C001F101F0000001F14000000FC140000F07E
:10857C0010F01010FF10FF141414FF141010101F23
:10858C0000000000F010FFFFFFFFFFF0F0F0F0F034
:10859C00FFFFFF0000000000FFFF0F0F0F0F0F3851
:1085AC00444438447C2A2A3E147E02020606027E8B
:1085BC00027E0263554941633844443C04407E20AA
:1085CC001E2006027E020299A5E7A5991C2A492ABB
:1085DC001C4C7201724C304A4D4D3030487848304A
:1085EC00BC625A463D3E494949007E0101017E2A42
:1085FC002A2A2A2A44445F444440514A4440404475
:10860C004A51400000FF0103E080FF000008086BA6
:10861C006B083612362436060F090F0600001818A0
:10862C000000001010003040FF0101001F01011E6E
:10863C0000191D1712003C3C3C3C000000000000DF
:10864C00000000000000000000000000000000001E
:10865C0011540B00DD700B00A1400B0029510B00D5
:10866C004F520B006B520B00E7510B0085520B0065
:10867C00BB520B00D7520B000000000000000000A2
:10868C008B5A0B00815A0B00775A0B006D5A0B005A
:10869C00615A0B00555A0B0075770B007D770B0058
:1086AC00495A0B00415A0B00375A0B002D5A0B003C
:1086BC00AD770B0000081018202830384173736513
:1086CC007274696F6E4661696C7572652066616C57
:1086DC00736500776972696E672E626C65005374FE
:1086EC0061727420646973636F766572696E67205A
:1086FC0073657276696365732E004173736572746A
:10870C00696F6E4661696C7572652068616C5F6239
:10871C006C655F737461636B5F696E6974286E75E9
:10872C006C6C70747229203D3D2053595354454D47
:10873C005F4552524F525F4E4F4E45005065657229
:10874C0020646576696365206973206D697373694C
:10875C006E6721004661696C656420746F206170DE
:10876C0070656E6420706565722043656E7472610D
:10877C006C206465766963652E00436F6E6E65636D
:10878C007465642062792043656E7472616C206438
:10879C0065766963652E00446973636F6E6E6563FD
:1087AC007465642062792072656D6F7465206465F0
:1087BC00766963652E004475706C696361746564D9
:1087CC002063686172616374657269737469632094
:1087DC0063616E6E6F742062652061646465642EE3
:1087EC00004661696C656420746F20617070656E01
:1087FC0064206C6F63616C20636861726163746583
:10880C007269737469632E000000000000000000A0
:10881C00355D0B00995D0B00B95E0B00C35D0B0061
:10882C00395D0B000000000000000000315D0B0002
:10883C00A75D0B00335D0B00C95D0B00595D0B0090
:10884C0000000000000000002F5D0B00B55D0B0068
:10885C008D660B00CF5D0B00795D0B0000000000F6
:10886C0000000000000000000000FB349B5F800053
:10887C00008000100000000000007BE327747BF8F0
:10888C0015ACDD49A913000072F5FB349B5F800029
:10889C00008000100000000000006170700025597D
:1088AC002D256D2D25645425483A254D3A25532503
:1088BC007A0061736374696D65000000000000004C
:1088CC000000000069730B0059730B005B730B0005
:1088DC0000000000000000004F740B00B7740B0088
:1088EC008D740B00DD700B007F740B0051740B004A
:1088FC0061740B00B1740B0071740B0049740B00A4
:10890C00000000000000000059750B00C5750B003D
:10891C009D750B00DD700B006D750B0089750B00E0
:10892C007B750B0097750B005B750B005F750B006F
:10893C000000000000000000FD750B0047760B00E6
:10894C001F760B00FF750B0027760B002F760B00A4
:10895C0037760B003F760B00000000000000000093
:10896C0017770B000D770B0003770B00B9760B0014
:10897C00F7760B00EB760B0075770B007D770B0011
:10898C00DF760B00D7760B00CD760B00C3760B0091
:10899C00AD770B00000000000000000035770B00E5
:1089AC003F770B0049770B0053770B005D770B007B
:1089BC0069770B0075770B007D770B0085770B00C3
:1089CC0091770B0099770B00A3770B00AD770B0019
:1089DC0000537431395F53705F6D616B655F736801
:1089EC00617265645F74616700000000388A0B0077
:1089FC00DD890B00988A0B000C8A0B00BC8A0B00DB
:108A0C004E31305F5F637878616269763131375F00
:108A1C005F636C6173735F747970655F696E666FA9
:108A2C004500000000000000008A0B00057B0B00D5
:108A3C00197B0B00AD7C0B00AD7C0B00837B0B001A
:108A4C00C57A0B006B7B0B002D7B0B00F77A0B00B0
:108A5C00988A0B00688A0B00008A0B004E31305F3D
:108A6C005F637878616269763132305F5F73695F1A
:108A7C00636C6173735F747970655F696E666F4563
:108A8C0000000000000000005C8A0B00AD7B0B00B6
:108A9C00C17B0B00AD7C0B00AD7C0B00837B0B0012
:108AAC00C57A0B00817C0B000D7C0B00D57B0B0079
:108ABC00388A0B00C48A0B00537439747970655F63
:108ACC00696E666F005245454E54206D616C6C6F3B
:108ADC006320737563636565646564002F6D6E74E4
:108AEC002F776F726B73706163652F776F726B7317
:108AFC00706163652F4743432D31302D706970656C
:108B0C006C696E652F6A656E6B696E732D47434396
:108B1C002D31302D706970656C696E652D34385F40
:108B2C0032303230313132345F31363036313830E8
:108B3C003634312F7372632F6E65776C69622F6ECA
:108B4C0065776C69622F6C6962632F7374646C69EE
:108B5C00622F72616E642E63000020202020202082
:108B6C0020202028282828282020202020202020D1
:108B7C0020202020202020202020881010101010D1
:108B8C001010101010101010101004040404040421
:108B9C000404040410101010101010414141414104
:108BAC004101010101010101010101010101010169
:108BBC0001010101011010101010104242424242FA
:108BCC004202020202020202020202020202020239
:108BDC00020202020210101010200000000000001F
:108BEC000000000000000000000000000000000079
:108BFC000000000000000000000000000000000069
:108C0C000000000000000000000000000000000058
:108C1C000000000000000000000000000000000048
:108C2C000000000000000000000000000000000038
:108C3C000000000000000000000000000000000028
:108C4C000000000000000000000000000000000018
:108C5C000000000000000000000000001D440B009C
:108C6C00E9490B00955A0B00295C0B00CD700B00E9
:108C7C00E9710B00F9710B0015720B0021770B00D9
:048C8C0085780B00DC
:108C9000040000001400000003000000474E5500CF
:108CA000A5656A0940AC2FE4DEEC91BBE8D005C6AF
:048CB0001EFFD9D3F7
:048CB40000000000BC
:108CB8000000FF00FF0000000F0000000001030794
:108CC8000F1F3F7F0080C0E0F0F8FCFE00000000AE
:108CD800000000000000000000000000000000008C
:108CE800000000000000000000000000000000007C
:108CF800000000000000000000000000000000006C
:108D080000000000000000000000008080800000DB
:108D1800000000000000000000000000008080C08B
:108D2800C00000000000000000000000000000007B
:108D3800000000000000000000000000000000002B
:108D4800000000000000000000000000000000001B
:108D5800000000000000000000000000000000000B
:108D680080C0E0F0F8FCF8E000000000000000001F
:108D780000000000000000000080808080800080EB
:108D88008000000000808080808000FFFFFF0000DE
:108D980000008080808000008080000080FFFF80CD
:108DA800800080800080808080008080000000003B
:108DB80000808000008C8E84000080F8F8F8800025
:108DC800000000000000000000000000F0F0F0F0DB
:108DD800F0F0F0F0F0F0F0F0E0E0C08000E0FCFE31
:108DE800FFFFFF7FFFFFFFFFFF0000000000000004
:108DF80000000000000000FEFFC70101010183FF21
:108E0800FF00007CFEC70101010183FFFFFF00385E
:108E1800FEC78301010183C7FFFF000001FFFF01B7
:108E28000100FFFF0701010100007FFF8000000033
:108E3800FFFF7F0000FFFFFF000001FFFFFF0100B1
:108E4800000000000000000000000000030F3F7F4A
:108E58007FFFFFFFFFFFFFFFE7C7C78F8F9FBFFFA2
:108E6800FFC3C0F0FFFFFFFFFFFCFCFCFCFCFCFCA9
:108E7800FCF8F8F0F0E0C00001030303030301036A
:108E880003000000000103030303010103010000C4
:108E980000010303030301010303000000030300AF
:108EA80000000303000000000000000103030303A7
:108EB800030100000001030100000003030100009A
:108EC800000000000000000000000000000000801A
:108ED800C0E0F0F9FFFFFFFFFF3F1F0F87C7F7FF55
:108EE800FF1F1F3DFCF8F8F8F87C7DFFFFFFFFFF30
:108EF800FFFFFF7F3F0F0700303000000000000039
:108F08000000000000000000000000000000000059
:108F1800FEFEFC0000000000000000000000000051
:108F2800000000000000000000E0C0000000000099
:108F380000000000000030300000000000000000C9
:108F480000000000000000000000000000C0FEFF5C
:108F5800FFFFFFFFFFFFFFFF7F7F3F1F0F071F7F01
:108F6800FFFFF8F8FFFFFFFFFFFEF8E00000000139
:108F78000000000000000000FEFE000000FCFEFCF7
:108F88000C06060EFCF80000F0F81C0E0606060C8F
:108F9800FFFFFF0000FEFE00000000FCFEFC0018C2
:108FA8003C7E66E6CE84000006FFFF0606FCFEFC5B
:108FB8000C0606060000FEFE0000C0F8FC4E464601
:108FC800464E7C7840183C76E6CECC800000000007
:108FD8000000000000000000000000000000000089
:108FE80001070F1F1F3F3F3F3F1F0F0300000000F7
:108FF80000000000000000000F0F0000000F0F0F1E
:10900800000000000F0F000003070E0C18180C06D4
:109018000F0F0F0000010F0E0C180C0F07010004B2
:109028000E0C180C0F070000000F0F00000F0F0F99
:109038000000000000000F0F00000007070C0C18CC
:109048001C0C060600040E0C180C0F07000000008C
:109058000000000000000000000000000000000008
:1090680000000000000000000000000000000000F8
:1090780000000000000000000000000000000000E8
:1090880000000000000000000000000000000000D8
:1090980000000000000000000000000000000000C8
:1090A80000000000000000000000000000000000B8
:1090B80000000000000000000000000000000000A8
:1090C800000000000000000000000000BE880B0047
:1090D800A8E50320000000000000000000000000D8
:1090E8000000000000000000000000000000000078
:1090F8000000000000000000000000000000000068
:109108000000000000000000000000000000000057
:109118000000000000000000000000000000000047
:109128000000000000000000000000000000000037
:0891380000000000ECE7032039
:10914000FFFFFFFF00000102030405060708090AEC
:109150000B0C0D0E0F101112131415161718191AE7
:089160001B1C1D1E1F2028002E
:0491680078563412EF
:04000003B000401CED
:00000001FF
